{
  "contractName": "DisasterRecoveryTraining",
  "abi": [
    {
      "inputs": [
        {
          "internalType": "uint256",
          "name": "id",
          "type": "uint256"
        },
        {
          "internalType": "string",
          "name": "name",
          "type": "string"
        },
        {
          "internalType": "uint256",
          "name": "age",
          "type": "uint256"
        }
      ],
      "name": "registerAdmin",
      "outputs": [
        {
          "internalType": "uint256",
          "name": "",
          "type": "uint256"
        }
      ],
      "stateMutability": "nonpayable",
      "type": "function"
    },
    {
      "inputs": [
        {
          "internalType": "uint256",
          "name": "id",
          "type": "uint256"
        },
        {
          "internalType": "string",
          "name": "name",
          "type": "string"
        },
        {
          "internalType": "uint256",
          "name": "age",
          "type": "uint256"
        },
        {
          "internalType": "string",
          "name": "gender",
          "type": "string"
        }
      ],
      "name": "registerTrainer",
      "outputs": [
        {
          "internalType": "uint256",
          "name": "",
          "type": "uint256"
        }
      ],
      "stateMutability": "nonpayable",
      "type": "function"
    },
    {
      "inputs": [
        {
          "internalType": "uint256",
          "name": "id",
          "type": "uint256"
        },
        {
          "internalType": "string",
          "name": "name",
          "type": "string"
        },
        {
          "internalType": "uint256",
          "name": "age",
          "type": "uint256"
        },
        {
          "internalType": "string",
          "name": "gender",
          "type": "string"
        },
        {
          "internalType": "string",
          "name": "district",
          "type": "string"
        },
        {
          "internalType": "uint256",
          "name": "training_interest",
          "type": "uint256"
        },
        {
          "internalType": "bool",
          "name": "has_completed_training",
          "type": "bool"
        }
      ],
      "name": "registerParticipant",
      "outputs": [
        {
          "internalType": "uint256",
          "name": "",
          "type": "uint256"
        }
      ],
      "stateMutability": "nonpayable",
      "type": "function"
    },
    {
      "inputs": [
        {
          "internalType": "uint256",
          "name": "participantId",
          "type": "uint256"
        },
        {
          "internalType": "uint256",
          "name": "newTrainingInterest",
          "type": "uint256"
        },
        {
          "internalType": "bool",
          "name": "has_completed_training",
          "type": "bool"
        }
      ],
      "name": "updateParticipantData",
      "outputs": [],
      "stateMutability": "nonpayable",
      "type": "function"
    },
    {
      "inputs": [
        {
          "internalType": "uint256",
          "name": "trainerId",
          "type": "uint256"
        },
        {
          "internalType": "uint256",
          "name": "slotId",
          "type": "uint256"
        }
      ],
      "name": "bookTrainingSlot",
      "outputs": [
        {
          "internalType": "bool",
          "name": "",
          "type": "bool"
        }
      ],
      "stateMutability": "payable",
      "type": "function",
      "payable": true
    },
    {
      "inputs": [],
      "name": "viewAdminBalance",
      "outputs": [
        {
          "internalType": "uint256[]",
          "name": "adminIdList",
          "type": "uint256[]"
        },
        {
          "internalType": "uint256[]",
          "name": "balanceList",
          "type": "uint256[]"
        }
      ],
      "stateMutability": "view",
      "type": "function",
      "constant": true
    },
    {
      "inputs": [
        {
          "internalType": "uint256",
          "name": "participantId",
          "type": "uint256"
        }
      ],
      "name": "viewParticipantData",
      "outputs": [
        {
          "internalType": "uint256",
          "name": "id",
          "type": "uint256"
        },
        {
          "internalType": "string",
          "name": "name",
          "type": "string"
        },
        {
          "internalType": "uint256",
          "name": "age",
          "type": "uint256"
        },
        {
          "internalType": "string",
          "name": "gender",
          "type": "string"
        },
        {
          "internalType": "string",
          "name": "district",
          "type": "string"
        },
        {
          "internalType": "uint256",
          "name": "training_interest",
          "type": "uint256"
        },
        {
          "internalType": "bool",
          "name": "has_completed_training",
          "type": "bool"
        },
        {
          "internalType": "uint256",
          "name": "balance",
          "type": "uint256"
        }
      ],
      "stateMutability": "view",
      "type": "function",
      "constant": true
    },
    {
      "inputs": [
        {
          "internalType": "uint256",
          "name": "trainerId",
          "type": "uint256"
        }
      ],
      "name": "viewTrainerSchedule",
      "outputs": [
        {
          "internalType": "uint256[]",
          "name": "availableSlots",
          "type": "uint256[]"
        },
        {
          "internalType": "string[]",
          "name": "timeRanges",
          "type": "string[]"
        }
      ],
      "stateMutability": "view",
      "type": "function",
      "constant": true
    },
    {
      "inputs": [
        {
          "internalType": "string",
          "name": "district",
          "type": "string"
        }
      ],
      "name": "searchParticipantsByDistrict",
      "outputs": [
        {
          "internalType": "uint256",
          "name": "totalInDistrict",
          "type": "uint256"
        },
        {
          "internalType": "uint256[]",
          "name": "participantIdsSorted",
          "type": "uint256[]"
        },
        {
          "internalType": "string[]",
          "name": "participantNamesSorted",
          "type": "string[]"
        }
      ],
      "stateMutability": "view",
      "type": "function",
      "constant": true
    }
  ],
  "bytecode": "0x608060405234801561001057600080fd5b50613602806100206000396000f3fe6080604052600436106100865760003560e01c80635ffc80f2116100595780635ffc80f21461014e5780636c80cd3314610192578063710e2aba146101cf578063a30b027b1461020c578063d45b1a391461024957610086565b80633a7002e11461008b5780634efbbb1b146100b457806351eca4dd146100e45780635a29dc2914610122575b600080fd5b34801561009757600080fd5b506100b260048036038101906100ad9190611e7a565b610288565b005b6100ce60048036038101906100c99190611ecd565b61050e565b6040516100db9190611f1c565b60405180910390f35b3480156100f057600080fd5b5061010b60048036038101906101069190611f37565b6108f8565b604051610119929190612174565b60405180910390f35b34801561012e57600080fd5b50610137610c91565b6040516101459291906121ab565b60405180910390f35b34801561015a57600080fd5b5061017560048036038101906101709190611f37565b610e1b565b60405161018998979695949392919061223b565b60405180910390f35b34801561019e57600080fd5b506101b960048036038101906101b49190612403565b61117a565b6040516101c691906124a2565b60405180910390f35b3480156101db57600080fd5b506101f660048036038101906101f191906124bd565b6112dc565b60405161020391906124a2565b60405180910390f35b34801561021857600080fd5b50610233600480360381019061022e919061252c565b611513565b60405161024091906124a2565b60405180910390f35b34801561025557600080fd5b50610270600480360381019061026b9190612622565b61181b565b60405161027f9392919061266b565b60405180910390f35b600160003373ffffffffffffffffffffffffffffffffffffffff1673ffffffffffffffffffffffffffffffffffffffff16815260200190815260200160002060009054906101000a900460ff16610314576040517f08c379a000000000000000000000000000000000000000000000000000000000815260040161030b90612722565b60405180910390fd5b600060046000858152602001908152602001600020600001540361036d576040517f08c379a00000000000000000000000000000000000000000000000000000000081526004016103649061278e565b60405180910390fd5b60028211156103b1576040517f08c379a00000000000000000000000000000000000000000000000000000000081526004016103a8906127fa565b60405180910390fd5b60006004600085815260200190815260200160002090508060050160019054906101000a900460ff1615806103e35750815b610422576040517f08c379a00000000000000000000000000000000000000000000000000000000081526004016104199061288c565b60405180910390fd5b600160003373ffffffffffffffffffffffffffffffffffffffff1673ffffffffffffffffffffffffffffffffffffffff16815260200190815260200160002060009054906101000a900460ff166104ae576040517f08c379a00000000000000000000000000000000000000000000000000000000081526004016104a5906128f8565b60405180910390fd5b8260028111156104c1576104c0612918565b5b8160050160006101000a81548160ff021916908360028111156104e7576104e6612918565b5b0217905550818160050160016101000a81548160ff02191690831515021790555050505050565b600080600360008581526020019081526020016000206000015403610568576040517f08c379a000000000000000000000000000000000000000000000000000000000815260040161055f90612993565b60405180910390fd5b6000600680549050116105b0576040517f08c379a00000000000000000000000000000000000000000000000000000000081526004016105a7906129ff565b60405180910390fd5b603082106105f3576040517f08c379a00000000000000000000000000000000000000000000000000000000081526004016105ea90612a6b565b60405180910390fd5b60056000848152602001908152602001600020600083815260200190815260200160002060030160009054906101000a900460ff1615610668576040517f08c379a000000000000000000000000000000000000000000000000000000000815260040161065f90612ad7565b60405180910390fd5b6000600680549050116106b0576040517f08c379a00000000000000000000000000000000000000000000000000000000081526004016106a7906129ff565b60405180910390fd5b670de0b6b3a764000034146106fa576040517f08c379a00000000000000000000000000000000000000000000000000000000081526004016106f190612b43565b60405180910390fd5b6000600260003373ffffffffffffffffffffffffffffffffffffffff1673ffffffffffffffffffffffffffffffffffffffff16815260200190815260200160002054905060008103610781576040517f08c379a000000000000000000000000000000000000000000000000000000000815260040161077890612baf565b60405180910390fd5b60405180608001604052808481526020018581526020018281526020016001151581525060056000868152602001908152602001600020600085815260200190815260200160002060008201518160000155602082015181600101556040820151816002015560608201518160030160006101000a81548160ff021916908315150217905550905050600060068054905042448460405160200161082793929190612bf0565b6040516020818303038152906040528051906020012060001c61084a9190612c5c565b905060006006828154811061086257610861612c8d565b5b9060005260206000200154905060008082815260200190815260200160002060040160009054906101000a900473ffffffffffffffffffffffffffffffffffffffff1673ffffffffffffffffffffffffffffffffffffffff166108fc349081150290604051600060405180830381858888f193505050501580156108ea573d6000803e3d6000fd5b506001935050505092915050565b6060806000600360008581526020019081526020016000206000015403610954576040517f08c379a000000000000000000000000000000000000000000000000000000000815260040161094b90612993565b60405180910390fd5b6000805b60308110156109bc5760056000868152602001908152602001600020600082815260200190815260200160002060030160009054906101000a900460ff166109a95781806109a590612ceb565b9250505b80806109b490612ceb565b915050610958565b508067ffffffffffffffff8111156109d7576109d66122d8565b5b604051908082528060200260200182016040528015610a055781602001602082028036833780820191505090505b5092508067ffffffffffffffff811115610a2257610a216122d8565b5b604051908082528060200260200182016040528015610a5557816020015b6060815260200190600190039081610a405790505b5091506000805b6030811015610c895760056000878152602001908152602001600020600082815260200190815260200160002060030160009054906101000a900460ff16610c765780858381518110610ab257610ab1612c8d565b5b6020026020010181815250506000600282610acd9190612d33565b90506000601e600284610ae09190612c5c565b610aea9190612d64565b905060008290506000601e83610b009190612dbe565b9050603c8103610b1d578180610b1590612ceb565b925050600090505b610b2684611c59565b60008414610b69576040518060400160405280600281526020017f3330000000000000000000000000000000000000000000000000000000000000815250610ba0565b6040518060400160405280600281526020017f30300000000000000000000000000000000000000000000000000000000000008152505b610ba984611c59565b60008414610bec576040518060400160405280600281526020017f3330000000000000000000000000000000000000000000000000000000000000815250610c23565b6040518060400160405280600281526020017f30300000000000000000000000000000000000000000000000000000000000008152505b604051602001610c369493929190612ec6565b604051602081830303815290604052888781518110610c5857610c57612c8d565b5b60200260200101819052508580610c6e90612ceb565b965050505050505b8080610c8190612ceb565b915050610a5c565b505050915091565b606080600060068054905090508067ffffffffffffffff811115610cb857610cb76122d8565b5b604051908082528060200260200182016040528015610ce65781602001602082028036833780820191505090505b5092508067ffffffffffffffff811115610d0357610d026122d8565b5b604051908082528060200260200182016040528015610d315781602001602082028036833780820191505090505b50915060005b81811015610e1557600060068281548110610d5557610d54612c8d565b5b9060005260206000200154905080858381518110610d7657610d75612c8d565b5b602002602001018181525050670de0b6b3a764000060008083815260200190815260200160002060040160009054906101000a900473ffffffffffffffffffffffffffffffffffffffff1673ffffffffffffffffffffffffffffffffffffffff1631610de29190612d33565b848381518110610df557610df4612c8d565b5b602002602001018181525050508080610e0d90612ceb565b915050610d37565b50509091565b600060606000606080600080600080600460008b81526020019081526020016000206000015403610e81576040517f08c379a0000000000000000000000000000000000000000000000000000000008152600401610e789061278e565b60405180910390fd5b6000600460008b81526020019081526020016000206040518061012001604052908160008201548152602001600182018054610ebc90612f54565b80601f0160208091040260200160405190810160405280929190818152602001828054610ee890612f54565b8015610f355780601f10610f0a57610100808354040283529160200191610f35565b820191906000526020600020905b815481529060010190602001808311610f1857829003601f168201915b5050505050815260200160028201548152602001600382018054610f5890612f54565b80601f0160208091040260200160405190810160405280929190818152602001828054610f8490612f54565b8015610fd15780601f10610fa657610100808354040283529160200191610fd1565b820191906000526020600020905b815481529060010190602001808311610fb457829003601f168201915b50505050508152602001600482018054610fea90612f54565b80601f016020809104026020016040519081016040528092919081815260200182805461101690612f54565b80156110635780601f1061103857610100808354040283529160200191611063565b820191906000526020600020905b81548152906001019060200180831161104657829003601f168201915b505050505081526020016005820160009054906101000a900460ff16600281111561109157611090612918565b5b60028111156110a3576110a2612918565b5b81526020016005820160019054906101000a900460ff16151515158152602001600682015481526020016007820160009054906101000a900473ffffffffffffffffffffffffffffffffffffffff1673ffffffffffffffffffffffffffffffffffffffff1673ffffffffffffffffffffffffffffffffffffffff16815250509050806000015181602001518260400151836060015184608001518560a00151600281111561115457611153612918565b5b8660c001518760e001519850985098509850985098509850985050919395975091939597565b60008083116111be576040517f08c379a00000000000000000000000000000000000000000000000000000000081526004016111b590612fd1565b60405180910390fd5b60008511611201576040517f08c379a00000000000000000000000000000000000000000000000000000000081526004016111f89061303d565b60405180910390fd5b600060036000878152602001908152602001600020600001541461125a576040517f08c379a0000000000000000000000000000000000000000000000000000000008152600401611251906130a9565b60405180910390fd5b604051806080016040528086815260200185815260200184815260200183815250600360008781526020019081526020016000206000820151816000015560208201518160010190816112ad9190613275565b506040820151816002015560608201518160030190816112cd9190613275565b50905050849050949350505050565b6000808211611320576040517f08c379a000000000000000000000000000000000000000000000000000000000815260040161131790612fd1565b60405180910390fd5b60008411611363576040517f08c379a000000000000000000000000000000000000000000000000000000000815260040161135a9061303d565b60405180910390fd5b600080600086815260200190815260200160002060000154146113bb576040517f08c379a00000000000000000000000000000000000000000000000000000000081526004016113b290613393565b60405180910390fd5b6040518060a00160405280858152602001848152602001838152602001600081526020013373ffffffffffffffffffffffffffffffffffffffff1681525060008086815260200190815260200160002060008201518160000155602082015181600101908161142a9190613275565b50604082015181600201556060820151816003015560808201518160040160006101000a81548173ffffffffffffffffffffffffffffffffffffffff021916908373ffffffffffffffffffffffffffffffffffffffff160217905550905050600684908060018154018082558091505060019003906000526020600020016000909190919091505560018060003373ffffffffffffffffffffffffffffffffffffffff1673ffffffffffffffffffffffffffffffffffffffff16815260200190815260200160002060006101000a81548160ff0219169083151502179055508390509392505050565b6000808611611557576040517f08c379a000000000000000000000000000000000000000000000000000000000815260040161154e90612fd1565b60405180910390fd5b6000881161159a576040517f08c379a00000000000000000000000000000000000000000000000000000000081526004016115919061303d565b60405180910390fd5b6000600460008a815260200190815260200160002060000154146115f3576040517f08c379a00000000000000000000000000000000000000000000000000000000081526004016115ea906133ff565b60405180910390fd5b6002831115611637576040517f08c379a000000000000000000000000000000000000000000000000000000000815260040161162e906127fa565b60405180910390fd5b60405180610120016040528089815260200188815260200187815260200186815260200185815260200184600281111561167457611673612918565b5b600281111561168657611685612918565b5b81526020018315158152602001678ac7230489e8000081526020013373ffffffffffffffffffffffffffffffffffffffff16815250600460008a81526020019081526020016000206000820151816000015560208201518160010190816116ed9190613275565b5060408201518160020155606082015181600301908161170d9190613275565b5060808201518160040190816117239190613275565b5060a08201518160050160006101000a81548160ff0219169083600281111561174f5761174e612918565b5b021790555060c08201518160050160016101000a81548160ff02191690831515021790555060e082015181600601556101008201518160070160006101000a81548173ffffffffffffffffffffffffffffffffffffffff021916908373ffffffffffffffffffffffffffffffffffffffff16021790555090505087600260003373ffffffffffffffffffffffffffffffffffffffff1673ffffffffffffffffffffffffffffffffffffffff16815260200190815260200160002081905550879050979650505050505050565b6000606080600060649050600080600190505b8281116118b357600060046000838152602001908152602001600020600001541415801561188c575086805190602001206004600083815260200190815260200160002060040160405161188291906134c2565b6040518091039020145b156118a057818061189c90612ceb565b9250505b80806118ab90612ceb565b91505061182e565b508067ffffffffffffffff8111156118ce576118cd6122d8565b5b6040519080825280602002602001820160405280156118fc5781602001602082028036833780820191505090505b5093508067ffffffffffffffff811115611919576119186122d8565b5b60405190808252806020026020018201604052801561194c57816020015b60608152602001906001900390816119375790505b509250600080600190505b838111611acf5760006004600083815260200190815260200160002060000154141580156119b557508780519060200120600460008381526020019081526020016000206004016040516119ab91906134c2565b6040518091039020145b15611abc5760046000828152602001908152602001600020600001548683815181106119e4576119e3612c8d565b5b602002602001018181525050600460008281526020019081526020016000206001018054611a1190612f54565b80601f0160208091040260200160405190810160405280929190818152602001828054611a3d90612f54565b8015611a8a5780601f10611a5f57610100808354040283529160200191611a8a565b820191906000526020600020905b815481529060010190602001808311611a6d57829003601f168201915b5050505050858381518110611aa257611aa1612c8d565b5b60200260200101819052508180611ab890612ceb565b9250505b8080611ac790612ceb565b915050611957565b5060005b82811015611c4b576000600182611aea9190612dbe565b90505b83811015611c3757868281518110611b0857611b07612c8d565b5b6020026020010151878281518110611b2357611b22612c8d565b5b60200260200101511015611c24576000878381518110611b4657611b45612c8d565b5b60200260200101519050878281518110611b6357611b62612c8d565b5b6020026020010151888481518110611b7e57611b7d612c8d565b5b60200260200101818152505080888381518110611b9e57611b9d612c8d565b5b6020026020010181815250506000878481518110611bbf57611bbe612c8d565b5b60200260200101519050878381518110611bdc57611bdb612c8d565b5b6020026020010151888581518110611bf757611bf6612c8d565b5b602002602001018190525080888481518110611c1657611c15612c8d565b5b602002602001018190525050505b8080611c2f90612ceb565b915050611aed565b508080611c4390612ceb565b915050611ad3565b508195505050509193909250565b606060008203611ca0576040518060400160405280600181526020017f30000000000000000000000000000000000000000000000000000000000000008152509050611df3565b600a821015611cdf57816030611cb69190612dbe565b60f81b604051602001611cc99190613572565b6040516020818303038152906040529050611df3565b600082905060005b60008214611d11578080611cfa90612ceb565b915050600a82611d0a9190612d33565b9150611ce7565b60008167ffffffffffffffff811115611d2d57611d2c6122d8565b5b6040519080825280601f01601f191660200182016040528015611d5f5781602001600182028036833780820191505090505b5090505b60008514611dec57600182611d789190613598565b9150600a85611d879190612c5c565b6030611d939190612dbe565b60f81b818381518110611da957611da8612c8d565b5b60200101907effffffffffffffffffffffffffffffffffffffffffffffffffffffffffffff1916908160001a905350600a85611de59190612d33565b9450611d63565b8093505050505b919050565b6000604051905090565b600080fd5b600080fd5b6000819050919050565b611e1f81611e0c565b8114611e2a57600080fd5b50565b600081359050611e3c81611e16565b92915050565b60008115159050919050565b611e5781611e42565b8114611e6257600080fd5b50565b600081359050611e7481611e4e565b92915050565b600080600060608486031215611e9357611e92611e02565b5b6000611ea186828701611e2d565b9350506020611eb286828701611e2d565b9250506040611ec386828701611e65565b9150509250925092565b60008060408385031215611ee457611ee3611e02565b5b6000611ef285828601611e2d565b9250506020611f0385828601611e2d565b9150509250929050565b611f1681611e42565b82525050565b6000602082019050611f316000830184611f0d565b92915050565b600060208284031215611f4d57611f4c611e02565b5b6000611f5b84828501611e2d565b91505092915050565b600081519050919050565b600082825260208201905092915050565b6000819050602082019050919050565b611f9981611e0c565b82525050565b6000611fab8383611f90565b60208301905092915050565b6000602082019050919050565b6000611fcf82611f64565b611fd98185611f6f565b9350611fe483611f80565b8060005b83811015612015578151611ffc8882611f9f565b975061200783611fb7565b925050600181019050611fe8565b5085935050505092915050565b600081519050919050565b600082825260208201905092915050565b6000819050602082019050919050565b600081519050919050565b600082825260208201905092915050565b60005b8381101561208857808201518184015260208101905061206d565b60008484015250505050565b6000601f19601f8301169050919050565b60006120b08261204e565b6120ba8185612059565b93506120ca81856020860161206a565b6120d381612094565b840191505092915050565b60006120ea83836120a5565b905092915050565b6000602082019050919050565b600061210a82612022565b612114818561202d565b9350836020820285016121268561203e565b8060005b85811015612162578484038952815161214385826120de565b945061214e836120f2565b925060208a0199505060018101905061212a565b50829750879550505050505092915050565b6000604082019050818103600083015261218e8185611fc4565b905081810360208301526121a281846120ff565b90509392505050565b600060408201905081810360008301526121c58185611fc4565b905081810360208301526121d98184611fc4565b90509392505050565b6121eb81611e0c565b82525050565b600082825260208201905092915050565b600061220d8261204e565b61221781856121f1565b935061222781856020860161206a565b61223081612094565b840191505092915050565b600061010082019050612251600083018b6121e2565b8181036020830152612263818a612202565b905061227260408301896121e2565b81810360608301526122848188612202565b905081810360808301526122988187612202565b90506122a760a08301866121e2565b6122b460c0830185611f0d565b6122c160e08301846121e2565b9998505050505050505050565b600080fd5b600080fd5b7f4e487b7100000000000000000000000000000000000000000000000000000000600052604160045260246000fd5b61231082612094565b810181811067ffffffffffffffff8211171561232f5761232e6122d8565b5b80604052505050565b6000612342611df8565b905061234e8282612307565b919050565b600067ffffffffffffffff82111561236e5761236d6122d8565b5b61237782612094565b9050602081019050919050565b82818337600083830152505050565b60006123a66123a184612353565b612338565b9050828152602081018484840111156123c2576123c16122d3565b5b6123cd848285612384565b509392505050565b600082601f8301126123ea576123e96122ce565b5b81356123fa848260208601612393565b91505092915050565b6000806000806080858703121561241d5761241c611e02565b5b600061242b87828801611e2d565b945050602085013567ffffffffffffffff81111561244c5761244b611e07565b5b612458878288016123d5565b935050604061246987828801611e2d565b925050606085013567ffffffffffffffff81111561248a57612489611e07565b5b612496878288016123d5565b91505092959194509250565b60006020820190506124b760008301846121e2565b92915050565b6000806000606084860312156124d6576124d5611e02565b5b60006124e486828701611e2d565b935050602084013567ffffffffffffffff81111561250557612504611e07565b5b612511868287016123d5565b925050604061252286828701611e2d565b9150509250925092565b600080600080600080600060e0888a03121561254b5761254a611e02565b5b60006125598a828b01611e2d565b975050602088013567ffffffffffffffff81111561257a57612579611e07565b5b6125868a828b016123d5565b96505060406125978a828b01611e2d565b955050606088013567ffffffffffffffff8111156125b8576125b7611e07565b5b6125c48a828b016123d5565b945050608088013567ffffffffffffffff8111156125e5576125e4611e07565b5b6125f18a828b016123d5565b93505060a06126028a828b01611e2d565b92505060c06126138a828b01611e65565b91505092959891949750929550565b60006020828403121561263857612637611e02565b5b600082013567ffffffffffffffff81111561265657612655611e07565b5b612662848285016123d5565b91505092915050565b600060608201905061268060008301866121e2565b81810360208301526126928185611fc4565b905081810360408301526126a681846120ff565b9050949350505050565b7f4f6e6c792061646d696e2063616e20706572666f726d2074686973206163746960008201527f6f6e000000000000000000000000000000000000000000000000000000000000602082015250565b600061270c6022836121f1565b9150612717826126b0565b604082019050919050565b6000602082019050818103600083015261273b816126ff565b9050919050565b7f5061727469636970616e74206e6f7420666f756e640000000000000000000000600082015250565b60006127786015836121f1565b915061278382612742565b602082019050919050565b600060208201905081810360008301526127a78161276b565b9050919050565b7f496e76616c696420747261696e696e6720696e74657265737400000000000000600082015250565b60006127e46019836121f1565b91506127ef826127ae565b602082019050919050565b60006020820190508181036000830152612813816127d7565b9050919050565b7f43616e6e6f74206368616e676520636f6d706c657465642066726f6d2074727560008201527f6520746f2066616c736500000000000000000000000000000000000000000000602082015250565b6000612876602a836121f1565b91506128818261281a565b604082019050919050565b600060208201905081810360008301526128a581612869565b9050919050565b7f4e6f7420417574686f72697a6564000000000000000000000000000000000000600082015250565b60006128e2600e836121f1565b91506128ed826128ac565b602082019050919050565b60006020820190508181036000830152612911816128d5565b9050919050565b7f4e487b7100000000000000000000000000000000000000000000000000000000600052602160045260246000fd5b7f547261696e6572206e6f7420666f756e64000000000000000000000000000000600082015250565b600061297d6011836121f1565b915061298882612947565b602082019050919050565b600060208201905081810360008301526129ac81612970565b9050919050565b7f4e6f2061646d696e7320617661696c61626c6500000000000000000000000000600082015250565b60006129e96013836121f1565b91506129f4826129b3565b602082019050919050565b60006020820190508181036000830152612a18816129dc565b9050919050565b7f496e76616c696420736c6f742049440000000000000000000000000000000000600082015250565b6000612a55600f836121f1565b9150612a6082612a1f565b602082019050919050565b60006020820190508181036000830152612a8481612a48565b9050919050565b7f536c6f7420697320616c726561647920626f6f6b656400000000000000000000600082015250565b6000612ac16016836121f1565b9150612acc82612a8b565b602082019050919050565b60006020820190508181036000830152612af081612ab4565b9050919050565b7f53656e6420657861637420626f6f6b696e672066656500000000000000000000600082015250565b6000612b2d6016836121f1565b9150612b3882612af7565b602082019050919050565b60006020820190508181036000830152612b5c81612b20565b9050919050565b7f5061727469636970616e74206e6f742072656769737465726564000000000000600082015250565b6000612b99601a836121f1565b9150612ba482612b63565b602082019050919050565b60006020820190508181036000830152612bc881612b8c565b9050919050565b6000819050919050565b612bea612be582611e0c565b612bcf565b82525050565b6000612bfc8286612bd9565b602082019150612c0c8285612bd9565b602082019150612c1c8284612bd9565b602082019150819050949350505050565b7f4e487b7100000000000000000000000000000000000000000000000000000000600052601260045260246000fd5b6000612c6782611e0c565b9150612c7283611e0c565b925082612c8257612c81612c2d565b5b828206905092915050565b7f4e487b7100000000000000000000000000000000000000000000000000000000600052603260045260246000fd5b7f4e487b7100000000000000000000000000000000000000000000000000000000600052601160045260246000fd5b6000612cf682611e0c565b91507fffffffffffffffffffffffffffffffffffffffffffffffffffffffffffffffff8203612d2857612d27612cbc565b5b600182019050919050565b6000612d3e82611e0c565b9150612d4983611e0c565b925082612d5957612d58612c2d565b5b828204905092915050565b6000612d6f82611e0c565b9150612d7a83611e0c565b9250817fffffffffffffffffffffffffffffffffffffffffffffffffffffffffffffffff0483118215151615612db357612db2612cbc565b5b828202905092915050565b6000612dc982611e0c565b9150612dd483611e0c565b9250828201905080821115612dec57612deb612cbc565b5b92915050565b600081905092915050565b6000612e088261204e565b612e128185612df2565b9350612e2281856020860161206a565b80840191505092915050565b7f3a00000000000000000000000000000000000000000000000000000000000000600082015250565b6000612e64600183612df2565b9150612e6f82612e2e565b600182019050919050565b7f2d00000000000000000000000000000000000000000000000000000000000000600082015250565b6000612eb0600183612df2565b9150612ebb82612e7a565b600182019050919050565b6000612ed28287612dfd565b9150612edd82612e57565b9150612ee98286612dfd565b9150612ef482612ea3565b9150612f008285612dfd565b9150612f0b82612e57565b9150612f178284612dfd565b915081905095945050505050565b7f4e487b7100000000000000000000000000000000000000000000000000000000600052602260045260246000fd5b60006002820490506001821680612f6c57607f821691505b602082108103612f7f57612f7e612f25565b5b50919050565b7f496e76616c696420616765000000000000000000000000000000000000000000600082015250565b6000612fbb600b836121f1565b9150612fc682612f85565b602082019050919050565b60006020820190508181036000830152612fea81612fae565b9050919050565b7f496e76616c696420494400000000000000000000000000000000000000000000600082015250565b6000613027600a836121f1565b915061303282612ff1565b602082019050919050565b600060208201905081810360008301526130568161301a565b9050919050565b7f547261696e657220494420616c72656164792065786973747300000000000000600082015250565b60006130936019836121f1565b915061309e8261305d565b602082019050919050565b600060208201905081810360008301526130c281613086565b9050919050565b60008190508160005260206000209050919050565b60006020601f8301049050919050565b600082821b905092915050565b60006008830261312b7fffffffffffffffffffffffffffffffffffffffffffffffffffffffffffffffff826130ee565b61313586836130ee565b95508019841693508086168417925050509392505050565b6000819050919050565b600061317261316d61316884611e0c565b61314d565b611e0c565b9050919050565b6000819050919050565b61318c83613157565b6131a061319882613179565b8484546130fb565b825550505050565b600090565b6131b56131a8565b6131c0818484613183565b505050565b5b818110156131e4576131d96000826131ad565b6001810190506131c6565b5050565b601f821115613229576131fa816130c9565b613203846130de565b81016020851015613212578190505b61322661321e856130de565b8301826131c5565b50505b505050565b600082821c905092915050565b600061324c6000198460080261322e565b1980831691505092915050565b6000613265838361323b565b9150826002028217905092915050565b61327e8261204e565b67ffffffffffffffff811115613297576132966122d8565b5b6132a18254612f54565b6132ac8282856131e8565b600060209050601f8311600181146132df57600084156132cd578287015190505b6132d78582613259565b86555061333f565b601f1984166132ed866130c9565b60005b82811015613315578489015182556001820191506020850194506020810190506132f0565b86831015613332578489015161332e601f89168261323b565b8355505b6001600288020188555050505b505050505050565b7f41646d696e20494420616c726561647920657869737473000000000000000000600082015250565b600061337d6017836121f1565b915061338882613347565b602082019050919050565b600060208201905081810360008301526133ac81613370565b9050919050565b7f5061727469636970616e7420494420616c726561647920657869737473000000600082015250565b60006133e9601d836121f1565b91506133f4826133b3565b602082019050919050565b60006020820190508181036000830152613418816133dc565b9050919050565b600081905092915050565b60008190508160005260206000209050919050565b6000815461344c81612f54565b613456818661341f565b945060018216600081146134715760018114613486576134b9565b60ff19831686528115158202860193506134b9565b61348f8561342a565b60005b838110156134b157815481890152600182019150602081019050613492565b838801955050505b50505092915050565b60006134ce828461343f565b915081905092915050565b7f3000000000000000000000000000000000000000000000000000000000000000600082015250565b600061350f600183612df2565b915061351a826134d9565b600182019050919050565b60007fff0000000000000000000000000000000000000000000000000000000000000082169050919050565b6000819050919050565b61356c61356782613525565b613551565b82525050565b600061357d82613502565b9150613589828461355b565b60018201915081905092915050565b60006135a382611e0c565b91506135ae83611e0c565b92508282039050818111156135c6576135c5612cbc565b5b9291505056fea2646970667358221220c3a4862ee39873b32d9a04ac2036dd7f0b7076d96d17ad2fe5e8cbc1e22bddac64736f6c63430008100033",
  "immutableReferences": {},
  "source": "// SPDX-License-Identifier: UNLICENSED\npragma solidity ^0.8.0;\n\ncontract DisasterRecoveryTraining {\n    enum TrainingType { first_aid, shelter_rebuild, food_safety }\n    struct Admin {\n        uint256 id;\n        string name;\n        uint256 age;\n        uint256 balance;\n        address admin_address;\n    }\n    \n    struct Trainer {\n        uint256 id;\n        string name;\n        uint256 age;\n        string gender;\n    }\n    \n    struct Participant {\n        uint256 id;\n        string name;\n        uint256 age;\n        string gender;\n        string district;\n        TrainingType training_interest;\n        bool has_completed_training;\n        uint256 balance;\n        address account_address;\n    }\n    \n    struct TrainingSlot {\n        uint256 slotId;\n        uint256 trainerId;\n        uint256 participantId;\n        bool isBooked;\n    }\n\n    uint256 private constant TOTAL_SLOTS_PER_DAY = 48;\n    uint256 private constant BOOKING_FEE = 1 ether;\n    uint256 private constant INITIAL_PARTICIPANT_BALANCE = 10 ether;\n\n    mapping(uint256 => Admin) private admins;\n    mapping(address => bool) private isAdmin;\n    mapping(address => uint256) private participantByAddress;\n    mapping(uint256 => Trainer) private trainers;\n    mapping(uint256 => Participant) private participants;\n    mapping(uint256 => mapping(uint256 => TrainingSlot)) private trainerSlots;\n    uint256[] private adminIds;\n    \n    modifier onlyAdmin() {\n        require(isAdmin[msg.sender], \"Only admin can perform this action\");\n        _;\n    }\n    \n    function registerAdmin(uint256 id, string memory name, uint256 age) external returns (uint256) {\n        require(age > 0, \"Invalid age\");\n        require(id > 0, \"Invalid ID\");\n        require(admins[id].id == 0, \"Admin ID already exists\");\n        \n        admins[id] = Admin(id, name, age, 0, msg.sender);\n        adminIds.push(id);\n        isAdmin[msg.sender] = true;\n        return id;\n    }\n    \n    function registerTrainer(uint256 id, string memory name, uint256 age, string memory gender) external returns (uint256) {\n        require(age > 0, \"Invalid age\");\n        require(id > 0, \"Invalid ID\");\n        require(trainers[id].id == 0, \"Trainer ID already exists\");\n        \n        trainers[id] = Trainer(id, name, age, gender);\n        return id;\n    }\n    \n    function registerParticipant(\n        uint256 id,\n        string memory name,\n        uint256 age,\n        string memory gender,\n        string memory district,\n        uint256 training_interest,\n        bool has_completed_training\n    ) external returns (uint256) {\n        require(age > 0, \"Invalid age\");\n        require(id > 0, \"Invalid ID\");\n        require(participants[id].id == 0, \"Participant ID already exists\");\n        require(training_interest <= 2, \"Invalid training interest\");\n        \n        participants[id] = Participant(\n            id,\n            name,\n            age,\n            gender,\n            district,\n            TrainingType(training_interest),\n            has_completed_training,\n            INITIAL_PARTICIPANT_BALANCE,\n            msg.sender\n        );\n\n        participantByAddress[msg.sender] = id;\n\n        return id;\n    }\n    \n    function updateParticipantData(uint256 participantId, uint256 newTrainingInterest, bool has_completed_training) external onlyAdmin {\n        require(participants[participantId].id != 0, \"Participant not found\");\n        require(newTrainingInterest <= 2, \"Invalid training interest\");\n        \n        Participant storage p = participants[participantId];\n        require(!p.has_completed_training || has_completed_training, \"Cannot change completed from true to false\");\n        \n        // admin only access\n        require(isAdmin[msg.sender], \"Not Authorized\");\n        p.training_interest = TrainingType(newTrainingInterest);\n        p.has_completed_training = has_completed_training;\n    }\n    \n    function bookTrainingSlot(uint256 trainerId, uint256 slotId) external payable returns (bool) {\n        require(trainers[trainerId].id != 0, \"Trainer not found\");\n        require(adminIds.length > 0, \"No admins available\");\n        require(slotId < TOTAL_SLOTS_PER_DAY, \"Invalid slot ID\");\n        require(!trainerSlots[trainerId][slotId].isBooked, \"Slot is already booked\");\n        require(adminIds.length > 0, \"No admins available\");\n        require(msg.value == BOOKING_FEE, \"Send exact booking fee\");\n\n\n        //\n\n        // Book the slot\n        uint256 participantId = participantByAddress[msg.sender];\n        require(participantId != 0, \"Participant not registered\");\n        trainerSlots[trainerId][slotId] = TrainingSlot(slotId, trainerId, participantId, true);\n\n\n        uint256 randomIndex = uint256(keccak256(abi.encodePacked(block.timestamp, block.difficulty, participantId))) % adminIds.length;\n\n        uint256 selectedAdminId = adminIds[randomIndex];\n        payable(admins[selectedAdminId].admin_address).transfer(msg.value);\n        // participants[participantId].balance -= BOOKING_FEE;\n        // admins[selectedAdminId].balance += BOOKING_FEE;\n        \n        return true;\n    }\n\n    //     function findParticipantByAddress(address addr) internal view returns (uint256) {\n    //     for (uint256 i = 1; i <= 100; i++) { // adjust max range\n    //         if (participants[i].id != 0 && participants[i].account_address == addr) {\n    //             return participants[i].id;\n    //         }\n    //     }\n    //     return 0;\n    // }\n    \n    function viewAdminBalance() external view returns (\n        uint256[] memory adminIdList,\n        uint256[] memory balanceList\n    ) {\n        uint256 totalAdmins = adminIds.length;\n\n        adminIdList = new uint256[](totalAdmins);\n        balanceList = new uint256[](totalAdmins);\n\n        for (uint256 i = 0; i < totalAdmins; i++) {\n            uint256 adminId = adminIds[i];\n            adminIdList[i] = adminId;\n            // Return balances in whole ETH units for display, based on actual address balance\n            balanceList[i] = admins[adminId].admin_address.balance / 1 ether;\n        }\n\n        return (adminIdList, balanceList);\n    }\n    \n    function viewParticipantData(uint256 participantId) external view returns (\n        uint256 id,\n        string memory name,\n        uint256 age,\n        string memory gender,\n        string memory district,\n        uint256 training_interest,\n        bool has_completed_training,\n        uint256 balance\n    ) {\n        require(participants[participantId].id != 0, \"Participant not found\");\n        \n        Participant memory p = participants[participantId];\n        return (\n            p.id,\n            p.name,\n            p.age,\n            p.gender,\n            p.district,\n            uint256(p.training_interest),\n            p.has_completed_training,\n            p.balance\n        );\n    }\n\n    function _toString(uint256 value) internal pure returns (string memory) {\n        if (value == 0) return \"0\";\n        if (value < 10) return string(abi.encodePacked(\"0\", bytes1(uint8(48 + value))));\n        \n        uint256 temp = value;\n        uint256 digits;\n        while (temp != 0) {\n            digits++;\n            temp /= 10;\n        }\n        bytes memory buffer = new bytes(digits);\n        while (value != 0) {\n            digits -= 1;\n            buffer[digits] = bytes1(uint8(48 + uint256(value % 10)));\n            value /= 10;\n        }\n        return string(buffer);\n    }\n\n    function viewTrainerSchedule(uint256 trainerId) external view returns (\n        uint256[] memory availableSlots,\n        string[] memory timeRanges\n    ) {\n        require(trainers[trainerId].id != 0, \"Trainer not found\");\n        uint256 availableCount = 0;\n        for (uint256 i = 0; i < TOTAL_SLOTS_PER_DAY; i++) {\n            if (!trainerSlots[trainerId][i].isBooked) {\n                availableCount++;\n            }\n        }\n        availableSlots = new uint256[](availableCount);\n        timeRanges = new string[](availableCount);\n        uint256 index = 0;\n        \n        for (uint256 i = 0; i < TOTAL_SLOTS_PER_DAY; i++) {\n            if (!trainerSlots[trainerId][i].isBooked) {\n                availableSlots[index] = i;\n                uint256 startHour = i / 2;\n                uint256 startMinute = (i % 2) * 30;\n                uint256 endHour = startHour;\n                uint256 endMinute = startMinute + 30;\n                \n                if (endMinute == 60) {\n                    endHour++;\n                    endMinute = 0;\n                }\n                timeRanges[index] = string(abi.encodePacked(\n                    _toString(startHour), \":\", \n                    startMinute == 0 ? \"00\" : \"30\", \n                    \"-\",\n                    _toString(endHour), \":\",\n                    endMinute == 0 ? \"00\" : \"30\"\n                ));\n                \n                index++;\n            }\n        }\n        \n        return (availableSlots, timeRanges);\n    }\n\n//  Search participants by district  returns total count + sorted IDs + names\nfunction searchParticipantsByDistrict(\n    string memory district\n) external view returns (\n    uint256 totalInDistrict,            // total participants in the district\n    uint256[] memory participantIdsSorted, // sorted list of IDs\n    string[] memory participantNamesSorted // names aligned with IDs\n) {\n    uint256 maxIds = 100; // upper bound, adjust as needed\n    uint256 matchCount = 0;\n\n    // 1 Count matches in the given district\n    for (uint256 i = 1; i <= maxIds; i++) {\n        if (\n            participants[i].id != 0 &&\n            keccak256(bytes(participants[i].district)) == keccak256(bytes(district))\n        ) {\n            matchCount++;\n        }\n    }\n\n    // 2 Collect IDs and names of participants in that district\n    participantIdsSorted = new uint256[](matchCount);\n    participantNamesSorted = new string[](matchCount);\n    uint256 idx = 0;\n\n    for (uint256 i = 1; i <= maxIds; i++) {\n        if (\n            participants[i].id != 0 &&\n            keccak256(bytes(participants[i].district)) == keccak256(bytes(district))\n        ) {\n            participantIdsSorted[idx] = participants[i].id;\n            participantNamesSorted[idx] = participants[i].name;\n            idx++;\n        }\n    }\n\n    // 3 Sort IDs (ascending) and keep names aligned\n    for (uint256 i = 0; i < matchCount; i++) {\n        for (uint256 j = i + 1; j < matchCount; j++) {\n            if (participantIdsSorted[j] < participantIdsSorted[i]) {\n                // swap IDs\n                uint256 tempId = participantIdsSorted[i];\n                participantIdsSorted[i] = participantIdsSorted[j];\n                participantIdsSorted[j] = tempId;\n\n                // swap names so they stay aligned\n                string memory tempName = participantNamesSorted[i];\n                participantNamesSorted[i] = participantNamesSorted[j];\n                participantNamesSorted[j] = tempName;\n            }\n        }\n    }\n\n    // 4 Return total count, sorted IDs, and aligned names\n    totalInDistrict = matchCount;\n}\n\n\n}\n\n",
  "sourcePath": "/media/mhthe1/Fresh storage/Academic LIFE/11th semester/cse446/Projects/onemore/baDApp/contracts/DisasterRecoveryTraining.sol",
  "compiler": {
    "name": "solc",
    "version": "0.8.16+commit.07a7930e.Emscripten.clang"
  },
  "schemaVersion": "3.4.16",
  "updatedAt": "2025-08-20T06:59:51.393Z",
  "networkType": "ethereum",
  "devdoc": {
    "kind": "dev",
    "methods": {},
    "version": 1
  },
  "userdoc": {
    "kind": "user",
    "methods": {},
    "version": 1
  }
}