{
  "contractName": "DisasterRecoveryTraining",
  "abi": [
    {
      "anonymous": false,
      "inputs": [
        {
          "indexed": true,
          "internalType": "address",
          "name": "participant",
          "type": "address"
        },
        {
          "indexed": false,
          "internalType": "uint256",
          "name": "trainerId",
          "type": "uint256"
        },
        {
          "indexed": false,
          "internalType": "uint256",
          "name": "slotId",
          "type": "uint256"
        },
        {
          "indexed": false,
          "internalType": "string",
          "name": "status",
          "type": "string"
        }
      ],
      "name": "BookingAttempt",
      "type": "event"
    },
    {
      "anonymous": false,
      "inputs": [
        {
          "indexed": true,
          "internalType": "address",
          "name": "participant",
          "type": "address"
        },
        {
          "indexed": false,
          "internalType": "uint256",
          "name": "trainerId",
          "type": "uint256"
        },
        {
          "indexed": false,
          "internalType": "uint256",
          "name": "slotId",
          "type": "uint256"
        },
        {
          "indexed": false,
          "internalType": "uint256",
          "name": "participantId",
          "type": "uint256"
        }
      ],
      "name": "BookingSuccess",
      "type": "event"
    },
    {
      "inputs": [
        {
          "internalType": "uint256",
          "name": "id",
          "type": "uint256"
        },
        {
          "internalType": "string",
          "name": "name",
          "type": "string"
        },
        {
          "internalType": "uint256",
          "name": "age",
          "type": "uint256"
        }
      ],
      "name": "registerAdmin",
      "outputs": [
        {
          "internalType": "uint256",
          "name": "",
          "type": "uint256"
        }
      ],
      "stateMutability": "nonpayable",
      "type": "function"
    },
    {
      "inputs": [
        {
          "internalType": "uint256",
          "name": "id",
          "type": "uint256"
        },
        {
          "internalType": "string",
          "name": "name",
          "type": "string"
        },
        {
          "internalType": "uint256",
          "name": "age",
          "type": "uint256"
        },
        {
          "internalType": "string",
          "name": "gender",
          "type": "string"
        }
      ],
      "name": "registerTrainer",
      "outputs": [
        {
          "internalType": "uint256",
          "name": "",
          "type": "uint256"
        }
      ],
      "stateMutability": "nonpayable",
      "type": "function"
    },
    {
      "inputs": [
        {
          "internalType": "uint256",
          "name": "id",
          "type": "uint256"
        },
        {
          "internalType": "string",
          "name": "name",
          "type": "string"
        },
        {
          "internalType": "uint256",
          "name": "age",
          "type": "uint256"
        },
        {
          "internalType": "string",
          "name": "gender",
          "type": "string"
        },
        {
          "internalType": "string",
          "name": "district",
          "type": "string"
        },
        {
          "internalType": "uint256",
          "name": "training_interest",
          "type": "uint256"
        },
        {
          "internalType": "bool",
          "name": "has_completed_training",
          "type": "bool"
        }
      ],
      "name": "registerParticipant",
      "outputs": [
        {
          "internalType": "uint256",
          "name": "",
          "type": "uint256"
        }
      ],
      "stateMutability": "nonpayable",
      "type": "function"
    },
    {
      "inputs": [
        {
          "internalType": "uint256",
          "name": "participantId",
          "type": "uint256"
        },
        {
          "internalType": "uint256",
          "name": "newTrainingInterest",
          "type": "uint256"
        },
        {
          "internalType": "bool",
          "name": "has_completed_training",
          "type": "bool"
        }
      ],
      "name": "updateParticipantData",
      "outputs": [],
      "stateMutability": "nonpayable",
      "type": "function"
    },
    {
      "inputs": [
        {
          "internalType": "uint256",
          "name": "trainerId",
          "type": "uint256"
        },
        {
          "internalType": "uint256",
          "name": "slotId",
          "type": "uint256"
        }
      ],
      "name": "bookTrainingSlot",
      "outputs": [
        {
          "internalType": "bool",
          "name": "",
          "type": "bool"
        }
      ],
      "stateMutability": "payable",
      "type": "function",
      "payable": true
    },
    {
      "inputs": [
        {
          "internalType": "address",
          "name": "addr",
          "type": "address"
        }
      ],
      "name": "getParticipantIdByAddress",
      "outputs": [
        {
          "internalType": "uint256",
          "name": "",
          "type": "uint256"
        }
      ],
      "stateMutability": "view",
      "type": "function",
      "constant": true
    },
    {
      "inputs": [],
      "name": "viewAdminBalance",
      "outputs": [
        {
          "internalType": "uint256[]",
          "name": "adminIdList",
          "type": "uint256[]"
        },
        {
          "internalType": "uint256[]",
          "name": "balanceList",
          "type": "uint256[]"
        }
      ],
      "stateMutability": "view",
      "type": "function",
      "constant": true
    },
    {
      "inputs": [
        {
          "internalType": "uint256",
          "name": "participantId",
          "type": "uint256"
        }
      ],
      "name": "viewParticipantData",
      "outputs": [
        {
          "internalType": "uint256",
          "name": "id",
          "type": "uint256"
        },
        {
          "internalType": "string",
          "name": "name",
          "type": "string"
        },
        {
          "internalType": "uint256",
          "name": "age",
          "type": "uint256"
        },
        {
          "internalType": "string",
          "name": "gender",
          "type": "string"
        },
        {
          "internalType": "string",
          "name": "district",
          "type": "string"
        },
        {
          "internalType": "uint256",
          "name": "training_interest",
          "type": "uint256"
        },
        {
          "internalType": "bool",
          "name": "has_completed_training",
          "type": "bool"
        },
        {
          "internalType": "uint256",
          "name": "balance",
          "type": "uint256"
        }
      ],
      "stateMutability": "view",
      "type": "function",
      "constant": true
    },
    {
      "inputs": [
        {
          "internalType": "uint256",
          "name": "trainerId",
          "type": "uint256"
        }
      ],
      "name": "viewTrainerSchedule",
      "outputs": [
        {
          "internalType": "uint256[]",
          "name": "availableSlots",
          "type": "uint256[]"
        },
        {
          "internalType": "string[]",
          "name": "timeRanges",
          "type": "string[]"
        }
      ],
      "stateMutability": "view",
      "type": "function",
      "constant": true
    },
    {
      "inputs": [
        {
          "internalType": "string",
          "name": "district",
          "type": "string"
        }
      ],
      "name": "searchParticipantsByDistrict",
      "outputs": [
        {
          "internalType": "uint256",
          "name": "totalInDistrict",
          "type": "uint256"
        },
        {
          "internalType": "uint256[]",
          "name": "participantIdsSorted",
          "type": "uint256[]"
        },
        {
          "internalType": "string[]",
          "name": "participantNamesSorted",
          "type": "string[]"
        }
      ],
      "stateMutability": "view",
      "type": "function",
      "constant": true
    }
  ],
  "bytecode": "0x608060405234801561001057600080fd5b50613a87806100206000396000f3fe6080604052600436106100915760003560e01c80636c80cd33116100595780636c80cd331461019d578063710e2aba146101da578063a30b027b14610217578063ad715cba14610254578063d45b1a391461029157610091565b80633a7002e1146100965780634efbbb1b146100bf57806351eca4dd146100ef5780635a29dc291461012d5780635ffc80f214610159575b600080fd5b3480156100a257600080fd5b506100bd60048036038101906100b89190612060565b6102d0565b005b6100d960048036038101906100d491906120b3565b610556565b6040516100e69190612102565b60405180910390f35b3480156100fb57600080fd5b506101166004803603810190610111919061211d565b610a07565b60405161012492919061235a565b60405180910390f35b34801561013957600080fd5b50610142610da0565b604051610150929190612391565b60405180910390f35b34801561016557600080fd5b50610180600480360381019061017b919061211d565b610f2a565b604051610194989796959493929190612421565b60405180910390f35b3480156101a957600080fd5b506101c460048036038101906101bf91906125e9565b611289565b6040516101d19190612688565b60405180910390f35b3480156101e657600080fd5b5061020160048036038101906101fc91906126a3565b6113eb565b60405161020e9190612688565b60405180910390f35b34801561022357600080fd5b5061023e60048036038101906102399190612712565b6116b0565b60405161024b9190612688565b60405180910390f35b34801561026057600080fd5b5061027b60048036038101906102769190612866565b6119b8565b6040516102889190612688565b60405180910390f35b34801561029d57600080fd5b506102b860048036038101906102b39190612893565b611a01565b6040516102c7939291906128dc565b60405180910390f35b600160003373ffffffffffffffffffffffffffffffffffffffff1673ffffffffffffffffffffffffffffffffffffffff16815260200190815260200160002060009054906101000a900460ff1661035c576040517f08c379a000000000000000000000000000000000000000000000000000000000815260040161035390612993565b60405180910390fd5b60006004600085815260200190815260200160002060000154036103b5576040517f08c379a00000000000000000000000000000000000000000000000000000000081526004016103ac906129ff565b60405180910390fd5b60028211156103f9576040517f08c379a00000000000000000000000000000000000000000000000000000000081526004016103f090612a6b565b60405180910390fd5b60006004600085815260200190815260200160002090508060050160019054906101000a900460ff16158061042b5750815b61046a576040517f08c379a000000000000000000000000000000000000000000000000000000000815260040161046190612afd565b60405180910390fd5b600160003373ffffffffffffffffffffffffffffffffffffffff1673ffffffffffffffffffffffffffffffffffffffff16815260200190815260200160002060009054906101000a900460ff166104f6576040517f08c379a00000000000000000000000000000000000000000000000000000000081526004016104ed90612b69565b60405180910390fd5b82600281111561050957610508612b89565b5b8160050160006101000a81548160ff0219169083600281111561052f5761052e612b89565b5b0217905550818160050160016101000a81548160ff02191690831515021790555050505050565b60003373ffffffffffffffffffffffffffffffffffffffff167fee4d9838ab35505c270924c02f8c6dcdb4da97b897f5ff18e7b83d8338625d3b84846040516105a0929190612c04565b60405180910390a26000600360008581526020019081526020016000206000015403610601576040517f08c379a00000000000000000000000000000000000000000000000000000000081526004016105f890612c8c565b60405180910390fd5b600060068054905011610649576040517f08c379a000000000000000000000000000000000000000000000000000000000815260040161064090612cf8565b60405180910390fd5b6030821061068c576040517f08c379a000000000000000000000000000000000000000000000000000000000815260040161068390612d64565b60405180910390fd5b60056000848152602001908152602001600020600083815260200190815260200160002060030160009054906101000a900460ff1615610701576040517f08c379a00000000000000000000000000000000000000000000000000000000081526004016106f890612dd0565b60405180910390fd5b6000600260003373ffffffffffffffffffffffffffffffffffffffff1673ffffffffffffffffffffffffffffffffffffffff16815260200190815260200160002054905060008103610788576040517f08c379a000000000000000000000000000000000000000000000000000000000815260040161077f90612e3c565b60405180910390fd5b3373ffffffffffffffffffffffffffffffffffffffff167fee4d9838ab35505c270924c02f8c6dcdb4da97b897f5ff18e7b83d8338625d3b85856040516107d0929190612ea8565b60405180910390a260405180608001604052808481526020018581526020018281526020016001151581525060056000868152602001908152602001600020600085815260200190815260200160002060008201518160000155602082015181600101556040820151816002015560608201518160030160006101000a81548160ff021916908315150217905550905050600060068054905042448460405160200161087e93929190612f05565b6040516020818303038152906040528051906020012060001c6108a19190612f71565b90506000600682815481106108b9576108b8612fa2565b5b90600052602060002001549050600080600083815260200190815260200160002060040160009054906101000a900473ffffffffffffffffffffffffffffffffffffffff1673ffffffffffffffffffffffffffffffffffffffff163460405161092190613002565b60006040518083038185875af1925050503d806000811461095e576040519150601f19603f3d011682016040523d82523d6000602084013e610963565b606091505b50509050806109a7576040517f08c379a000000000000000000000000000000000000000000000000000000000815260040161099e90613063565b60405180910390fd5b3373ffffffffffffffffffffffffffffffffffffffff167f27786adea8633fba1d874076b06e9d7dfaf7bee80bf44d30a93c96708894024b8888876040516109f193929190613083565b60405180910390a2600194505050505092915050565b6060806000600360008581526020019081526020016000206000015403610a63576040517f08c379a0000000000000000000000000000000000000000000000000000000008152600401610a5a90612c8c565b60405180910390fd5b6000805b6030811015610acb5760056000868152602001908152602001600020600082815260200190815260200160002060030160009054906101000a900460ff16610ab8578180610ab4906130e9565b9250505b8080610ac3906130e9565b915050610a67565b508067ffffffffffffffff811115610ae657610ae56124be565b5b604051908082528060200260200182016040528015610b145781602001602082028036833780820191505090505b5092508067ffffffffffffffff811115610b3157610b306124be565b5b604051908082528060200260200182016040528015610b6457816020015b6060815260200190600190039081610b4f5790505b5091506000805b6030811015610d985760056000878152602001908152602001600020600082815260200190815260200160002060030160009054906101000a900460ff16610d855780858381518110610bc157610bc0612fa2565b5b6020026020010181815250506000600282610bdc9190613131565b90506000601e600284610bef9190612f71565b610bf99190613162565b905060008290506000601e83610c0f91906131bc565b9050603c8103610c2c578180610c24906130e9565b925050600090505b610c3584611e3f565b60008414610c78576040518060400160405280600281526020017f3330000000000000000000000000000000000000000000000000000000000000815250610caf565b6040518060400160405280600281526020017f30300000000000000000000000000000000000000000000000000000000000008152505b610cb884611e3f565b60008414610cfb576040518060400160405280600281526020017f3330000000000000000000000000000000000000000000000000000000000000815250610d32565b6040518060400160405280600281526020017f30300000000000000000000000000000000000000000000000000000000000008152505b604051602001610d4594939291906132c4565b604051602081830303815290604052888781518110610d6757610d66612fa2565b5b60200260200101819052508580610d7d906130e9565b965050505050505b8080610d90906130e9565b915050610b6b565b505050915091565b606080600060068054905090508067ffffffffffffffff811115610dc757610dc66124be565b5b604051908082528060200260200182016040528015610df55781602001602082028036833780820191505090505b5092508067ffffffffffffffff811115610e1257610e116124be565b5b604051908082528060200260200182016040528015610e405781602001602082028036833780820191505090505b50915060005b81811015610f2457600060068281548110610e6457610e63612fa2565b5b9060005260206000200154905080858381518110610e8557610e84612fa2565b5b602002602001018181525050670de0b6b3a764000060008083815260200190815260200160002060040160009054906101000a900473ffffffffffffffffffffffffffffffffffffffff1673ffffffffffffffffffffffffffffffffffffffff1631610ef19190613131565b848381518110610f0457610f03612fa2565b5b602002602001018181525050508080610f1c906130e9565b915050610e46565b50509091565b600060606000606080600080600080600460008b81526020019081526020016000206000015403610f90576040517f08c379a0000000000000000000000000000000000000000000000000000000008152600401610f87906129ff565b60405180910390fd5b6000600460008b81526020019081526020016000206040518061012001604052908160008201548152602001600182018054610fcb90613352565b80601f0160208091040260200160405190810160405280929190818152602001828054610ff790613352565b80156110445780601f1061101957610100808354040283529160200191611044565b820191906000526020600020905b81548152906001019060200180831161102757829003601f168201915b505050505081526020016002820154815260200160038201805461106790613352565b80601f016020809104026020016040519081016040528092919081815260200182805461109390613352565b80156110e05780601f106110b5576101008083540402835291602001916110e0565b820191906000526020600020905b8154815290600101906020018083116110c357829003601f168201915b505050505081526020016004820180546110f990613352565b80601f016020809104026020016040519081016040528092919081815260200182805461112590613352565b80156111725780601f1061114757610100808354040283529160200191611172565b820191906000526020600020905b81548152906001019060200180831161115557829003601f168201915b505050505081526020016005820160009054906101000a900460ff1660028111156111a05761119f612b89565b5b60028111156111b2576111b1612b89565b5b81526020016005820160019054906101000a900460ff16151515158152602001600682015481526020016007820160009054906101000a900473ffffffffffffffffffffffffffffffffffffffff1673ffffffffffffffffffffffffffffffffffffffff1673ffffffffffffffffffffffffffffffffffffffff16815250509050806000015181602001518260400151836060015184608001518560a00151600281111561126357611262612b89565b5b8660c001518760e001519850985098509850985098509850985050919395975091939597565b60008083116112cd576040517f08c379a00000000000000000000000000000000000000000000000000000000081526004016112c4906133cf565b60405180910390fd5b60008511611310576040517f08c379a00000000000000000000000000000000000000000000000000000000081526004016113079061343b565b60405180910390fd5b6000600360008781526020019081526020016000206000015414611369576040517f08c379a0000000000000000000000000000000000000000000000000000000008152600401611360906134a7565b60405180910390fd5b604051806080016040528086815260200185815260200184815260200183815250600360008781526020019081526020016000206000820151816000015560208201518160010190816113bc9190613673565b506040820151816002015560608201518160030190816113dc9190613673565b50905050849050949350505050565b6000600160003373ffffffffffffffffffffffffffffffffffffffff1673ffffffffffffffffffffffffffffffffffffffff16815260200190815260200160002060009054906101000a900460ff161561147a576040517f08c379a0000000000000000000000000000000000000000000000000000000008152600401611471906137b7565b60405180910390fd5b600082116114bd576040517f08c379a00000000000000000000000000000000000000000000000000000000081526004016114b4906133cf565b60405180910390fd5b60008411611500576040517f08c379a00000000000000000000000000000000000000000000000000000000081526004016114f79061343b565b60405180910390fd5b60008060008681526020019081526020016000206000015414611558576040517f08c379a000000000000000000000000000000000000000000000000000000000815260040161154f90613823565b60405180910390fd5b6040518060a00160405280858152602001848152602001838152602001600081526020013373ffffffffffffffffffffffffffffffffffffffff168152506000808681526020019081526020016000206000820151816000015560208201518160010190816115c79190613673565b50604082015181600201556060820151816003015560808201518160040160006101000a81548173ffffffffffffffffffffffffffffffffffffffff021916908373ffffffffffffffffffffffffffffffffffffffff160217905550905050600684908060018154018082558091505060019003906000526020600020016000909190919091505560018060003373ffffffffffffffffffffffffffffffffffffffff1673ffffffffffffffffffffffffffffffffffffffff16815260200190815260200160002060006101000a81548160ff0219169083151502179055508390509392505050565b60008086116116f4576040517f08c379a00000000000000000000000000000000000000000000000000000000081526004016116eb906133cf565b60405180910390fd5b60008811611737576040517f08c379a000000000000000000000000000000000000000000000000000000000815260040161172e9061343b565b60405180910390fd5b6000600460008a81526020019081526020016000206000015414611790576040517f08c379a00000000000000000000000000000000000000000000000000000000081526004016117879061388f565b60405180910390fd5b60028311156117d4576040517f08c379a00000000000000000000000000000000000000000000000000000000081526004016117cb90612a6b565b60405180910390fd5b60405180610120016040528089815260200188815260200187815260200186815260200185815260200184600281111561181157611810612b89565b5b600281111561182357611822612b89565b5b81526020018315158152602001678ac7230489e8000081526020013373ffffffffffffffffffffffffffffffffffffffff16815250600460008a815260200190815260200160002060008201518160000155602082015181600101908161188a9190613673565b506040820151816002015560608201518160030190816118aa9190613673565b5060808201518160040190816118c09190613673565b5060a08201518160050160006101000a81548160ff021916908360028111156118ec576118eb612b89565b5b021790555060c08201518160050160016101000a81548160ff02191690831515021790555060e082015181600601556101008201518160070160006101000a81548173ffffffffffffffffffffffffffffffffffffffff021916908373ffffffffffffffffffffffffffffffffffffffff16021790555090505087600260003373ffffffffffffffffffffffffffffffffffffffff1673ffffffffffffffffffffffffffffffffffffffff16815260200190815260200160002081905550879050979650505050505050565b6000600260008373ffffffffffffffffffffffffffffffffffffffff1673ffffffffffffffffffffffffffffffffffffffff168152602001908152602001600020549050919050565b6000606080600060649050600080600190505b828111611a99576000600460008381526020019081526020016000206000015414158015611a725750868051906020012060046000838152602001908152602001600020600401604051611a689190613947565b6040518091039020145b15611a86578180611a82906130e9565b9250505b8080611a91906130e9565b915050611a14565b508067ffffffffffffffff811115611ab457611ab36124be565b5b604051908082528060200260200182016040528015611ae25781602001602082028036833780820191505090505b5093508067ffffffffffffffff811115611aff57611afe6124be565b5b604051908082528060200260200182016040528015611b3257816020015b6060815260200190600190039081611b1d5790505b509250600080600190505b838111611cb5576000600460008381526020019081526020016000206000015414158015611b9b5750878051906020012060046000838152602001908152602001600020600401604051611b919190613947565b6040518091039020145b15611ca2576004600082815260200190815260200160002060000154868381518110611bca57611bc9612fa2565b5b602002602001018181525050600460008281526020019081526020016000206001018054611bf790613352565b80601f0160208091040260200160405190810160405280929190818152602001828054611c2390613352565b8015611c705780601f10611c4557610100808354040283529160200191611c70565b820191906000526020600020905b815481529060010190602001808311611c5357829003601f168201915b5050505050858381518110611c8857611c87612fa2565b5b60200260200101819052508180611c9e906130e9565b9250505b8080611cad906130e9565b915050611b3d565b5060005b82811015611e31576000600182611cd091906131bc565b90505b83811015611e1d57868281518110611cee57611ced612fa2565b5b6020026020010151878281518110611d0957611d08612fa2565b5b60200260200101511015611e0a576000878381518110611d2c57611d2b612fa2565b5b60200260200101519050878281518110611d4957611d48612fa2565b5b6020026020010151888481518110611d6457611d63612fa2565b5b60200260200101818152505080888381518110611d8457611d83612fa2565b5b6020026020010181815250506000878481518110611da557611da4612fa2565b5b60200260200101519050878381518110611dc257611dc1612fa2565b5b6020026020010151888581518110611ddd57611ddc612fa2565b5b602002602001018190525080888481518110611dfc57611dfb612fa2565b5b602002602001018190525050505b8080611e15906130e9565b915050611cd3565b508080611e29906130e9565b915050611cb9565b508195505050509193909250565b606060008203611e86576040518060400160405280600181526020017f30000000000000000000000000000000000000000000000000000000000000008152509050611fd9565b600a821015611ec557816030611e9c91906131bc565b60f81b604051602001611eaf91906139f7565b6040516020818303038152906040529050611fd9565b600082905060005b60008214611ef7578080611ee0906130e9565b915050600a82611ef09190613131565b9150611ecd565b60008167ffffffffffffffff811115611f1357611f126124be565b5b6040519080825280601f01601f191660200182016040528015611f455781602001600182028036833780820191505090505b5090505b60008514611fd257600182611f5e9190613a1d565b9150600a85611f6d9190612f71565b6030611f7991906131bc565b60f81b818381518110611f8f57611f8e612fa2565b5b60200101907effffffffffffffffffffffffffffffffffffffffffffffffffffffffffffff1916908160001a905350600a85611fcb9190613131565b9450611f49565b8093505050505b919050565b6000604051905090565b600080fd5b600080fd5b6000819050919050565b61200581611ff2565b811461201057600080fd5b50565b60008135905061202281611ffc565b92915050565b60008115159050919050565b61203d81612028565b811461204857600080fd5b50565b60008135905061205a81612034565b92915050565b60008060006060848603121561207957612078611fe8565b5b600061208786828701612013565b935050602061209886828701612013565b92505060406120a98682870161204b565b9150509250925092565b600080604083850312156120ca576120c9611fe8565b5b60006120d885828601612013565b92505060206120e985828601612013565b9150509250929050565b6120fc81612028565b82525050565b600060208201905061211760008301846120f3565b92915050565b60006020828403121561213357612132611fe8565b5b600061214184828501612013565b91505092915050565b600081519050919050565b600082825260208201905092915050565b6000819050602082019050919050565b61217f81611ff2565b82525050565b60006121918383612176565b60208301905092915050565b6000602082019050919050565b60006121b58261214a565b6121bf8185612155565b93506121ca83612166565b8060005b838110156121fb5781516121e28882612185565b97506121ed8361219d565b9250506001810190506121ce565b5085935050505092915050565b600081519050919050565b600082825260208201905092915050565b6000819050602082019050919050565b600081519050919050565b600082825260208201905092915050565b60005b8381101561226e578082015181840152602081019050612253565b60008484015250505050565b6000601f19601f8301169050919050565b600061229682612234565b6122a0818561223f565b93506122b0818560208601612250565b6122b98161227a565b840191505092915050565b60006122d0838361228b565b905092915050565b6000602082019050919050565b60006122f082612208565b6122fa8185612213565b93508360208202850161230c85612224565b8060005b85811015612348578484038952815161232985826122c4565b9450612334836122d8565b925060208a01995050600181019050612310565b50829750879550505050505092915050565b6000604082019050818103600083015261237481856121aa565b9050818103602083015261238881846122e5565b90509392505050565b600060408201905081810360008301526123ab81856121aa565b905081810360208301526123bf81846121aa565b90509392505050565b6123d181611ff2565b82525050565b600082825260208201905092915050565b60006123f382612234565b6123fd81856123d7565b935061240d818560208601612250565b6124168161227a565b840191505092915050565b600061010082019050612437600083018b6123c8565b8181036020830152612449818a6123e8565b905061245860408301896123c8565b818103606083015261246a81886123e8565b9050818103608083015261247e81876123e8565b905061248d60a08301866123c8565b61249a60c08301856120f3565b6124a760e08301846123c8565b9998505050505050505050565b600080fd5b600080fd5b7f4e487b7100000000000000000000000000000000000000000000000000000000600052604160045260246000fd5b6124f68261227a565b810181811067ffffffffffffffff82111715612515576125146124be565b5b80604052505050565b6000612528611fde565b905061253482826124ed565b919050565b600067ffffffffffffffff821115612554576125536124be565b5b61255d8261227a565b9050602081019050919050565b82818337600083830152505050565b600061258c61258784612539565b61251e565b9050828152602081018484840111156125a8576125a76124b9565b5b6125b384828561256a565b509392505050565b600082601f8301126125d0576125cf6124b4565b5b81356125e0848260208601612579565b91505092915050565b6000806000806080858703121561260357612602611fe8565b5b600061261187828801612013565b945050602085013567ffffffffffffffff81111561263257612631611fed565b5b61263e878288016125bb565b935050604061264f87828801612013565b925050606085013567ffffffffffffffff8111156126705761266f611fed565b5b61267c878288016125bb565b91505092959194509250565b600060208201905061269d60008301846123c8565b92915050565b6000806000606084860312156126bc576126bb611fe8565b5b60006126ca86828701612013565b935050602084013567ffffffffffffffff8111156126eb576126ea611fed565b5b6126f7868287016125bb565b925050604061270886828701612013565b9150509250925092565b600080600080600080600060e0888a03121561273157612730611fe8565b5b600061273f8a828b01612013565b975050602088013567ffffffffffffffff8111156127605761275f611fed565b5b61276c8a828b016125bb565b965050604061277d8a828b01612013565b955050606088013567ffffffffffffffff81111561279e5761279d611fed565b5b6127aa8a828b016125bb565b945050608088013567ffffffffffffffff8111156127cb576127ca611fed565b5b6127d78a828b016125bb565b93505060a06127e88a828b01612013565b92505060c06127f98a828b0161204b565b91505092959891949750929550565b600073ffffffffffffffffffffffffffffffffffffffff82169050919050565b600061283382612808565b9050919050565b61284381612828565b811461284e57600080fd5b50565b6000813590506128608161283a565b92915050565b60006020828403121561287c5761287b611fe8565b5b600061288a84828501612851565b91505092915050565b6000602082840312156128a9576128a8611fe8565b5b600082013567ffffffffffffffff8111156128c7576128c6611fed565b5b6128d3848285016125bb565b91505092915050565b60006060820190506128f160008301866123c8565b818103602083015261290381856121aa565b9050818103604083015261291781846122e5565b9050949350505050565b7f4f6e6c792061646d696e2063616e20706572666f726d2074686973206163746960008201527f6f6e000000000000000000000000000000000000000000000000000000000000602082015250565b600061297d6022836123d7565b915061298882612921565b604082019050919050565b600060208201905081810360008301526129ac81612970565b9050919050565b7f5061727469636970616e74206e6f7420666f756e640000000000000000000000600082015250565b60006129e96015836123d7565b91506129f4826129b3565b602082019050919050565b60006020820190508181036000830152612a18816129dc565b9050919050565b7f496e76616c696420747261696e696e6720696e74657265737400000000000000600082015250565b6000612a556019836123d7565b9150612a6082612a1f565b602082019050919050565b60006020820190508181036000830152612a8481612a48565b9050919050565b7f43616e6e6f74206368616e676520636f6d706c657465642066726f6d2074727560008201527f6520746f2066616c736500000000000000000000000000000000000000000000602082015250565b6000612ae7602a836123d7565b9150612af282612a8b565b604082019050919050565b60006020820190508181036000830152612b1681612ada565b9050919050565b7f4e6f7420417574686f72697a6564000000000000000000000000000000000000600082015250565b6000612b53600e836123d7565b9150612b5e82612b1d565b602082019050919050565b60006020820190508181036000830152612b8281612b46565b9050919050565b7f4e487b7100000000000000000000000000000000000000000000000000000000600052602160045260246000fd5b7f5374617274696e672076616c69646174696f6e00000000000000000000000000600082015250565b6000612bee6013836123d7565b9150612bf982612bb8565b602082019050919050565b6000606082019050612c1960008301856123c8565b612c2660208301846123c8565b8181036040830152612c3781612be1565b90509392505050565b7f547261696e6572206e6f7420666f756e64000000000000000000000000000000600082015250565b6000612c766011836123d7565b9150612c8182612c40565b602082019050919050565b60006020820190508181036000830152612ca581612c69565b9050919050565b7f4e6f2061646d696e7320617661696c61626c6500000000000000000000000000600082015250565b6000612ce26013836123d7565b9150612ced82612cac565b602082019050919050565b60006020820190508181036000830152612d1181612cd5565b9050919050565b7f496e76616c696420736c6f742049440000000000000000000000000000000000600082015250565b6000612d4e600f836123d7565b9150612d5982612d18565b602082019050919050565b60006020820190508181036000830152612d7d81612d41565b9050919050565b7f536c6f7420697320616c726561647920626f6f6b656400000000000000000000600082015250565b6000612dba6016836123d7565b9150612dc582612d84565b602082019050919050565b60006020820190508181036000830152612de981612dad565b9050919050565b7f5061727469636970616e74206e6f742072656769737465726564000000000000600082015250565b6000612e26601a836123d7565b9150612e3182612df0565b602082019050919050565b60006020820190508181036000830152612e5581612e19565b9050919050565b7f56616c69646174696f6e20706173736564000000000000000000000000000000600082015250565b6000612e926011836123d7565b9150612e9d82612e5c565b602082019050919050565b6000606082019050612ebd60008301856123c8565b612eca60208301846123c8565b8181036040830152612edb81612e85565b90509392505050565b6000819050919050565b612eff612efa82611ff2565b612ee4565b82525050565b6000612f118286612eee565b602082019150612f218285612eee565b602082019150612f318284612eee565b602082019150819050949350505050565b7f4e487b7100000000000000000000000000000000000000000000000000000000600052601260045260246000fd5b6000612f7c82611ff2565b9150612f8783611ff2565b925082612f9757612f96612f42565b5b828206905092915050565b7f4e487b7100000000000000000000000000000000000000000000000000000000600052603260045260246000fd5b600081905092915050565b50565b6000612fec600083612fd1565b9150612ff782612fdc565b600082019050919050565b600061300d82612fdf565b9150819050919050565b7f5061796d656e74206661696c6564000000000000000000000000000000000000600082015250565b600061304d600e836123d7565b915061305882613017565b602082019050919050565b6000602082019050818103600083015261307c81613040565b9050919050565b600060608201905061309860008301866123c8565b6130a560208301856123c8565b6130b260408301846123c8565b949350505050565b7f4e487b7100000000000000000000000000000000000000000000000000000000600052601160045260246000fd5b60006130f482611ff2565b91507fffffffffffffffffffffffffffffffffffffffffffffffffffffffffffffffff8203613126576131256130ba565b5b600182019050919050565b600061313c82611ff2565b915061314783611ff2565b92508261315757613156612f42565b5b828204905092915050565b600061316d82611ff2565b915061317883611ff2565b9250817fffffffffffffffffffffffffffffffffffffffffffffffffffffffffffffffff04831182151516156131b1576131b06130ba565b5b828202905092915050565b60006131c782611ff2565b91506131d283611ff2565b92508282019050808211156131ea576131e96130ba565b5b92915050565b600081905092915050565b600061320682612234565b61321081856131f0565b9350613220818560208601612250565b80840191505092915050565b7f3a00000000000000000000000000000000000000000000000000000000000000600082015250565b60006132626001836131f0565b915061326d8261322c565b600182019050919050565b7f2d00000000000000000000000000000000000000000000000000000000000000600082015250565b60006132ae6001836131f0565b91506132b982613278565b600182019050919050565b60006132d082876131fb565b91506132db82613255565b91506132e782866131fb565b91506132f2826132a1565b91506132fe82856131fb565b915061330982613255565b915061331582846131fb565b915081905095945050505050565b7f4e487b7100000000000000000000000000000000000000000000000000000000600052602260045260246000fd5b6000600282049050600182168061336a57607f821691505b60208210810361337d5761337c613323565b5b50919050565b7f496e76616c696420616765000000000000000000000000000000000000000000600082015250565b60006133b9600b836123d7565b91506133c482613383565b602082019050919050565b600060208201905081810360008301526133e8816133ac565b9050919050565b7f496e76616c696420494400000000000000000000000000000000000000000000600082015250565b6000613425600a836123d7565b9150613430826133ef565b602082019050919050565b6000602082019050818103600083015261345481613418565b9050919050565b7f547261696e657220494420616c72656164792065786973747300000000000000600082015250565b60006134916019836123d7565b915061349c8261345b565b602082019050919050565b600060208201905081810360008301526134c081613484565b9050919050565b60008190508160005260206000209050919050565b60006020601f8301049050919050565b600082821b905092915050565b6000600883026135297fffffffffffffffffffffffffffffffffffffffffffffffffffffffffffffffff826134ec565b61353386836134ec565b95508019841693508086168417925050509392505050565b6000819050919050565b600061357061356b61356684611ff2565b61354b565b611ff2565b9050919050565b6000819050919050565b61358a83613555565b61359e61359682613577565b8484546134f9565b825550505050565b600090565b6135b36135a6565b6135be818484613581565b505050565b5b818110156135e2576135d76000826135ab565b6001810190506135c4565b5050565b601f821115613627576135f8816134c7565b613601846134dc565b81016020851015613610578190505b61362461361c856134dc565b8301826135c3565b50505b505050565b600082821c905092915050565b600061364a6000198460080261362c565b1980831691505092915050565b60006136638383613639565b9150826002028217905092915050565b61367c82612234565b67ffffffffffffffff811115613695576136946124be565b5b61369f8254613352565b6136aa8282856135e6565b600060209050601f8311600181146136dd57600084156136cb578287015190505b6136d58582613657565b86555061373d565b601f1984166136eb866134c7565b60005b82811015613713578489015182556001820191506020850194506020810190506136ee565b86831015613730578489015161372c601f891682613639565b8355505b6001600288020188555050505b505050505050565b7f4164647265737320616c7265616479207265676973746572656420617320616460008201527f6d696e0000000000000000000000000000000000000000000000000000000000602082015250565b60006137a16023836123d7565b91506137ac82613745565b604082019050919050565b600060208201905081810360008301526137d081613794565b9050919050565b7f41646d696e20494420616c726561647920657869737473000000000000000000600082015250565b600061380d6017836123d7565b9150613818826137d7565b602082019050919050565b6000602082019050818103600083015261383c81613800565b9050919050565b7f5061727469636970616e7420494420616c726561647920657869737473000000600082015250565b6000613879601d836123d7565b915061388482613843565b602082019050919050565b600060208201905081810360008301526138a88161386c565b9050919050565b60008190508160005260206000209050919050565b600081546138d181613352565b6138db8186612fd1565b945060018216600081146138f6576001811461390b5761393e565b60ff198316865281151582028601935061393e565b613914856138af565b60005b8381101561393657815481890152600182019150602081019050613917565b838801955050505b50505092915050565b600061395382846138c4565b915081905092915050565b7f3000000000000000000000000000000000000000000000000000000000000000600082015250565b60006139946001836131f0565b915061399f8261395e565b600182019050919050565b60007fff0000000000000000000000000000000000000000000000000000000000000082169050919050565b6000819050919050565b6139f16139ec826139aa565b6139d6565b82525050565b6000613a0282613987565b9150613a0e82846139e0565b60018201915081905092915050565b6000613a2882611ff2565b9150613a3383611ff2565b9250828203905081811115613a4b57613a4a6130ba565b5b9291505056fea264697066735822122036eeaf84515fd40d2af818bf88b284e80a7ba745c940a76034a5cb82ab005e5164736f6c63430008100033",
  "immutableReferences": {},
  "source": "// SPDX-License-Identifier: UNLICENSED\npragma solidity ^0.8.0;\n\ncontract DisasterRecoveryTraining {\n    enum TrainingType { first_aid, shelter_rebuild, food_safety }\n    struct Admin {\n        uint256 id;\n        string name;\n        uint256 age;\n        uint256 balance;\n        address admin_address;\n    }\n    \n    struct Trainer {\n        uint256 id;\n        string name;\n        uint256 age;\n        string gender;\n    }\n    \n    struct Participant {\n        uint256 id;\n        string name;\n        uint256 age;\n        string gender;\n        string district;\n        TrainingType training_interest;\n        bool has_completed_training;\n        uint256 balance;\n        address account_address;\n    }\n    \n    struct TrainingSlot {\n        uint256 slotId;\n        uint256 trainerId;\n        uint256 participantId;\n        bool isBooked;\n    }\n\n    // Events for debugging\n    event BookingAttempt(address indexed participant, uint256 trainerId, uint256 slotId, string status);\n    event BookingSuccess(address indexed participant, uint256 trainerId, uint256 slotId, uint256 participantId);\n\n    uint256 private constant TOTAL_SLOTS_PER_DAY = 48;\n    uint256 private constant BOOKING_FEE = 1 ether;\n    uint256 private constant INITIAL_PARTICIPANT_BALANCE = 10 ether;\n\n    mapping(uint256 => Admin) private admins;\n    mapping(address => bool) private isAdmin;\n    mapping(address => uint256) private participantByAddress;\n    mapping(uint256 => Trainer) private trainers;\n    mapping(uint256 => Participant) private participants;\n    mapping(uint256 => mapping(uint256 => TrainingSlot)) private trainerSlots;\n    uint256[] private adminIds;\n    \n    modifier onlyAdmin() {\n        require(isAdmin[msg.sender], \"Only admin can perform this action\");\n        _;\n    }\n    \n    function registerAdmin(uint256 id, string memory name, uint256 age) external returns (uint256) {\n        require(!isAdmin[msg.sender], \"Address already registered as admin\");\n        require(age > 0, \"Invalid age\");\n        require(id > 0, \"Invalid ID\");\n        require(admins[id].id == 0, \"Admin ID already exists\");\n        \n        admins[id] = Admin(id, name, age, 0, msg.sender);\n        adminIds.push(id);\n        isAdmin[msg.sender] = true;\n        return id;\n    }\n    \n    function registerTrainer(uint256 id, string memory name, uint256 age, string memory gender) external returns (uint256) {\n        require(age > 0, \"Invalid age\");\n        require(id > 0, \"Invalid ID\");\n        require(trainers[id].id == 0, \"Trainer ID already exists\");\n        \n        trainers[id] = Trainer(id, name, age, gender);\n        return id;\n    }\n    \n    function registerParticipant(\n        uint256 id,\n        string memory name,\n        uint256 age,\n        string memory gender,\n        string memory district,\n        uint256 training_interest,\n        bool has_completed_training\n    ) external returns (uint256) {\n        require(age > 0, \"Invalid age\");\n        require(id > 0, \"Invalid ID\");\n        require(participants[id].id == 0, \"Participant ID already exists\");\n        require(training_interest <= 2, \"Invalid training interest\");\n        \n        participants[id] = Participant(\n            id,\n            name,\n            age,\n            gender,\n            district,\n            TrainingType(training_interest),\n            has_completed_training,\n            INITIAL_PARTICIPANT_BALANCE,\n            msg.sender\n        );\n\n        participantByAddress[msg.sender] = id;\n\n        return id;\n    }\n    \n    function updateParticipantData(uint256 participantId, uint256 newTrainingInterest, bool has_completed_training) external onlyAdmin {\n        require(participants[participantId].id != 0, \"Participant not found\");\n        require(newTrainingInterest <= 2, \"Invalid training interest\");\n        \n        Participant storage p = participants[participantId];\n        require(!p.has_completed_training || has_completed_training, \"Cannot change completed from true to false\");\n        \n        // admin only access\n        require(isAdmin[msg.sender], \"Not Authorized\");\n        p.training_interest = TrainingType(newTrainingInterest);\n        p.has_completed_training = has_completed_training;\n    }\n    \n    function bookTrainingSlot(uint256 trainerId, uint256 slotId) external payable returns (bool) {\n        emit BookingAttempt(msg.sender, trainerId, slotId, \"Starting validation\");\n        \n        require(trainers[trainerId].id != 0, \"Trainer not found\");\n        require(adminIds.length > 0, \"No admins available\");\n        require(slotId < TOTAL_SLOTS_PER_DAY, \"Invalid slot ID\");\n        require(!trainerSlots[trainerId][slotId].isBooked, \"Slot is already booked\");\n        // require(msg.value == BOOKING_FEE, \"Send exact booking fee\");\n\n        // Get participant ID from sender address\n        uint256 participantId = participantByAddress[msg.sender];\n        require(participantId != 0, \"Participant not registered\");\n        \n        emit BookingAttempt(msg.sender, trainerId, slotId, \"Validation passed\");\n        \n        // Book the slot\n        trainerSlots[trainerId][slotId] = TrainingSlot(slotId, trainerId, participantId, true);\n\n        // Randomly select an admin to receive the payment\n        uint256 randomIndex = uint256(keccak256(abi.encodePacked(block.timestamp, block.difficulty, participantId))) % adminIds.length;\n        uint256 selectedAdminId = adminIds[randomIndex];\n        (bool success, ) = payable(admins[selectedAdminId].admin_address).call{value: msg.value}(\"\");\n        require(success, \"Payment failed\");\n        \n        emit BookingSuccess(msg.sender, trainerId, slotId, participantId);\n        // participants[participantId].balance -= BOOKING_FEE;\n        // admins[selectedAdminId].balance += BOOKING_FEE;\n        \n        return true;\n    }\n\n    //     function findParticipantByAddress(address addr) internal view returns (uint256) {\n    //     for (uint256 i = 1; i <= 100; i++) { // adjust max range\n    //         if (participants[i].id != 0 && participants[i].account_address == addr) {\n    //             return participants[i].id;\n    //         }\n    //     }\n    //     return 0;\n    // }\n    \n    // Add this function to check if an address is registered as a participant\n    function getParticipantIdByAddress(address addr) external view returns (uint256) {\n        return participantByAddress[addr];\n    }\n    \n    function viewAdminBalance() external view returns (\n        uint256[] memory adminIdList,\n        uint256[] memory balanceList\n    ) {\n        uint256 totalAdmins = adminIds.length;\n\n        adminIdList = new uint256[](totalAdmins);\n        balanceList = new uint256[](totalAdmins);\n\n        for (uint256 i = 0; i < totalAdmins; i++) {\n            uint256 adminId = adminIds[i];\n            adminIdList[i] = adminId;\n            // Return balances in whole ETH units for display, based on actual address balance\n            balanceList[i] = admins[adminId].admin_address.balance / 1 ether;\n        }\n\n        return (adminIdList, balanceList);\n    }\n    \n    function viewParticipantData(uint256 participantId) external view returns (\n        uint256 id,\n        string memory name,\n        uint256 age,\n        string memory gender,\n        string memory district,\n        uint256 training_interest,\n        bool has_completed_training,\n        uint256 balance\n    ) {\n        require(participants[participantId].id != 0, \"Participant not found\");\n        \n        Participant memory p = participants[participantId];\n        return (\n            p.id,\n            p.name,\n            p.age,\n            p.gender,\n            p.district,\n            uint256(p.training_interest),\n            p.has_completed_training,\n            p.balance\n        );\n    }\n\n    function _toString(uint256 value) internal pure returns (string memory) {\n        if (value == 0) return \"0\";\n        if (value < 10) return string(abi.encodePacked(\"0\", bytes1(uint8(48 + value))));\n        \n        uint256 temp = value;\n        uint256 digits;\n        while (temp != 0) {\n            digits++;\n            temp /= 10;\n        }\n        bytes memory buffer = new bytes(digits);\n        while (value != 0) {\n            digits -= 1;\n            buffer[digits] = bytes1(uint8(48 + uint256(value % 10)));\n            value /= 10;\n        }\n        return string(buffer);\n    }\n\n    function viewTrainerSchedule(uint256 trainerId) external view returns (\n        uint256[] memory availableSlots,\n        string[] memory timeRanges\n    ) {\n        require(trainers[trainerId].id != 0, \"Trainer not found\");\n        uint256 availableCount = 0;\n        for (uint256 i = 0; i < TOTAL_SLOTS_PER_DAY; i++) {\n            if (!trainerSlots[trainerId][i].isBooked) {\n                availableCount++;\n            }\n        }\n        availableSlots = new uint256[](availableCount);\n        timeRanges = new string[](availableCount);\n        uint256 index = 0;\n        \n        for (uint256 i = 0; i < TOTAL_SLOTS_PER_DAY; i++) {\n            if (!trainerSlots[trainerId][i].isBooked) {\n                availableSlots[index] = i;\n                uint256 startHour = i / 2;\n                uint256 startMinute = (i % 2) * 30;\n                uint256 endHour = startHour;\n                uint256 endMinute = startMinute + 30;\n                \n                if (endMinute == 60) {\n                    endHour++;\n                    endMinute = 0;\n                }\n                timeRanges[index] = string(abi.encodePacked(\n                    _toString(startHour), \":\", \n                    startMinute == 0 ? \"00\" : \"30\", \n                    \"-\",\n                    _toString(endHour), \":\",\n                    endMinute == 0 ? \"00\" : \"30\"\n                ));\n                \n                index++;\n            }\n        }\n        \n        return (availableSlots, timeRanges);\n    }\n\n//  Search participants by district  returns total count + sorted IDs + names\nfunction searchParticipantsByDistrict(\n    string memory district\n) external view returns (\n    uint256 totalInDistrict,            // total participants in the district\n    uint256[] memory participantIdsSorted, // sorted list of IDs\n    string[] memory participantNamesSorted // names aligned with IDs\n) {\n    uint256 maxIds = 100; // upper bound, adjust as needed\n    uint256 matchCount = 0;\n\n    // 1 Count matches in the given district\n    for (uint256 i = 1; i <= maxIds; i++) {\n        if (\n            participants[i].id != 0 &&\n            keccak256(bytes(participants[i].district)) == keccak256(bytes(district))\n        ) {\n            matchCount++;\n        }\n    }\n\n    // 2 Collect IDs and names of participants in that district\n    participantIdsSorted = new uint256[](matchCount);\n    participantNamesSorted = new string[](matchCount);\n    uint256 idx = 0;\n\n    for (uint256 i = 1; i <= maxIds; i++) {\n        if (\n            participants[i].id != 0 &&\n            keccak256(bytes(participants[i].district)) == keccak256(bytes(district))\n        ) {\n            participantIdsSorted[idx] = participants[i].id;\n            participantNamesSorted[idx] = participants[i].name;\n            idx++;\n        }\n    }\n\n    // 3 Sort IDs (ascending) and keep names aligned\n    for (uint256 i = 0; i < matchCount; i++) {\n        for (uint256 j = i + 1; j < matchCount; j++) {\n            if (participantIdsSorted[j] < participantIdsSorted[i]) {\n                // swap IDs\n                uint256 tempId = participantIdsSorted[i];\n                participantIdsSorted[i] = participantIdsSorted[j];\n                participantIdsSorted[j] = tempId;\n\n                // swap names so they stay aligned\n                string memory tempName = participantNamesSorted[i];\n                participantNamesSorted[i] = participantNamesSorted[j];\n                participantNamesSorted[j] = tempName;\n            }\n        }\n    }\n\n    // 4 Return total count, sorted IDs, and aligned names\n    totalInDistrict = matchCount;\n}\n\n}",
  "sourcePath": "/mnt/e/projects/baDApp/contracts/DisasterRecoveryTraining.sol",
  "compiler": {
    "name": "solc",
    "version": "0.8.16+commit.07a7930e.Emscripten.clang"
  },
  "schemaVersion": "3.4.16",
  "updatedAt": "2025-08-26T01:38:42.838Z",
  "networkType": "ethereum",
  "devdoc": {
    "kind": "dev",
    "methods": {},
    "version": 1
  },
  "userdoc": {
    "kind": "user",
    "methods": {},
    "version": 1
  }
}