{
  "contractName": "DisasterRecoveryTraining",
  "abi": [
    {
      "anonymous": false,
      "inputs": [
        {
          "indexed": true,
          "internalType": "address",
          "name": "participant",
          "type": "address"
        },
        {
          "indexed": false,
          "internalType": "uint256",
          "name": "trainerId",
          "type": "uint256"
        },
        {
          "indexed": false,
          "internalType": "uint256",
          "name": "slotId",
          "type": "uint256"
        },
        {
          "indexed": false,
          "internalType": "string",
          "name": "status",
          "type": "string"
        }
      ],
      "name": "BookingAttempt",
      "type": "event"
    },
    {
      "anonymous": false,
      "inputs": [
        {
          "indexed": true,
          "internalType": "address",
          "name": "participant",
          "type": "address"
        },
        {
          "indexed": false,
          "internalType": "uint256",
          "name": "trainerId",
          "type": "uint256"
        },
        {
          "indexed": false,
          "internalType": "uint256",
          "name": "slotId",
          "type": "uint256"
        },
        {
          "indexed": false,
          "internalType": "uint256",
          "name": "participantId",
          "type": "uint256"
        }
      ],
      "name": "BookingSuccess",
      "type": "event"
    },
    {
      "inputs": [
        {
          "internalType": "uint256",
          "name": "id",
          "type": "uint256"
        },
        {
          "internalType": "string",
          "name": "name",
          "type": "string"
        },
        {
          "internalType": "uint256",
          "name": "age",
          "type": "uint256"
        }
      ],
      "name": "registerAdmin",
      "outputs": [
        {
          "internalType": "uint256",
          "name": "",
          "type": "uint256"
        }
      ],
      "stateMutability": "nonpayable",
      "type": "function"
    },
    {
      "inputs": [
        {
          "internalType": "uint256",
          "name": "id",
          "type": "uint256"
        },
        {
          "internalType": "string",
          "name": "name",
          "type": "string"
        },
        {
          "internalType": "uint256",
          "name": "age",
          "type": "uint256"
        },
        {
          "internalType": "string",
          "name": "gender",
          "type": "string"
        }
      ],
      "name": "registerTrainer",
      "outputs": [
        {
          "internalType": "uint256",
          "name": "",
          "type": "uint256"
        }
      ],
      "stateMutability": "nonpayable",
      "type": "function"
    },
    {
      "inputs": [
        {
          "internalType": "uint256",
          "name": "id",
          "type": "uint256"
        },
        {
          "internalType": "string",
          "name": "name",
          "type": "string"
        },
        {
          "internalType": "uint256",
          "name": "age",
          "type": "uint256"
        },
        {
          "internalType": "string",
          "name": "gender",
          "type": "string"
        },
        {
          "internalType": "string",
          "name": "district",
          "type": "string"
        },
        {
          "internalType": "uint256",
          "name": "training_interest",
          "type": "uint256"
        },
        {
          "internalType": "bool",
          "name": "has_completed_training",
          "type": "bool"
        }
      ],
      "name": "registerParticipant",
      "outputs": [
        {
          "internalType": "uint256",
          "name": "",
          "type": "uint256"
        }
      ],
      "stateMutability": "nonpayable",
      "type": "function"
    },
    {
      "inputs": [
        {
          "internalType": "uint256",
          "name": "participantId",
          "type": "uint256"
        },
        {
          "internalType": "uint256",
          "name": "newTrainingInterest",
          "type": "uint256"
        },
        {
          "internalType": "bool",
          "name": "has_completed_training",
          "type": "bool"
        }
      ],
      "name": "updateParticipantData",
      "outputs": [],
      "stateMutability": "nonpayable",
      "type": "function"
    },
    {
      "inputs": [
        {
          "internalType": "uint256",
          "name": "trainerId",
          "type": "uint256"
        },
        {
          "internalType": "uint256",
          "name": "slotId",
          "type": "uint256"
        }
      ],
      "name": "bookTrainingSlot",
      "outputs": [
        {
          "internalType": "bool",
          "name": "",
          "type": "bool"
        }
      ],
      "stateMutability": "payable",
      "type": "function",
      "payable": true
    },
    {
      "inputs": [
        {
          "internalType": "address",
          "name": "addr",
          "type": "address"
        }
      ],
      "name": "getParticipantIdByAddress",
      "outputs": [
        {
          "internalType": "uint256",
          "name": "",
          "type": "uint256"
        }
      ],
      "stateMutability": "view",
      "type": "function",
      "constant": true
    },
    {
      "inputs": [],
      "name": "viewAdminBalance",
      "outputs": [
        {
          "internalType": "uint256[]",
          "name": "adminIdList",
          "type": "uint256[]"
        },
        {
          "internalType": "uint256[]",
          "name": "balanceList",
          "type": "uint256[]"
        }
      ],
      "stateMutability": "view",
      "type": "function",
      "constant": true
    },
    {
      "inputs": [
        {
          "internalType": "uint256",
          "name": "participantId",
          "type": "uint256"
        }
      ],
      "name": "viewParticipantData",
      "outputs": [
        {
          "internalType": "uint256",
          "name": "id",
          "type": "uint256"
        },
        {
          "internalType": "string",
          "name": "name",
          "type": "string"
        },
        {
          "internalType": "uint256",
          "name": "age",
          "type": "uint256"
        },
        {
          "internalType": "string",
          "name": "gender",
          "type": "string"
        },
        {
          "internalType": "string",
          "name": "district",
          "type": "string"
        },
        {
          "internalType": "uint256",
          "name": "training_interest",
          "type": "uint256"
        },
        {
          "internalType": "bool",
          "name": "has_completed_training",
          "type": "bool"
        },
        {
          "internalType": "uint256",
          "name": "balance",
          "type": "uint256"
        }
      ],
      "stateMutability": "view",
      "type": "function",
      "constant": true
    },
    {
      "inputs": [
        {
          "internalType": "uint256",
          "name": "trainerId",
          "type": "uint256"
        }
      ],
      "name": "viewTrainerSchedule",
      "outputs": [
        {
          "internalType": "uint256[]",
          "name": "availableSlots",
          "type": "uint256[]"
        },
        {
          "internalType": "string[]",
          "name": "timeRanges",
          "type": "string[]"
        }
      ],
      "stateMutability": "view",
      "type": "function",
      "constant": true
    },
    {
      "inputs": [
        {
          "internalType": "string",
          "name": "district",
          "type": "string"
        }
      ],
      "name": "searchParticipantsByDistrict",
      "outputs": [
        {
          "internalType": "uint256",
          "name": "totalInDistrict",
          "type": "uint256"
        },
        {
          "internalType": "uint256[]",
          "name": "participantIdsSorted",
          "type": "uint256[]"
        },
        {
          "internalType": "string[]",
          "name": "participantNamesSorted",
          "type": "string[]"
        }
      ],
      "stateMutability": "view",
      "type": "function",
      "constant": true
    }
  ],
  "bytecode": "0x608060405234801561001057600080fd5b50613aa3806100206000396000f3fe6080604052600436106100915760003560e01c80636c80cd33116100595780636c80cd331461019d578063710e2aba146101da578063a30b027b14610217578063ad715cba14610254578063d45b1a391461029157610091565b80633a7002e1146100965780634efbbb1b146100bf57806351eca4dd146100ef5780635a29dc291461012d5780635ffc80f214610159575b600080fd5b3480156100a257600080fd5b506100bd60048036038101906100b89190612056565b6102d0565b005b6100d960048036038101906100d491906120a9565b6104ca565b6040516100e691906120f8565b60405180910390f35b3480156100fb57600080fd5b5061011660048036038101906101119190612113565b61097b565b604051610124929190612350565b60405180910390f35b34801561013957600080fd5b50610142610d14565b604051610150929190612387565b60405180910390f35b34801561016557600080fd5b50610180600480360381019061017b9190612113565b610e9e565b604051610194989796959493929190612417565b60405180910390f35b3480156101a957600080fd5b506101c460048036038101906101bf91906125df565b6111fd565b6040516101d1919061267e565b60405180910390f35b3480156101e657600080fd5b5061020160048036038101906101fc9190612699565b61135f565b60405161020e919061267e565b60405180910390f35b34801561022357600080fd5b5061023e60048036038101906102399190612708565b611624565b60405161024b919061267e565b60405180910390f35b34801561026057600080fd5b5061027b6004803603810190610276919061285c565b6119ae565b604051610288919061267e565b60405180910390f35b34801561029d57600080fd5b506102b860048036038101906102b39190612889565b6119f7565b6040516102c7939291906128d2565b60405180910390f35b600160003373ffffffffffffffffffffffffffffffffffffffff1673ffffffffffffffffffffffffffffffffffffffff16815260200190815260200160002060009054906101000a900460ff1661035c576040517f08c379a000000000000000000000000000000000000000000000000000000000815260040161035390612989565b60405180910390fd5b60006004600085815260200190815260200160002060000154036103b5576040517f08c379a00000000000000000000000000000000000000000000000000000000081526004016103ac906129f5565b60405180910390fd5b60028211156103f9576040517f08c379a00000000000000000000000000000000000000000000000000000000081526004016103f090612a61565b60405180910390fd5b60006004600085815260200190815260200160002090508060050160019054906101000a900460ff16158061042b5750815b61046a576040517f08c379a000000000000000000000000000000000000000000000000000000000815260040161046190612af3565b60405180910390fd5b82600281111561047d5761047c612b13565b5b8160050160006101000a81548160ff021916908360028111156104a3576104a2612b13565b5b0217905550818160050160016101000a81548160ff02191690831515021790555050505050565b60003373ffffffffffffffffffffffffffffffffffffffff167fee4d9838ab35505c270924c02f8c6dcdb4da97b897f5ff18e7b83d8338625d3b8484604051610514929190612b8e565b60405180910390a26000600360008581526020019081526020016000206000015403610575576040517f08c379a000000000000000000000000000000000000000000000000000000000815260040161056c90612c16565b60405180910390fd5b6000600680549050116105bd576040517f08c379a00000000000000000000000000000000000000000000000000000000081526004016105b490612c82565b60405180910390fd5b60308210610600576040517f08c379a00000000000000000000000000000000000000000000000000000000081526004016105f790612cee565b60405180910390fd5b60056000848152602001908152602001600020600083815260200190815260200160002060030160009054906101000a900460ff1615610675576040517f08c379a000000000000000000000000000000000000000000000000000000000815260040161066c90612d5a565b60405180910390fd5b6000600260003373ffffffffffffffffffffffffffffffffffffffff1673ffffffffffffffffffffffffffffffffffffffff168152602001908152602001600020549050600081036106fc576040517f08c379a00000000000000000000000000000000000000000000000000000000081526004016106f390612dc6565b60405180910390fd5b3373ffffffffffffffffffffffffffffffffffffffff167fee4d9838ab35505c270924c02f8c6dcdb4da97b897f5ff18e7b83d8338625d3b8585604051610744929190612e32565b60405180910390a260405180608001604052808481526020018581526020018281526020016001151581525060056000868152602001908152602001600020600085815260200190815260200160002060008201518160000155602082015181600101556040820151816002015560608201518160030160006101000a81548160ff02191690831515021790555090505060006006805490504244846040516020016107f293929190612e8f565b6040516020818303038152906040528051906020012060001c6108159190612efb565b905060006006828154811061082d5761082c612f2c565b5b90600052602060002001549050600080600083815260200190815260200160002060040160009054906101000a900473ffffffffffffffffffffffffffffffffffffffff1673ffffffffffffffffffffffffffffffffffffffff163460405161089590612f8c565b60006040518083038185875af1925050503d80600081146108d2576040519150601f19603f3d011682016040523d82523d6000602084013e6108d7565b606091505b505090508061091b576040517f08c379a000000000000000000000000000000000000000000000000000000000815260040161091290612fed565b60405180910390fd5b3373ffffffffffffffffffffffffffffffffffffffff167f27786adea8633fba1d874076b06e9d7dfaf7bee80bf44d30a93c96708894024b8888876040516109659392919061300d565b60405180910390a2600194505050505092915050565b60608060006003600085815260200190815260200160002060000154036109d7576040517f08c379a00000000000000000000000000000000000000000000000000000000081526004016109ce90612c16565b60405180910390fd5b6000805b6030811015610a3f5760056000868152602001908152602001600020600082815260200190815260200160002060030160009054906101000a900460ff16610a2c578180610a2890613073565b9250505b8080610a3790613073565b9150506109db565b508067ffffffffffffffff811115610a5a57610a596124b4565b5b604051908082528060200260200182016040528015610a885781602001602082028036833780820191505090505b5092508067ffffffffffffffff811115610aa557610aa46124b4565b5b604051908082528060200260200182016040528015610ad857816020015b6060815260200190600190039081610ac35790505b5091506000805b6030811015610d0c5760056000878152602001908152602001600020600082815260200190815260200160002060030160009054906101000a900460ff16610cf95780858381518110610b3557610b34612f2c565b5b6020026020010181815250506000600282610b5091906130bb565b90506000601e600284610b639190612efb565b610b6d91906130ec565b905060008290506000601e83610b839190613146565b9050603c8103610ba0578180610b9890613073565b925050600090505b610ba984611e35565b60008414610bec576040518060400160405280600281526020017f3330000000000000000000000000000000000000000000000000000000000000815250610c23565b6040518060400160405280600281526020017f30300000000000000000000000000000000000000000000000000000000000008152505b610c2c84611e35565b60008414610c6f576040518060400160405280600281526020017f3330000000000000000000000000000000000000000000000000000000000000815250610ca6565b6040518060400160405280600281526020017f30300000000000000000000000000000000000000000000000000000000000008152505b604051602001610cb9949392919061324e565b604051602081830303815290604052888781518110610cdb57610cda612f2c565b5b60200260200101819052508580610cf190613073565b965050505050505b8080610d0490613073565b915050610adf565b505050915091565b606080600060068054905090508067ffffffffffffffff811115610d3b57610d3a6124b4565b5b604051908082528060200260200182016040528015610d695781602001602082028036833780820191505090505b5092508067ffffffffffffffff811115610d8657610d856124b4565b5b604051908082528060200260200182016040528015610db45781602001602082028036833780820191505090505b50915060005b81811015610e9857600060068281548110610dd857610dd7612f2c565b5b9060005260206000200154905080858381518110610df957610df8612f2c565b5b602002602001018181525050670de0b6b3a764000060008083815260200190815260200160002060040160009054906101000a900473ffffffffffffffffffffffffffffffffffffffff1673ffffffffffffffffffffffffffffffffffffffff1631610e6591906130bb565b848381518110610e7857610e77612f2c565b5b602002602001018181525050508080610e9090613073565b915050610dba565b50509091565b600060606000606080600080600080600460008b81526020019081526020016000206000015403610f04576040517f08c379a0000000000000000000000000000000000000000000000000000000008152600401610efb906129f5565b60405180910390fd5b6000600460008b81526020019081526020016000206040518061012001604052908160008201548152602001600182018054610f3f906132dc565b80601f0160208091040260200160405190810160405280929190818152602001828054610f6b906132dc565b8015610fb85780601f10610f8d57610100808354040283529160200191610fb8565b820191906000526020600020905b815481529060010190602001808311610f9b57829003601f168201915b5050505050815260200160028201548152602001600382018054610fdb906132dc565b80601f0160208091040260200160405190810160405280929190818152602001828054611007906132dc565b80156110545780601f1061102957610100808354040283529160200191611054565b820191906000526020600020905b81548152906001019060200180831161103757829003601f168201915b5050505050815260200160048201805461106d906132dc565b80601f0160208091040260200160405190810160405280929190818152602001828054611099906132dc565b80156110e65780601f106110bb576101008083540402835291602001916110e6565b820191906000526020600020905b8154815290600101906020018083116110c957829003601f168201915b505050505081526020016005820160009054906101000a900460ff16600281111561111457611113612b13565b5b600281111561112657611125612b13565b5b81526020016005820160019054906101000a900460ff16151515158152602001600682015481526020016007820160009054906101000a900473ffffffffffffffffffffffffffffffffffffffff1673ffffffffffffffffffffffffffffffffffffffff1673ffffffffffffffffffffffffffffffffffffffff16815250509050806000015181602001518260400151836060015184608001518560a0015160028111156111d7576111d6612b13565b5b8660c001518760e001519850985098509850985098509850985050919395975091939597565b6000808311611241576040517f08c379a000000000000000000000000000000000000000000000000000000000815260040161123890613359565b60405180910390fd5b60008511611284576040517f08c379a000000000000000000000000000000000000000000000000000000000815260040161127b906133c5565b60405180910390fd5b60006003600087815260200190815260200160002060000154146112dd576040517f08c379a00000000000000000000000000000000000000000000000000000000081526004016112d490613431565b60405180910390fd5b6040518060800160405280868152602001858152602001848152602001838152506003600087815260200190815260200160002060008201518160000155602082015181600101908161133091906135fd565b5060408201518160020155606082015181600301908161135091906135fd565b50905050849050949350505050565b6000600160003373ffffffffffffffffffffffffffffffffffffffff1673ffffffffffffffffffffffffffffffffffffffff16815260200190815260200160002060009054906101000a900460ff16156113ee576040517f08c379a00000000000000000000000000000000000000000000000000000000081526004016113e590613741565b60405180910390fd5b60008211611431576040517f08c379a000000000000000000000000000000000000000000000000000000000815260040161142890613359565b60405180910390fd5b60008411611474576040517f08c379a000000000000000000000000000000000000000000000000000000000815260040161146b906133c5565b60405180910390fd5b600080600086815260200190815260200160002060000154146114cc576040517f08c379a00000000000000000000000000000000000000000000000000000000081526004016114c3906137ad565b60405180910390fd5b6040518060a00160405280858152602001848152602001838152602001600081526020013373ffffffffffffffffffffffffffffffffffffffff1681525060008086815260200190815260200160002060008201518160000155602082015181600101908161153b91906135fd565b50604082015181600201556060820151816003015560808201518160040160006101000a81548173ffffffffffffffffffffffffffffffffffffffff021916908373ffffffffffffffffffffffffffffffffffffffff160217905550905050600684908060018154018082558091505060019003906000526020600020016000909190919091505560018060003373ffffffffffffffffffffffffffffffffffffffff1673ffffffffffffffffffffffffffffffffffffffff16815260200190815260200160002060006101000a81548160ff0219169083151502179055508390509392505050565b600080600260003373ffffffffffffffffffffffffffffffffffffffff1673ffffffffffffffffffffffffffffffffffffffff16815260200190815260200160002054146116a7576040517f08c379a000000000000000000000000000000000000000000000000000000000815260040161169e9061383f565b60405180910390fd5b600086116116ea576040517f08c379a00000000000000000000000000000000000000000000000000000000081526004016116e190613359565b60405180910390fd5b6000881161172d576040517f08c379a0000000000000000000000000000000000000000000000000000000008152600401611724906133c5565b60405180910390fd5b6000600460008a81526020019081526020016000206000015414611786576040517f08c379a000000000000000000000000000000000000000000000000000000000815260040161177d906138ab565b60405180910390fd5b60028311156117ca576040517f08c379a00000000000000000000000000000000000000000000000000000000081526004016117c190612a61565b60405180910390fd5b60405180610120016040528089815260200188815260200187815260200186815260200185815260200184600281111561180757611806612b13565b5b600281111561181957611818612b13565b5b81526020018315158152602001678ac7230489e8000081526020013373ffffffffffffffffffffffffffffffffffffffff16815250600460008a815260200190815260200160002060008201518160000155602082015181600101908161188091906135fd565b506040820151816002015560608201518160030190816118a091906135fd565b5060808201518160040190816118b691906135fd565b5060a08201518160050160006101000a81548160ff021916908360028111156118e2576118e1612b13565b5b021790555060c08201518160050160016101000a81548160ff02191690831515021790555060e082015181600601556101008201518160070160006101000a81548173ffffffffffffffffffffffffffffffffffffffff021916908373ffffffffffffffffffffffffffffffffffffffff16021790555090505087600260003373ffffffffffffffffffffffffffffffffffffffff1673ffffffffffffffffffffffffffffffffffffffff16815260200190815260200160002081905550879050979650505050505050565b6000600260008373ffffffffffffffffffffffffffffffffffffffff1673ffffffffffffffffffffffffffffffffffffffff168152602001908152602001600020549050919050565b6000606080600060649050600080600190505b828111611a8f576000600460008381526020019081526020016000206000015414158015611a685750868051906020012060046000838152602001908152602001600020600401604051611a5e9190613963565b6040518091039020145b15611a7c578180611a7890613073565b9250505b8080611a8790613073565b915050611a0a565b508067ffffffffffffffff811115611aaa57611aa96124b4565b5b604051908082528060200260200182016040528015611ad85781602001602082028036833780820191505090505b5093508067ffffffffffffffff811115611af557611af46124b4565b5b604051908082528060200260200182016040528015611b2857816020015b6060815260200190600190039081611b135790505b509250600080600190505b838111611cab576000600460008381526020019081526020016000206000015414158015611b915750878051906020012060046000838152602001908152602001600020600401604051611b879190613963565b6040518091039020145b15611c98576004600082815260200190815260200160002060000154868381518110611bc057611bbf612f2c565b5b602002602001018181525050600460008281526020019081526020016000206001018054611bed906132dc565b80601f0160208091040260200160405190810160405280929190818152602001828054611c19906132dc565b8015611c665780601f10611c3b57610100808354040283529160200191611c66565b820191906000526020600020905b815481529060010190602001808311611c4957829003601f168201915b5050505050858381518110611c7e57611c7d612f2c565b5b60200260200101819052508180611c9490613073565b9250505b8080611ca390613073565b915050611b33565b5060005b82811015611e27576000600182611cc69190613146565b90505b83811015611e1357868281518110611ce457611ce3612f2c565b5b6020026020010151878281518110611cff57611cfe612f2c565b5b60200260200101511015611e00576000878381518110611d2257611d21612f2c565b5b60200260200101519050878281518110611d3f57611d3e612f2c565b5b6020026020010151888481518110611d5a57611d59612f2c565b5b60200260200101818152505080888381518110611d7a57611d79612f2c565b5b6020026020010181815250506000878481518110611d9b57611d9a612f2c565b5b60200260200101519050878381518110611db857611db7612f2c565b5b6020026020010151888581518110611dd357611dd2612f2c565b5b602002602001018190525080888481518110611df257611df1612f2c565b5b602002602001018190525050505b8080611e0b90613073565b915050611cc9565b508080611e1f90613073565b915050611caf565b508195505050509193909250565b606060008203611e7c576040518060400160405280600181526020017f30000000000000000000000000000000000000000000000000000000000000008152509050611fcf565b600a821015611ebb57816030611e929190613146565b60f81b604051602001611ea59190613a13565b6040516020818303038152906040529050611fcf565b600082905060005b60008214611eed578080611ed690613073565b915050600a82611ee691906130bb565b9150611ec3565b60008167ffffffffffffffff811115611f0957611f086124b4565b5b6040519080825280601f01601f191660200182016040528015611f3b5781602001600182028036833780820191505090505b5090505b60008514611fc857600182611f549190613a39565b9150600a85611f639190612efb565b6030611f6f9190613146565b60f81b818381518110611f8557611f84612f2c565b5b60200101907effffffffffffffffffffffffffffffffffffffffffffffffffffffffffffff1916908160001a905350600a85611fc191906130bb565b9450611f3f565b8093505050505b919050565b6000604051905090565b600080fd5b600080fd5b6000819050919050565b611ffb81611fe8565b811461200657600080fd5b50565b60008135905061201881611ff2565b92915050565b60008115159050919050565b6120338161201e565b811461203e57600080fd5b50565b6000813590506120508161202a565b92915050565b60008060006060848603121561206f5761206e611fde565b5b600061207d86828701612009565b935050602061208e86828701612009565b925050604061209f86828701612041565b9150509250925092565b600080604083850312156120c0576120bf611fde565b5b60006120ce85828601612009565b92505060206120df85828601612009565b9150509250929050565b6120f28161201e565b82525050565b600060208201905061210d60008301846120e9565b92915050565b60006020828403121561212957612128611fde565b5b600061213784828501612009565b91505092915050565b600081519050919050565b600082825260208201905092915050565b6000819050602082019050919050565b61217581611fe8565b82525050565b6000612187838361216c565b60208301905092915050565b6000602082019050919050565b60006121ab82612140565b6121b5818561214b565b93506121c08361215c565b8060005b838110156121f15781516121d8888261217b565b97506121e383612193565b9250506001810190506121c4565b5085935050505092915050565b600081519050919050565b600082825260208201905092915050565b6000819050602082019050919050565b600081519050919050565b600082825260208201905092915050565b60005b83811015612264578082015181840152602081019050612249565b60008484015250505050565b6000601f19601f8301169050919050565b600061228c8261222a565b6122968185612235565b93506122a6818560208601612246565b6122af81612270565b840191505092915050565b60006122c68383612281565b905092915050565b6000602082019050919050565b60006122e6826121fe565b6122f08185612209565b9350836020820285016123028561221a565b8060005b8581101561233e578484038952815161231f85826122ba565b945061232a836122ce565b925060208a01995050600181019050612306565b50829750879550505050505092915050565b6000604082019050818103600083015261236a81856121a0565b9050818103602083015261237e81846122db565b90509392505050565b600060408201905081810360008301526123a181856121a0565b905081810360208301526123b581846121a0565b90509392505050565b6123c781611fe8565b82525050565b600082825260208201905092915050565b60006123e98261222a565b6123f381856123cd565b9350612403818560208601612246565b61240c81612270565b840191505092915050565b60006101008201905061242d600083018b6123be565b818103602083015261243f818a6123de565b905061244e60408301896123be565b818103606083015261246081886123de565b9050818103608083015261247481876123de565b905061248360a08301866123be565b61249060c08301856120e9565b61249d60e08301846123be565b9998505050505050505050565b600080fd5b600080fd5b7f4e487b7100000000000000000000000000000000000000000000000000000000600052604160045260246000fd5b6124ec82612270565b810181811067ffffffffffffffff8211171561250b5761250a6124b4565b5b80604052505050565b600061251e611fd4565b905061252a82826124e3565b919050565b600067ffffffffffffffff82111561254a576125496124b4565b5b61255382612270565b9050602081019050919050565b82818337600083830152505050565b600061258261257d8461252f565b612514565b90508281526020810184848401111561259e5761259d6124af565b5b6125a9848285612560565b509392505050565b600082601f8301126125c6576125c56124aa565b5b81356125d684826020860161256f565b91505092915050565b600080600080608085870312156125f9576125f8611fde565b5b600061260787828801612009565b945050602085013567ffffffffffffffff81111561262857612627611fe3565b5b612634878288016125b1565b935050604061264587828801612009565b925050606085013567ffffffffffffffff81111561266657612665611fe3565b5b612672878288016125b1565b91505092959194509250565b600060208201905061269360008301846123be565b92915050565b6000806000606084860312156126b2576126b1611fde565b5b60006126c086828701612009565b935050602084013567ffffffffffffffff8111156126e1576126e0611fe3565b5b6126ed868287016125b1565b92505060406126fe86828701612009565b9150509250925092565b600080600080600080600060e0888a03121561272757612726611fde565b5b60006127358a828b01612009565b975050602088013567ffffffffffffffff81111561275657612755611fe3565b5b6127628a828b016125b1565b96505060406127738a828b01612009565b955050606088013567ffffffffffffffff81111561279457612793611fe3565b5b6127a08a828b016125b1565b945050608088013567ffffffffffffffff8111156127c1576127c0611fe3565b5b6127cd8a828b016125b1565b93505060a06127de8a828b01612009565b92505060c06127ef8a828b01612041565b91505092959891949750929550565b600073ffffffffffffffffffffffffffffffffffffffff82169050919050565b6000612829826127fe565b9050919050565b6128398161281e565b811461284457600080fd5b50565b60008135905061285681612830565b92915050565b60006020828403121561287257612871611fde565b5b600061288084828501612847565b91505092915050565b60006020828403121561289f5761289e611fde565b5b600082013567ffffffffffffffff8111156128bd576128bc611fe3565b5b6128c9848285016125b1565b91505092915050565b60006060820190506128e760008301866123be565b81810360208301526128f981856121a0565b9050818103604083015261290d81846122db565b9050949350505050565b7f4f6e6c792061646d696e2063616e20706572666f726d2074686973206163746960008201527f6f6e000000000000000000000000000000000000000000000000000000000000602082015250565b60006129736022836123cd565b915061297e82612917565b604082019050919050565b600060208201905081810360008301526129a281612966565b9050919050565b7f5061727469636970616e74206e6f7420666f756e640000000000000000000000600082015250565b60006129df6015836123cd565b91506129ea826129a9565b602082019050919050565b60006020820190508181036000830152612a0e816129d2565b9050919050565b7f496e76616c696420747261696e696e6720696e74657265737400000000000000600082015250565b6000612a4b6019836123cd565b9150612a5682612a15565b602082019050919050565b60006020820190508181036000830152612a7a81612a3e565b9050919050565b7f43616e6e6f74206368616e676520636f6d706c657465642066726f6d2074727560008201527f6520746f2066616c736500000000000000000000000000000000000000000000602082015250565b6000612add602a836123cd565b9150612ae882612a81565b604082019050919050565b60006020820190508181036000830152612b0c81612ad0565b9050919050565b7f4e487b7100000000000000000000000000000000000000000000000000000000600052602160045260246000fd5b7f5374617274696e672076616c69646174696f6e00000000000000000000000000600082015250565b6000612b786013836123cd565b9150612b8382612b42565b602082019050919050565b6000606082019050612ba360008301856123be565b612bb060208301846123be565b8181036040830152612bc181612b6b565b90509392505050565b7f547261696e6572206e6f7420666f756e64000000000000000000000000000000600082015250565b6000612c006011836123cd565b9150612c0b82612bca565b602082019050919050565b60006020820190508181036000830152612c2f81612bf3565b9050919050565b7f4e6f2061646d696e7320617661696c61626c6500000000000000000000000000600082015250565b6000612c6c6013836123cd565b9150612c7782612c36565b602082019050919050565b60006020820190508181036000830152612c9b81612c5f565b9050919050565b7f496e76616c696420736c6f742049440000000000000000000000000000000000600082015250565b6000612cd8600f836123cd565b9150612ce382612ca2565b602082019050919050565b60006020820190508181036000830152612d0781612ccb565b9050919050565b7f536c6f7420697320616c726561647920626f6f6b656400000000000000000000600082015250565b6000612d446016836123cd565b9150612d4f82612d0e565b602082019050919050565b60006020820190508181036000830152612d7381612d37565b9050919050565b7f5061727469636970616e74206e6f742072656769737465726564000000000000600082015250565b6000612db0601a836123cd565b9150612dbb82612d7a565b602082019050919050565b60006020820190508181036000830152612ddf81612da3565b9050919050565b7f56616c69646174696f6e20706173736564000000000000000000000000000000600082015250565b6000612e1c6011836123cd565b9150612e2782612de6565b602082019050919050565b6000606082019050612e4760008301856123be565b612e5460208301846123be565b8181036040830152612e6581612e0f565b90509392505050565b6000819050919050565b612e89612e8482611fe8565b612e6e565b82525050565b6000612e9b8286612e78565b602082019150612eab8285612e78565b602082019150612ebb8284612e78565b602082019150819050949350505050565b7f4e487b7100000000000000000000000000000000000000000000000000000000600052601260045260246000fd5b6000612f0682611fe8565b9150612f1183611fe8565b925082612f2157612f20612ecc565b5b828206905092915050565b7f4e487b7100000000000000000000000000000000000000000000000000000000600052603260045260246000fd5b600081905092915050565b50565b6000612f76600083612f5b565b9150612f8182612f66565b600082019050919050565b6000612f9782612f69565b9150819050919050565b7f5061796d656e74206661696c6564000000000000000000000000000000000000600082015250565b6000612fd7600e836123cd565b9150612fe282612fa1565b602082019050919050565b6000602082019050818103600083015261300681612fca565b9050919050565b600060608201905061302260008301866123be565b61302f60208301856123be565b61303c60408301846123be565b949350505050565b7f4e487b7100000000000000000000000000000000000000000000000000000000600052601160045260246000fd5b600061307e82611fe8565b91507fffffffffffffffffffffffffffffffffffffffffffffffffffffffffffffffff82036130b0576130af613044565b5b600182019050919050565b60006130c682611fe8565b91506130d183611fe8565b9250826130e1576130e0612ecc565b5b828204905092915050565b60006130f782611fe8565b915061310283611fe8565b9250817fffffffffffffffffffffffffffffffffffffffffffffffffffffffffffffffff048311821515161561313b5761313a613044565b5b828202905092915050565b600061315182611fe8565b915061315c83611fe8565b925082820190508082111561317457613173613044565b5b92915050565b600081905092915050565b60006131908261222a565b61319a818561317a565b93506131aa818560208601612246565b80840191505092915050565b7f3a00000000000000000000000000000000000000000000000000000000000000600082015250565b60006131ec60018361317a565b91506131f7826131b6565b600182019050919050565b7f2d00000000000000000000000000000000000000000000000000000000000000600082015250565b600061323860018361317a565b915061324382613202565b600182019050919050565b600061325a8287613185565b9150613265826131df565b91506132718286613185565b915061327c8261322b565b91506132888285613185565b9150613293826131df565b915061329f8284613185565b915081905095945050505050565b7f4e487b7100000000000000000000000000000000000000000000000000000000600052602260045260246000fd5b600060028204905060018216806132f457607f821691505b602082108103613307576133066132ad565b5b50919050565b7f496e76616c696420616765000000000000000000000000000000000000000000600082015250565b6000613343600b836123cd565b915061334e8261330d565b602082019050919050565b6000602082019050818103600083015261337281613336565b9050919050565b7f496e76616c696420494400000000000000000000000000000000000000000000600082015250565b60006133af600a836123cd565b91506133ba82613379565b602082019050919050565b600060208201905081810360008301526133de816133a2565b9050919050565b7f547261696e657220494420616c72656164792065786973747300000000000000600082015250565b600061341b6019836123cd565b9150613426826133e5565b602082019050919050565b6000602082019050818103600083015261344a8161340e565b9050919050565b60008190508160005260206000209050919050565b60006020601f8301049050919050565b600082821b905092915050565b6000600883026134b37fffffffffffffffffffffffffffffffffffffffffffffffffffffffffffffffff82613476565b6134bd8683613476565b95508019841693508086168417925050509392505050565b6000819050919050565b60006134fa6134f56134f084611fe8565b6134d5565b611fe8565b9050919050565b6000819050919050565b613514836134df565b61352861352082613501565b848454613483565b825550505050565b600090565b61353d613530565b61354881848461350b565b505050565b5b8181101561356c57613561600082613535565b60018101905061354e565b5050565b601f8211156135b15761358281613451565b61358b84613466565b8101602085101561359a578190505b6135ae6135a685613466565b83018261354d565b50505b505050565b600082821c905092915050565b60006135d4600019846008026135b6565b1980831691505092915050565b60006135ed83836135c3565b9150826002028217905092915050565b6136068261222a565b67ffffffffffffffff81111561361f5761361e6124b4565b5b61362982546132dc565b613634828285613570565b600060209050601f8311600181146136675760008415613655578287015190505b61365f85826135e1565b8655506136c7565b601f19841661367586613451565b60005b8281101561369d57848901518255600182019150602085019450602081019050613678565b868310156136ba57848901516136b6601f8916826135c3565b8355505b6001600288020188555050505b505050505050565b7f4164647265737320616c7265616479207265676973746572656420617320616460008201527f6d696e0000000000000000000000000000000000000000000000000000000000602082015250565b600061372b6023836123cd565b9150613736826136cf565b604082019050919050565b6000602082019050818103600083015261375a8161371e565b9050919050565b7f41646d696e20494420616c726561647920657869737473000000000000000000600082015250565b60006137976017836123cd565b91506137a282613761565b602082019050919050565b600060208201905081810360008301526137c68161378a565b9050919050565b7f4164647265737320616c7265616479207265676973746572656420617320706160008201527f727469636970616e740000000000000000000000000000000000000000000000602082015250565b60006138296029836123cd565b9150613834826137cd565b604082019050919050565b600060208201905081810360008301526138588161381c565b9050919050565b7f5061727469636970616e7420494420616c726561647920657869737473000000600082015250565b6000613895601d836123cd565b91506138a08261385f565b602082019050919050565b600060208201905081810360008301526138c481613888565b9050919050565b60008190508160005260206000209050919050565b600081546138ed816132dc565b6138f78186612f5b565b9450600182166000811461391257600181146139275761395a565b60ff198316865281151582028601935061395a565b613930856138cb565b60005b8381101561395257815481890152600182019150602081019050613933565b838801955050505b50505092915050565b600061396f82846138e0565b915081905092915050565b7f3000000000000000000000000000000000000000000000000000000000000000600082015250565b60006139b060018361317a565b91506139bb8261397a565b600182019050919050565b60007fff0000000000000000000000000000000000000000000000000000000000000082169050919050565b6000819050919050565b613a0d613a08826139c6565b6139f2565b82525050565b6000613a1e826139a3565b9150613a2a82846139fc565b60018201915081905092915050565b6000613a4482611fe8565b9150613a4f83611fe8565b9250828203905081811115613a6757613a66613044565b5b9291505056fea2646970667358221220e10b1912af1358c250f18aed667c7acb101be1efd7be49127a6812bab64e25de64736f6c63430008100033",
  "immutableReferences": {},
  "source": "// SPDX-License-Identifier: UNLICENSED\npragma solidity ^0.8.0;\n\ncontract DisasterRecoveryTraining {\n    enum TrainingType { first_aid, shelter_rebuild, food_safety }\n    struct Admin {\n        uint256 id;\n        string name;\n        uint256 age;\n        uint256 balance;\n        address admin_address;\n    }\n    \n    struct Trainer {\n        uint256 id;\n        string name;\n        uint256 age;\n        string gender;\n    }\n    \n    struct Participant {\n        uint256 id;\n        string name;\n        uint256 age;\n        string gender;\n        string district;\n        TrainingType training_interest;\n        bool has_completed_training;\n        uint256 balance;\n        address account_address;\n    }\n    \n    struct TrainingSlot {\n        uint256 slotId;\n        uint256 trainerId;\n        uint256 participantId;\n        bool isBooked;\n    }\n\n    // Events for debugging\n    event BookingAttempt(address indexed participant, uint256 trainerId, uint256 slotId, string status);\n    event BookingSuccess(address indexed participant, uint256 trainerId, uint256 slotId, uint256 participantId);\n\n    uint256 private constant TOTAL_SLOTS_PER_DAY = 48;\n    uint256 private constant BOOKING_FEE = 1 ether;\n    uint256 private constant INITIAL_PARTICIPANT_BALANCE = 10 ether;\n\n    mapping(uint256 => Admin) private admins;\n    mapping(address => bool) private isAdmin;\n    mapping(address => uint256) private participantByAddress;\n    mapping(uint256 => Trainer) private trainers;\n    mapping(uint256 => Participant) private participants;\n    mapping(uint256 => mapping(uint256 => TrainingSlot)) private trainerSlots;\n    uint256[] private adminIds;\n    \n    modifier onlyAdmin() {\n        require(isAdmin[msg.sender], \"Only admin can perform this action\");\n        _;\n    }\n    \n    function registerAdmin(uint256 id, string memory name, uint256 age) external returns (uint256) {\n        require(!isAdmin[msg.sender], \"Address already registered as admin\");\n        require(age > 0, \"Invalid age\");\n        require(id > 0, \"Invalid ID\");\n        require(admins[id].id == 0, \"Admin ID already exists\");\n        \n        admins[id] = Admin(id, name, age, 0, msg.sender);\n        adminIds.push(id);\n        isAdmin[msg.sender] = true;\n        return id;\n    }\n    \n    function registerTrainer(uint256 id, string memory name, uint256 age, string memory gender) external returns (uint256) {\n        require(age > 0, \"Invalid age\");\n        require(id > 0, \"Invalid ID\");\n        require(trainers[id].id == 0, \"Trainer ID already exists\");\n        \n        trainers[id] = Trainer(id, name, age, gender);\n        return id;\n    }\n    \n    function registerParticipant(\n        uint256 id,\n        string memory name,\n        uint256 age,\n        string memory gender,\n        string memory district,\n        uint256 training_interest,\n        bool has_completed_training\n    ) external returns (uint256) {\n        require(participantByAddress[msg.sender] == 0, \"Address already registered as participant\");\n        require(age > 0, \"Invalid age\");\n        require(id > 0, \"Invalid ID\");\n        require(participants[id].id == 0, \"Participant ID already exists\");\n        require(training_interest <= 2, \"Invalid training interest\");\n        \n        participants[id] = Participant(\n            id,\n            name,\n            age,\n            gender,\n            district,\n            TrainingType(training_interest),\n            has_completed_training,\n            INITIAL_PARTICIPANT_BALANCE,\n            msg.sender\n        );\n\n        participantByAddress[msg.sender] = id;\n\n        return id;\n    }\n    \n    function updateParticipantData(uint256 participantId, uint256 newTrainingInterest, bool has_completed_training) external onlyAdmin {\n        require(participants[participantId].id != 0, \"Participant not found\");\n        require(newTrainingInterest <= 2, \"Invalid training interest\");\n        \n        Participant storage p = participants[participantId];\n        require(!p.has_completed_training || has_completed_training, \"Cannot change completed from true to false\");\n        \n        // admin only access\n        // require(isAdmin[msg.sender], \"Not Authorized\");\n        p.training_interest = TrainingType(newTrainingInterest);\n        p.has_completed_training = has_completed_training;\n    }\n    \n    function bookTrainingSlot(uint256 trainerId, uint256 slotId) external payable returns (bool) {\n        emit BookingAttempt(msg.sender, trainerId, slotId, \"Starting validation\");\n        \n        require(trainers[trainerId].id != 0, \"Trainer not found\");\n        require(adminIds.length > 0, \"No admins available\");\n        require(slotId < TOTAL_SLOTS_PER_DAY, \"Invalid slot ID\");\n        require(!trainerSlots[trainerId][slotId].isBooked, \"Slot is already booked\");\n        // require(msg.value == BOOKING_FEE, \"Send exact booking fee\");\n\n        // Get participant ID from sender address\n        uint256 participantId = participantByAddress[msg.sender];\n        require(participantId != 0, \"Participant not registered\");\n        \n        emit BookingAttempt(msg.sender, trainerId, slotId, \"Validation passed\");\n        \n        // Book the slot\n        trainerSlots[trainerId][slotId] = TrainingSlot(slotId, trainerId, participantId, true);\n\n        // Randomly select an admin to receive the payment\n        uint256 randomIndex = uint256(keccak256(abi.encodePacked(block.timestamp, block.difficulty, participantId))) % adminIds.length;\n        uint256 selectedAdminId = adminIds[randomIndex];\n        (bool success, ) = payable(admins[selectedAdminId].admin_address).call{value: msg.value}(\"\");\n        require(success, \"Payment failed\");\n        \n        emit BookingSuccess(msg.sender, trainerId, slotId, participantId);\n        // participants[participantId].balance -= BOOKING_FEE;\n        // admins[selectedAdminId].balance += BOOKING_FEE;\n        \n        return true;\n    }\n\n    //     function findParticipantByAddress(address addr) internal view returns (uint256) {\n    //     for (uint256 i = 1; i <= 100; i++) { // adjust max range\n    //         if (participants[i].id != 0 && participants[i].account_address == addr) {\n    //             return participants[i].id;\n    //         }\n    //     }\n    //     return 0;\n    // }\n    \n    // Add this function to check if an address is registered as a participant\n    function getParticipantIdByAddress(address addr) external view returns (uint256) {\n        return participantByAddress[addr];\n    }\n    \n    function viewAdminBalance() external view returns (\n        uint256[] memory adminIdList,\n        uint256[] memory balanceList\n    ) {\n        uint256 totalAdmins = adminIds.length;\n\n        adminIdList = new uint256[](totalAdmins);\n        balanceList = new uint256[](totalAdmins);\n\n        for (uint256 i = 0; i < totalAdmins; i++) {\n            uint256 adminId = adminIds[i];\n            adminIdList[i] = adminId;\n            // Return balances in whole ETH units for display, based on actual address balance\n            balanceList[i] = admins[adminId].admin_address.balance / 1 ether;\n        }\n\n        return (adminIdList, balanceList);\n    }\n    \n    function viewParticipantData(uint256 participantId) external view returns (\n        uint256 id,\n        string memory name,\n        uint256 age,\n        string memory gender,\n        string memory district,\n        uint256 training_interest,\n        bool has_completed_training,\n        uint256 balance\n    ) {\n        require(participants[participantId].id != 0, \"Participant not found\");\n        \n        Participant memory p = participants[participantId];\n        return (\n            p.id,\n            p.name,\n            p.age,\n            p.gender,\n            p.district,\n            uint256(p.training_interest),\n            p.has_completed_training,\n            p.balance\n        );\n    }\n\n    function _toString(uint256 value) internal pure returns (string memory) {\n        if (value == 0) return \"0\";\n        if (value < 10) return string(abi.encodePacked(\"0\", bytes1(uint8(48 + value))));\n        \n        uint256 temp = value;\n        uint256 digits;\n        while (temp != 0) {\n            digits++;\n            temp /= 10;\n        }\n        bytes memory buffer = new bytes(digits);\n        while (value != 0) {\n            digits -= 1;\n            buffer[digits] = bytes1(uint8(48 + uint256(value % 10)));\n            value /= 10;\n        }\n        return string(buffer);\n    }\n\n    function viewTrainerSchedule(uint256 trainerId) external view returns (\n        uint256[] memory availableSlots,\n        string[] memory timeRanges\n    ) {\n        require(trainers[trainerId].id != 0, \"Trainer not found\");\n        uint256 availableCount = 0;\n        for (uint256 i = 0; i < TOTAL_SLOTS_PER_DAY; i++) {\n            if (!trainerSlots[trainerId][i].isBooked) {\n                availableCount++;\n            }\n        }\n        availableSlots = new uint256[](availableCount);\n        timeRanges = new string[](availableCount);\n        uint256 index = 0;\n        \n        for (uint256 i = 0; i < TOTAL_SLOTS_PER_DAY; i++) {\n            if (!trainerSlots[trainerId][i].isBooked) {\n                availableSlots[index] = i;\n                uint256 startHour = i / 2;\n                uint256 startMinute = (i % 2) * 30;\n                uint256 endHour = startHour;\n                uint256 endMinute = startMinute + 30;\n                \n                if (endMinute == 60) {\n                    endHour++;\n                    endMinute = 0;\n                }\n                timeRanges[index] = string(abi.encodePacked(\n                    _toString(startHour), \":\", \n                    startMinute == 0 ? \"00\" : \"30\", \n                    \"-\",\n                    _toString(endHour), \":\",\n                    endMinute == 0 ? \"00\" : \"30\"\n                ));\n                \n                index++;\n            }\n        }\n        \n        return (availableSlots, timeRanges);\n    }\n\n//  Search participants by district  returns total count + sorted IDs + names\nfunction searchParticipantsByDistrict(\n    string memory district\n) external view returns (\n    uint256 totalInDistrict,            // total participants in the district\n    uint256[] memory participantIdsSorted, // sorted list of IDs\n    string[] memory participantNamesSorted // names aligned with IDs\n) {\n    uint256 maxIds = 100; // upper bound, adjust as needed\n    uint256 matchCount = 0;\n\n    // 1 Count matches in the given district\n    for (uint256 i = 1; i <= maxIds; i++) {\n        if (\n            participants[i].id != 0 &&\n            keccak256(bytes(participants[i].district)) == keccak256(bytes(district))\n        ) {\n            matchCount++;\n        }\n    }\n\n    // 2 Collect IDs and names of participants in that district\n    participantIdsSorted = new uint256[](matchCount);\n    participantNamesSorted = new string[](matchCount);\n    uint256 idx = 0;\n\n    for (uint256 i = 1; i <= maxIds; i++) {\n        if (\n            participants[i].id != 0 &&\n            keccak256(bytes(participants[i].district)) == keccak256(bytes(district))\n        ) {\n            participantIdsSorted[idx] = participants[i].id;\n            participantNamesSorted[idx] = participants[i].name;\n            idx++;\n        }\n    }\n\n    // 3 Sort IDs (ascending) and keep names aligned\n    for (uint256 i = 0; i < matchCount; i++) {\n        for (uint256 j = i + 1; j < matchCount; j++) {\n            if (participantIdsSorted[j] < participantIdsSorted[i]) {\n                // swap IDs\n                uint256 tempId = participantIdsSorted[i];\n                participantIdsSorted[i] = participantIdsSorted[j];\n                participantIdsSorted[j] = tempId;\n\n                // swap names so they stay aligned\n                string memory tempName = participantNamesSorted[i];\n                participantNamesSorted[i] = participantNamesSorted[j];\n                participantNamesSorted[j] = tempName;\n            }\n        }\n    }\n\n    // 4 Return total count, sorted IDs, and aligned names\n    totalInDistrict = matchCount;\n}\n\n}",
  "sourcePath": "/home/calypse/baDApp/contracts/DisasterRecoveryTraining.sol",
  "compiler": {
    "name": "solc",
    "version": "0.8.16+commit.07a7930e.Emscripten.clang"
  },
  "schemaVersion": "3.4.16",
  "updatedAt": "2025-08-26T05:00:30.686Z",
  "networkType": "ethereum",
  "devdoc": {
    "kind": "dev",
    "methods": {},
    "version": 1
  },
  "userdoc": {
    "kind": "user",
    "methods": {},
    "version": 1
  }
}