{
  "contractName": "DisasterRecoveryTraining",
  "abi": [
    {
      "inputs": [
        {
          "internalType": "uint256",
          "name": "id",
          "type": "uint256"
        },
        {
          "internalType": "string",
          "name": "name",
          "type": "string"
        },
        {
          "internalType": "uint256",
          "name": "age",
          "type": "uint256"
        }
      ],
      "name": "registerAdmin",
      "outputs": [
        {
          "internalType": "uint256",
          "name": "",
          "type": "uint256"
        }
      ],
      "stateMutability": "nonpayable",
      "type": "function"
    },
    {
      "inputs": [
        {
          "internalType": "uint256",
          "name": "id",
          "type": "uint256"
        },
        {
          "internalType": "string",
          "name": "name",
          "type": "string"
        },
        {
          "internalType": "uint256",
          "name": "age",
          "type": "uint256"
        },
        {
          "internalType": "string",
          "name": "gender",
          "type": "string"
        }
      ],
      "name": "registerTrainer",
      "outputs": [
        {
          "internalType": "uint256",
          "name": "",
          "type": "uint256"
        }
      ],
      "stateMutability": "nonpayable",
      "type": "function"
    },
    {
      "inputs": [
        {
          "internalType": "uint256",
          "name": "id",
          "type": "uint256"
        },
        {
          "internalType": "string",
          "name": "name",
          "type": "string"
        },
        {
          "internalType": "uint256",
          "name": "age",
          "type": "uint256"
        },
        {
          "internalType": "string",
          "name": "gender",
          "type": "string"
        },
        {
          "internalType": "string",
          "name": "district",
          "type": "string"
        },
        {
          "internalType": "uint256",
          "name": "training_interest",
          "type": "uint256"
        },
        {
          "internalType": "bool",
          "name": "has_completed_training",
          "type": "bool"
        }
      ],
      "name": "registerParticipant",
      "outputs": [
        {
          "internalType": "uint256",
          "name": "",
          "type": "uint256"
        }
      ],
      "stateMutability": "nonpayable",
      "type": "function"
    },
    {
      "inputs": [
        {
          "internalType": "uint256",
          "name": "participantId",
          "type": "uint256"
        },
        {
          "internalType": "uint256",
          "name": "newTrainingInterest",
          "type": "uint256"
        },
        {
          "internalType": "bool",
          "name": "has_completed_training",
          "type": "bool"
        }
      ],
      "name": "updateParticipantData",
      "outputs": [],
      "stateMutability": "nonpayable",
      "type": "function"
    },
    {
      "inputs": [
        {
          "internalType": "uint256",
          "name": "trainerId",
          "type": "uint256"
        },
        {
          "internalType": "uint256",
          "name": "slotId",
          "type": "uint256"
        }
      ],
      "name": "bookTrainingSlot",
      "outputs": [
        {
          "internalType": "bool",
          "name": "",
          "type": "bool"
        }
      ],
      "stateMutability": "payable",
      "type": "function",
      "payable": true
    },
    {
      "inputs": [
        {
          "internalType": "uint256",
          "name": "participantId",
          "type": "uint256"
        }
      ],
      "name": "viewParticipantData",
      "outputs": [
        {
          "internalType": "uint256",
          "name": "id",
          "type": "uint256"
        },
        {
          "internalType": "string",
          "name": "name",
          "type": "string"
        },
        {
          "internalType": "uint256",
          "name": "age",
          "type": "uint256"
        },
        {
          "internalType": "string",
          "name": "gender",
          "type": "string"
        },
        {
          "internalType": "string",
          "name": "district",
          "type": "string"
        },
        {
          "internalType": "uint256",
          "name": "training_interest",
          "type": "uint256"
        },
        {
          "internalType": "bool",
          "name": "has_completed_training",
          "type": "bool"
        },
        {
          "internalType": "uint256",
          "name": "balance",
          "type": "uint256"
        }
      ],
      "stateMutability": "view",
      "type": "function",
      "constant": true
    },
    {
      "inputs": [
        {
          "internalType": "uint256",
          "name": "trainerId",
          "type": "uint256"
        }
      ],
      "name": "viewTrainerSchedule",
      "outputs": [
        {
          "internalType": "uint256[]",
          "name": "availableSlots",
          "type": "uint256[]"
        },
        {
          "internalType": "string[]",
          "name": "timeRanges",
          "type": "string[]"
        }
      ],
      "stateMutability": "view",
      "type": "function",
      "constant": true
    },
    {
      "inputs": [
        {
          "internalType": "string",
          "name": "district",
          "type": "string"
        }
      ],
      "name": "searchParticipantsByDistrict",
      "outputs": [
        {
          "internalType": "uint256",
          "name": "totalInDistrict",
          "type": "uint256"
        },
        {
          "internalType": "uint256[]",
          "name": "participantIdsSorted",
          "type": "uint256[]"
        },
        {
          "internalType": "string[]",
          "name": "participantNamesSorted",
          "type": "string[]"
        }
      ],
      "stateMutability": "view",
      "type": "function",
      "constant": true
    }
  ],
  "bytecode": "0x608060405234801561001057600080fd5b5061340a806100206000396000f3fe60806040526004361061007b5760003560e01c80636c80cd331161004e5780636c80cd331461015b578063710e2aba14610198578063a30b027b146101d5578063d45b1a39146102125761007b565b80633a7002e1146100805780634efbbb1b146100a957806351eca4dd146100d95780635ffc80f214610117575b600080fd5b34801561008c57600080fd5b506100a760048036038101906100a29190611cb9565b610251565b005b6100c360048036038101906100be9190611d0c565b6104d7565b6040516100d09190611d5b565b60405180910390f35b3480156100e557600080fd5b5061010060048036038101906100fb9190611d76565b6108c1565b60405161010e929190611fb3565b60405180910390f35b34801561012357600080fd5b5061013e60048036038101906101399190611d76565b610c5a565b604051610152989796959493929190612043565b60405180910390f35b34801561016757600080fd5b50610182600480360381019061017d919061220b565b610fb9565b60405161018f91906122aa565b60405180910390f35b3480156101a457600080fd5b506101bf60048036038101906101ba91906122c5565b61111b565b6040516101cc91906122aa565b60405180910390f35b3480156101e157600080fd5b506101fc60048036038101906101f79190612334565b611352565b60405161020991906122aa565b60405180910390f35b34801561021e57600080fd5b506102396004803603810190610234919061242a565b61165a565b60405161024893929190612473565b60405180910390f35b600160003373ffffffffffffffffffffffffffffffffffffffff1673ffffffffffffffffffffffffffffffffffffffff16815260200190815260200160002060009054906101000a900460ff166102dd576040517f08c379a00000000000000000000000000000000000000000000000000000000081526004016102d49061252a565b60405180910390fd5b6000600460008581526020019081526020016000206000015403610336576040517f08c379a000000000000000000000000000000000000000000000000000000000815260040161032d90612596565b60405180910390fd5b600282111561037a576040517f08c379a000000000000000000000000000000000000000000000000000000000815260040161037190612602565b60405180910390fd5b60006004600085815260200190815260200160002090508060050160019054906101000a900460ff1615806103ac5750815b6103eb576040517f08c379a00000000000000000000000000000000000000000000000000000000081526004016103e290612694565b60405180910390fd5b600160003373ffffffffffffffffffffffffffffffffffffffff1673ffffffffffffffffffffffffffffffffffffffff16815260200190815260200160002060009054906101000a900460ff16610477576040517f08c379a000000000000000000000000000000000000000000000000000000000815260040161046e90612700565b60405180910390fd5b82600281111561048a57610489612720565b5b8160050160006101000a81548160ff021916908360028111156104b0576104af612720565b5b0217905550818160050160016101000a81548160ff02191690831515021790555050505050565b600080600360008581526020019081526020016000206000015403610531576040517f08c379a00000000000000000000000000000000000000000000000000000000081526004016105289061279b565b60405180910390fd5b600060068054905011610579576040517f08c379a000000000000000000000000000000000000000000000000000000000815260040161057090612807565b60405180910390fd5b603082106105bc576040517f08c379a00000000000000000000000000000000000000000000000000000000081526004016105b390612873565b60405180910390fd5b60056000848152602001908152602001600020600083815260200190815260200160002060030160009054906101000a900460ff1615610631576040517f08c379a0000000000000000000000000000000000000000000000000000000008152600401610628906128df565b60405180910390fd5b600060068054905011610679576040517f08c379a000000000000000000000000000000000000000000000000000000000815260040161067090612807565b60405180910390fd5b670de0b6b3a764000034146106c3576040517f08c379a00000000000000000000000000000000000000000000000000000000081526004016106ba9061294b565b60405180910390fd5b6000600260003373ffffffffffffffffffffffffffffffffffffffff1673ffffffffffffffffffffffffffffffffffffffff1681526020019081526020016000205490506000810361074a576040517f08c379a0000000000000000000000000000000000000000000000000000000008152600401610741906129b7565b60405180910390fd5b60405180608001604052808481526020018581526020018281526020016001151581525060056000868152602001908152602001600020600085815260200190815260200160002060008201518160000155602082015181600101556040820151816002015560608201518160030160006101000a81548160ff02191690831515021790555090505060006006805490504244846040516020016107f0939291906129f8565b6040516020818303038152906040528051906020012060001c6108139190612a64565b905060006006828154811061082b5761082a612a95565b5b9060005260206000200154905060008082815260200190815260200160002060040160009054906101000a900473ffffffffffffffffffffffffffffffffffffffff1673ffffffffffffffffffffffffffffffffffffffff166108fc349081150290604051600060405180830381858888f193505050501580156108b3573d6000803e3d6000fd5b506001935050505092915050565b606080600060036000858152602001908152602001600020600001540361091d576040517f08c379a00000000000000000000000000000000000000000000000000000000081526004016109149061279b565b60405180910390fd5b6000805b60308110156109855760056000868152602001908152602001600020600082815260200190815260200160002060030160009054906101000a900460ff1661097257818061096e90612af3565b9250505b808061097d90612af3565b915050610921565b508067ffffffffffffffff8111156109a05761099f6120e0565b5b6040519080825280602002602001820160405280156109ce5781602001602082028036833780820191505090505b5092508067ffffffffffffffff8111156109eb576109ea6120e0565b5b604051908082528060200260200182016040528015610a1e57816020015b6060815260200190600190039081610a095790505b5091506000805b6030811015610c525760056000878152602001908152602001600020600082815260200190815260200160002060030160009054906101000a900460ff16610c3f5780858381518110610a7b57610a7a612a95565b5b6020026020010181815250506000600282610a969190612b3b565b90506000601e600284610aa99190612a64565b610ab39190612b6c565b905060008290506000601e83610ac99190612bc6565b9050603c8103610ae6578180610ade90612af3565b925050600090505b610aef84611a98565b60008414610b32576040518060400160405280600281526020017f3330000000000000000000000000000000000000000000000000000000000000815250610b69565b6040518060400160405280600281526020017f30300000000000000000000000000000000000000000000000000000000000008152505b610b7284611a98565b60008414610bb5576040518060400160405280600281526020017f3330000000000000000000000000000000000000000000000000000000000000815250610bec565b6040518060400160405280600281526020017f30300000000000000000000000000000000000000000000000000000000000008152505b604051602001610bff9493929190612cce565b604051602081830303815290604052888781518110610c2157610c20612a95565b5b60200260200101819052508580610c3790612af3565b965050505050505b8080610c4a90612af3565b915050610a25565b505050915091565b600060606000606080600080600080600460008b81526020019081526020016000206000015403610cc0576040517f08c379a0000000000000000000000000000000000000000000000000000000008152600401610cb790612596565b60405180910390fd5b6000600460008b81526020019081526020016000206040518061012001604052908160008201548152602001600182018054610cfb90612d5c565b80601f0160208091040260200160405190810160405280929190818152602001828054610d2790612d5c565b8015610d745780601f10610d4957610100808354040283529160200191610d74565b820191906000526020600020905b815481529060010190602001808311610d5757829003601f168201915b5050505050815260200160028201548152602001600382018054610d9790612d5c565b80601f0160208091040260200160405190810160405280929190818152602001828054610dc390612d5c565b8015610e105780601f10610de557610100808354040283529160200191610e10565b820191906000526020600020905b815481529060010190602001808311610df357829003601f168201915b50505050508152602001600482018054610e2990612d5c565b80601f0160208091040260200160405190810160405280929190818152602001828054610e5590612d5c565b8015610ea25780601f10610e7757610100808354040283529160200191610ea2565b820191906000526020600020905b815481529060010190602001808311610e8557829003601f168201915b505050505081526020016005820160009054906101000a900460ff166002811115610ed057610ecf612720565b5b6002811115610ee257610ee1612720565b5b81526020016005820160019054906101000a900460ff16151515158152602001600682015481526020016007820160009054906101000a900473ffffffffffffffffffffffffffffffffffffffff1673ffffffffffffffffffffffffffffffffffffffff1673ffffffffffffffffffffffffffffffffffffffff16815250509050806000015181602001518260400151836060015184608001518560a001516002811115610f9357610f92612720565b5b8660c001518760e001519850985098509850985098509850985050919395975091939597565b6000808311610ffd576040517f08c379a0000000000000000000000000000000000000000000000000000000008152600401610ff490612dd9565b60405180910390fd5b60008511611040576040517f08c379a000000000000000000000000000000000000000000000000000000000815260040161103790612e45565b60405180910390fd5b6000600360008781526020019081526020016000206000015414611099576040517f08c379a000000000000000000000000000000000000000000000000000000000815260040161109090612eb1565b60405180910390fd5b604051806080016040528086815260200185815260200184815260200183815250600360008781526020019081526020016000206000820151816000015560208201518160010190816110ec919061307d565b5060408201518160020155606082015181600301908161110c919061307d565b50905050849050949350505050565b600080821161115f576040517f08c379a000000000000000000000000000000000000000000000000000000000815260040161115690612dd9565b60405180910390fd5b600084116111a2576040517f08c379a000000000000000000000000000000000000000000000000000000000815260040161119990612e45565b60405180910390fd5b600080600086815260200190815260200160002060000154146111fa576040517f08c379a00000000000000000000000000000000000000000000000000000000081526004016111f19061319b565b60405180910390fd5b6040518060a00160405280858152602001848152602001838152602001600081526020013373ffffffffffffffffffffffffffffffffffffffff16815250600080868152602001908152602001600020600082015181600001556020820151816001019081611269919061307d565b50604082015181600201556060820151816003015560808201518160040160006101000a81548173ffffffffffffffffffffffffffffffffffffffff021916908373ffffffffffffffffffffffffffffffffffffffff160217905550905050600684908060018154018082558091505060019003906000526020600020016000909190919091505560018060003373ffffffffffffffffffffffffffffffffffffffff1673ffffffffffffffffffffffffffffffffffffffff16815260200190815260200160002060006101000a81548160ff0219169083151502179055508390509392505050565b6000808611611396576040517f08c379a000000000000000000000000000000000000000000000000000000000815260040161138d90612dd9565b60405180910390fd5b600088116113d9576040517f08c379a00000000000000000000000000000000000000000000000000000000081526004016113d090612e45565b60405180910390fd5b6000600460008a81526020019081526020016000206000015414611432576040517f08c379a000000000000000000000000000000000000000000000000000000000815260040161142990613207565b60405180910390fd5b6002831115611476576040517f08c379a000000000000000000000000000000000000000000000000000000000815260040161146d90612602565b60405180910390fd5b6040518061012001604052808981526020018881526020018781526020018681526020018581526020018460028111156114b3576114b2612720565b5b60028111156114c5576114c4612720565b5b81526020018315158152602001678ac7230489e8000081526020013373ffffffffffffffffffffffffffffffffffffffff16815250600460008a815260200190815260200160002060008201518160000155602082015181600101908161152c919061307d565b5060408201518160020155606082015181600301908161154c919061307d565b506080820151816004019081611562919061307d565b5060a08201518160050160006101000a81548160ff0219169083600281111561158e5761158d612720565b5b021790555060c08201518160050160016101000a81548160ff02191690831515021790555060e082015181600601556101008201518160070160006101000a81548173ffffffffffffffffffffffffffffffffffffffff021916908373ffffffffffffffffffffffffffffffffffffffff16021790555090505087600260003373ffffffffffffffffffffffffffffffffffffffff1673ffffffffffffffffffffffffffffffffffffffff16815260200190815260200160002081905550879050979650505050505050565b6000606080600060649050600080600190505b8281116116f25760006004600083815260200190815260200160002060000154141580156116cb57508680519060200120600460008381526020019081526020016000206004016040516116c191906132ca565b6040518091039020145b156116df5781806116db90612af3565b9250505b80806116ea90612af3565b91505061166d565b508067ffffffffffffffff81111561170d5761170c6120e0565b5b60405190808252806020026020018201604052801561173b5781602001602082028036833780820191505090505b5093508067ffffffffffffffff811115611758576117576120e0565b5b60405190808252806020026020018201604052801561178b57816020015b60608152602001906001900390816117765790505b509250600080600190505b83811161190e5760006004600083815260200190815260200160002060000154141580156117f457508780519060200120600460008381526020019081526020016000206004016040516117ea91906132ca565b6040518091039020145b156118fb57600460008281526020019081526020016000206000015486838151811061182357611822612a95565b5b60200260200101818152505060046000828152602001908152602001600020600101805461185090612d5c565b80601f016020809104026020016040519081016040528092919081815260200182805461187c90612d5c565b80156118c95780601f1061189e576101008083540402835291602001916118c9565b820191906000526020600020905b8154815290600101906020018083116118ac57829003601f168201915b50505050508583815181106118e1576118e0612a95565b5b602002602001018190525081806118f790612af3565b9250505b808061190690612af3565b915050611796565b5060005b82811015611a8a5760006001826119299190612bc6565b90505b83811015611a765786828151811061194757611946612a95565b5b602002602001015187828151811061196257611961612a95565b5b60200260200101511015611a6357600087838151811061198557611984612a95565b5b602002602001015190508782815181106119a2576119a1612a95565b5b60200260200101518884815181106119bd576119bc612a95565b5b602002602001018181525050808883815181106119dd576119dc612a95565b5b60200260200101818152505060008784815181106119fe576119fd612a95565b5b60200260200101519050878381518110611a1b57611a1a612a95565b5b6020026020010151888581518110611a3657611a35612a95565b5b602002602001018190525080888481518110611a5557611a54612a95565b5b602002602001018190525050505b8080611a6e90612af3565b91505061192c565b508080611a8290612af3565b915050611912565b508195505050509193909250565b606060008203611adf576040518060400160405280600181526020017f30000000000000000000000000000000000000000000000000000000000000008152509050611c32565b600a821015611b1e57816030611af59190612bc6565b60f81b604051602001611b08919061337a565b6040516020818303038152906040529050611c32565b600082905060005b60008214611b50578080611b3990612af3565b915050600a82611b499190612b3b565b9150611b26565b60008167ffffffffffffffff811115611b6c57611b6b6120e0565b5b6040519080825280601f01601f191660200182016040528015611b9e5781602001600182028036833780820191505090505b5090505b60008514611c2b57600182611bb791906133a0565b9150600a85611bc69190612a64565b6030611bd29190612bc6565b60f81b818381518110611be857611be7612a95565b5b60200101907effffffffffffffffffffffffffffffffffffffffffffffffffffffffffffff1916908160001a905350600a85611c249190612b3b565b9450611ba2565b8093505050505b919050565b6000604051905090565b600080fd5b600080fd5b6000819050919050565b611c5e81611c4b565b8114611c6957600080fd5b50565b600081359050611c7b81611c55565b92915050565b60008115159050919050565b611c9681611c81565b8114611ca157600080fd5b50565b600081359050611cb381611c8d565b92915050565b600080600060608486031215611cd257611cd1611c41565b5b6000611ce086828701611c6c565b9350506020611cf186828701611c6c565b9250506040611d0286828701611ca4565b9150509250925092565b60008060408385031215611d2357611d22611c41565b5b6000611d3185828601611c6c565b9250506020611d4285828601611c6c565b9150509250929050565b611d5581611c81565b82525050565b6000602082019050611d706000830184611d4c565b92915050565b600060208284031215611d8c57611d8b611c41565b5b6000611d9a84828501611c6c565b91505092915050565b600081519050919050565b600082825260208201905092915050565b6000819050602082019050919050565b611dd881611c4b565b82525050565b6000611dea8383611dcf565b60208301905092915050565b6000602082019050919050565b6000611e0e82611da3565b611e188185611dae565b9350611e2383611dbf565b8060005b83811015611e54578151611e3b8882611dde565b9750611e4683611df6565b925050600181019050611e27565b5085935050505092915050565b600081519050919050565b600082825260208201905092915050565b6000819050602082019050919050565b600081519050919050565b600082825260208201905092915050565b60005b83811015611ec7578082015181840152602081019050611eac565b60008484015250505050565b6000601f19601f8301169050919050565b6000611eef82611e8d565b611ef98185611e98565b9350611f09818560208601611ea9565b611f1281611ed3565b840191505092915050565b6000611f298383611ee4565b905092915050565b6000602082019050919050565b6000611f4982611e61565b611f538185611e6c565b935083602082028501611f6585611e7d565b8060005b85811015611fa15784840389528151611f828582611f1d565b9450611f8d83611f31565b925060208a01995050600181019050611f69565b50829750879550505050505092915050565b60006040820190508181036000830152611fcd8185611e03565b90508181036020830152611fe18184611f3e565b90509392505050565b611ff381611c4b565b82525050565b600082825260208201905092915050565b600061201582611e8d565b61201f8185611ff9565b935061202f818560208601611ea9565b61203881611ed3565b840191505092915050565b600061010082019050612059600083018b611fea565b818103602083015261206b818a61200a565b905061207a6040830189611fea565b818103606083015261208c818861200a565b905081810360808301526120a0818761200a565b90506120af60a0830186611fea565b6120bc60c0830185611d4c565b6120c960e0830184611fea565b9998505050505050505050565b600080fd5b600080fd5b7f4e487b7100000000000000000000000000000000000000000000000000000000600052604160045260246000fd5b61211882611ed3565b810181811067ffffffffffffffff82111715612137576121366120e0565b5b80604052505050565b600061214a611c37565b9050612156828261210f565b919050565b600067ffffffffffffffff821115612176576121756120e0565b5b61217f82611ed3565b9050602081019050919050565b82818337600083830152505050565b60006121ae6121a98461215b565b612140565b9050828152602081018484840111156121ca576121c96120db565b5b6121d584828561218c565b509392505050565b600082601f8301126121f2576121f16120d6565b5b813561220284826020860161219b565b91505092915050565b6000806000806080858703121561222557612224611c41565b5b600061223387828801611c6c565b945050602085013567ffffffffffffffff81111561225457612253611c46565b5b612260878288016121dd565b935050604061227187828801611c6c565b925050606085013567ffffffffffffffff81111561229257612291611c46565b5b61229e878288016121dd565b91505092959194509250565b60006020820190506122bf6000830184611fea565b92915050565b6000806000606084860312156122de576122dd611c41565b5b60006122ec86828701611c6c565b935050602084013567ffffffffffffffff81111561230d5761230c611c46565b5b612319868287016121dd565b925050604061232a86828701611c6c565b9150509250925092565b600080600080600080600060e0888a03121561235357612352611c41565b5b60006123618a828b01611c6c565b975050602088013567ffffffffffffffff81111561238257612381611c46565b5b61238e8a828b016121dd565b965050604061239f8a828b01611c6c565b955050606088013567ffffffffffffffff8111156123c0576123bf611c46565b5b6123cc8a828b016121dd565b945050608088013567ffffffffffffffff8111156123ed576123ec611c46565b5b6123f98a828b016121dd565b93505060a061240a8a828b01611c6c565b92505060c061241b8a828b01611ca4565b91505092959891949750929550565b6000602082840312156124405761243f611c41565b5b600082013567ffffffffffffffff81111561245e5761245d611c46565b5b61246a848285016121dd565b91505092915050565b60006060820190506124886000830186611fea565b818103602083015261249a8185611e03565b905081810360408301526124ae8184611f3e565b9050949350505050565b7f4f6e6c792061646d696e2063616e20706572666f726d2074686973206163746960008201527f6f6e000000000000000000000000000000000000000000000000000000000000602082015250565b6000612514602283611ff9565b915061251f826124b8565b604082019050919050565b6000602082019050818103600083015261254381612507565b9050919050565b7f5061727469636970616e74206e6f7420666f756e640000000000000000000000600082015250565b6000612580601583611ff9565b915061258b8261254a565b602082019050919050565b600060208201905081810360008301526125af81612573565b9050919050565b7f496e76616c696420747261696e696e6720696e74657265737400000000000000600082015250565b60006125ec601983611ff9565b91506125f7826125b6565b602082019050919050565b6000602082019050818103600083015261261b816125df565b9050919050565b7f43616e6e6f74206368616e676520636f6d706c657465642066726f6d2074727560008201527f6520746f2066616c736500000000000000000000000000000000000000000000602082015250565b600061267e602a83611ff9565b915061268982612622565b604082019050919050565b600060208201905081810360008301526126ad81612671565b9050919050565b7f4e6f7420417574686f72697a6564000000000000000000000000000000000000600082015250565b60006126ea600e83611ff9565b91506126f5826126b4565b602082019050919050565b60006020820190508181036000830152612719816126dd565b9050919050565b7f4e487b7100000000000000000000000000000000000000000000000000000000600052602160045260246000fd5b7f547261696e6572206e6f7420666f756e64000000000000000000000000000000600082015250565b6000612785601183611ff9565b91506127908261274f565b602082019050919050565b600060208201905081810360008301526127b481612778565b9050919050565b7f4e6f2061646d696e7320617661696c61626c6500000000000000000000000000600082015250565b60006127f1601383611ff9565b91506127fc826127bb565b602082019050919050565b60006020820190508181036000830152612820816127e4565b9050919050565b7f496e76616c696420736c6f742049440000000000000000000000000000000000600082015250565b600061285d600f83611ff9565b915061286882612827565b602082019050919050565b6000602082019050818103600083015261288c81612850565b9050919050565b7f536c6f7420697320616c726561647920626f6f6b656400000000000000000000600082015250565b60006128c9601683611ff9565b91506128d482612893565b602082019050919050565b600060208201905081810360008301526128f8816128bc565b9050919050565b7f53656e6420657861637420626f6f6b696e672066656500000000000000000000600082015250565b6000612935601683611ff9565b9150612940826128ff565b602082019050919050565b6000602082019050818103600083015261296481612928565b9050919050565b7f5061727469636970616e74206e6f742072656769737465726564000000000000600082015250565b60006129a1601a83611ff9565b91506129ac8261296b565b602082019050919050565b600060208201905081810360008301526129d081612994565b9050919050565b6000819050919050565b6129f26129ed82611c4b565b6129d7565b82525050565b6000612a0482866129e1565b602082019150612a1482856129e1565b602082019150612a2482846129e1565b602082019150819050949350505050565b7f4e487b7100000000000000000000000000000000000000000000000000000000600052601260045260246000fd5b6000612a6f82611c4b565b9150612a7a83611c4b565b925082612a8a57612a89612a35565b5b828206905092915050565b7f4e487b7100000000000000000000000000000000000000000000000000000000600052603260045260246000fd5b7f4e487b7100000000000000000000000000000000000000000000000000000000600052601160045260246000fd5b6000612afe82611c4b565b91507fffffffffffffffffffffffffffffffffffffffffffffffffffffffffffffffff8203612b3057612b2f612ac4565b5b600182019050919050565b6000612b4682611c4b565b9150612b5183611c4b565b925082612b6157612b60612a35565b5b828204905092915050565b6000612b7782611c4b565b9150612b8283611c4b565b9250817fffffffffffffffffffffffffffffffffffffffffffffffffffffffffffffffff0483118215151615612bbb57612bba612ac4565b5b828202905092915050565b6000612bd182611c4b565b9150612bdc83611c4b565b9250828201905080821115612bf457612bf3612ac4565b5b92915050565b600081905092915050565b6000612c1082611e8d565b612c1a8185612bfa565b9350612c2a818560208601611ea9565b80840191505092915050565b7f3a00000000000000000000000000000000000000000000000000000000000000600082015250565b6000612c6c600183612bfa565b9150612c7782612c36565b600182019050919050565b7f2d00000000000000000000000000000000000000000000000000000000000000600082015250565b6000612cb8600183612bfa565b9150612cc382612c82565b600182019050919050565b6000612cda8287612c05565b9150612ce582612c5f565b9150612cf18286612c05565b9150612cfc82612cab565b9150612d088285612c05565b9150612d1382612c5f565b9150612d1f8284612c05565b915081905095945050505050565b7f4e487b7100000000000000000000000000000000000000000000000000000000600052602260045260246000fd5b60006002820490506001821680612d7457607f821691505b602082108103612d8757612d86612d2d565b5b50919050565b7f496e76616c696420616765000000000000000000000000000000000000000000600082015250565b6000612dc3600b83611ff9565b9150612dce82612d8d565b602082019050919050565b60006020820190508181036000830152612df281612db6565b9050919050565b7f496e76616c696420494400000000000000000000000000000000000000000000600082015250565b6000612e2f600a83611ff9565b9150612e3a82612df9565b602082019050919050565b60006020820190508181036000830152612e5e81612e22565b9050919050565b7f547261696e657220494420616c72656164792065786973747300000000000000600082015250565b6000612e9b601983611ff9565b9150612ea682612e65565b602082019050919050565b60006020820190508181036000830152612eca81612e8e565b9050919050565b60008190508160005260206000209050919050565b60006020601f8301049050919050565b600082821b905092915050565b600060088302612f337fffffffffffffffffffffffffffffffffffffffffffffffffffffffffffffffff82612ef6565b612f3d8683612ef6565b95508019841693508086168417925050509392505050565b6000819050919050565b6000612f7a612f75612f7084611c4b565b612f55565b611c4b565b9050919050565b6000819050919050565b612f9483612f5f565b612fa8612fa082612f81565b848454612f03565b825550505050565b600090565b612fbd612fb0565b612fc8818484612f8b565b505050565b5b81811015612fec57612fe1600082612fb5565b600181019050612fce565b5050565b601f8211156130315761300281612ed1565b61300b84612ee6565b8101602085101561301a578190505b61302e61302685612ee6565b830182612fcd565b50505b505050565b600082821c905092915050565b600061305460001984600802613036565b1980831691505092915050565b600061306d8383613043565b9150826002028217905092915050565b61308682611e8d565b67ffffffffffffffff81111561309f5761309e6120e0565b5b6130a98254612d5c565b6130b4828285612ff0565b600060209050601f8311600181146130e757600084156130d5578287015190505b6130df8582613061565b865550613147565b601f1984166130f586612ed1565b60005b8281101561311d578489015182556001820191506020850194506020810190506130f8565b8683101561313a5784890151613136601f891682613043565b8355505b6001600288020188555050505b505050505050565b7f41646d696e20494420616c726561647920657869737473000000000000000000600082015250565b6000613185601783611ff9565b91506131908261314f565b602082019050919050565b600060208201905081810360008301526131b481613178565b9050919050565b7f5061727469636970616e7420494420616c726561647920657869737473000000600082015250565b60006131f1601d83611ff9565b91506131fc826131bb565b602082019050919050565b60006020820190508181036000830152613220816131e4565b9050919050565b600081905092915050565b60008190508160005260206000209050919050565b6000815461325481612d5c565b61325e8186613227565b94506001821660008114613279576001811461328e576132c1565b60ff19831686528115158202860193506132c1565b61329785613232565b60005b838110156132b95781548189015260018201915060208101905061329a565b838801955050505b50505092915050565b60006132d68284613247565b915081905092915050565b7f3000000000000000000000000000000000000000000000000000000000000000600082015250565b6000613317600183612bfa565b9150613322826132e1565b600182019050919050565b60007fff0000000000000000000000000000000000000000000000000000000000000082169050919050565b6000819050919050565b61337461336f8261332d565b613359565b82525050565b60006133858261330a565b91506133918284613363565b60018201915081905092915050565b60006133ab82611c4b565b91506133b683611c4b565b92508282039050818111156133ce576133cd612ac4565b5b9291505056fea264697066735822122046bc55e3c0131f75846a48e9bfe5a311f5315498923c391b61ce4b844aaae58664736f6c63430008100033",
  "immutableReferences": {},
  "source": "// SPDX-License-Identifier: UNLICENSED\npragma solidity ^0.8.0;\n\ncontract DisasterRecoveryTraining {\n    enum TrainingType { first_aid, shelter_rebuild, food_safety }\n    struct Admin {\n        uint256 id;\n        string name;\n        uint256 age;\n        uint256 balance;\n        address admin_address;\n    }\n    \n    struct Trainer {\n        uint256 id;\n        string name;\n        uint256 age;\n        string gender;\n    }\n    \n    struct Participant {\n        uint256 id;\n        string name;\n        uint256 age;\n        string gender;\n        string district;\n        TrainingType training_interest;\n        bool has_completed_training;\n        uint256 balance;\n        address account_address;\n    }\n    \n    struct TrainingSlot {\n        uint256 slotId;\n        uint256 trainerId;\n        uint256 participantId;\n        bool isBooked;\n    }\n\n    uint256 private constant TOTAL_SLOTS_PER_DAY = 48;\n    uint256 private constant BOOKING_FEE = 1 ether;\n    uint256 private constant INITIAL_PARTICIPANT_BALANCE = 10 ether;\n\n    mapping(uint256 => Admin) private admins;\n    mapping(address => bool) private isAdmin;\n    mapping(address => uint256) private participantByAddress;\n    mapping(uint256 => Trainer) private trainers;\n    mapping(uint256 => Participant) private participants;\n    mapping(uint256 => mapping(uint256 => TrainingSlot)) private trainerSlots;\n    uint256[] private adminIds;\n    \n    modifier onlyAdmin() {\n        require(isAdmin[msg.sender], \"Only admin can perform this action\");\n        _;\n    }\n    \n    function registerAdmin(uint256 id, string memory name, uint256 age) external returns (uint256) {\n        require(age > 0, \"Invalid age\");\n        require(id > 0, \"Invalid ID\");\n        require(admins[id].id == 0, \"Admin ID already exists\");\n        \n        admins[id] = Admin(id, name, age, 0, msg.sender);\n        adminIds.push(id);\n        isAdmin[msg.sender] = true;\n        return id;\n    }\n    \n    function registerTrainer(uint256 id, string memory name, uint256 age, string memory gender) external returns (uint256) {\n        require(age > 0, \"Invalid age\");\n        require(id > 0, \"Invalid ID\");\n        require(trainers[id].id == 0, \"Trainer ID already exists\");\n        \n        trainers[id] = Trainer(id, name, age, gender);\n        return id;\n    }\n    \n    function registerParticipant(\n        uint256 id,\n        string memory name,\n        uint256 age,\n        string memory gender,\n        string memory district,\n        uint256 training_interest,\n        bool has_completed_training\n    ) external returns (uint256) {\n        require(age > 0, \"Invalid age\");\n        require(id > 0, \"Invalid ID\");\n        require(participants[id].id == 0, \"Participant ID already exists\");\n        require(training_interest <= 2, \"Invalid training interest\");\n        \n        participants[id] = Participant(\n            id,\n            name,\n            age,\n            gender,\n            district,\n            TrainingType(training_interest),\n            has_completed_training,\n            INITIAL_PARTICIPANT_BALANCE,\n            msg.sender\n        );\n\n        participantByAddress[msg.sender] = id;\n\n        return id;\n    }\n    \n    function updateParticipantData(uint256 participantId, uint256 newTrainingInterest, bool has_completed_training) external onlyAdmin {\n        require(participants[participantId].id != 0, \"Participant not found\");\n        require(newTrainingInterest <= 2, \"Invalid training interest\");\n        \n        Participant storage p = participants[participantId];\n        require(!p.has_completed_training || has_completed_training, \"Cannot change completed from true to false\");\n        \n        // admin only access\n        require(isAdmin[msg.sender], \"Not Authorized\");\n        p.training_interest = TrainingType(newTrainingInterest);\n        p.has_completed_training = has_completed_training;\n    }\n    \n    function bookTrainingSlot(uint256 trainerId, uint256 slotId) external payable returns (bool) {\n        require(trainers[trainerId].id != 0, \"Trainer not found\");\n        require(adminIds.length > 0, \"No admins available\");\n        require(slotId < TOTAL_SLOTS_PER_DAY, \"Invalid slot ID\");\n        require(!trainerSlots[trainerId][slotId].isBooked, \"Slot is already booked\");\n        require(adminIds.length > 0, \"No admins available\");\n        require(msg.value == BOOKING_FEE, \"Send exact booking fee\");\n\n\n        //\n\n        // Book the slot\n        uint256 participantId = participantByAddress[msg.sender];\n        require(participantId != 0, \"Participant not registered\");\n        trainerSlots[trainerId][slotId] = TrainingSlot(slotId, trainerId, participantId, true);\n\n\n        uint256 randomIndex = uint256(keccak256(abi.encodePacked(block.timestamp, block.difficulty, participantId))) % adminIds.length;\n\n        uint256 selectedAdminId = adminIds[randomIndex];\n        payable(admins[selectedAdminId].admin_address).transfer(msg.value);\n        // participants[participantId].balance -= BOOKING_FEE;\n        // admins[selectedAdminId].balance += BOOKING_FEE;\n        \n        return true;\n    }\n\n    //     function findParticipantByAddress(address addr) internal view returns (uint256) {\n    //     for (uint256 i = 1; i <= 100; i++) { // adjust max range\n    //         if (participants[i].id != 0 && participants[i].account_address == addr) {\n    //             return participants[i].id;\n    //         }\n    //     }\n    //     return 0;\n    // }\n    \n    /*\n    function viewAdminBalance() external view returns (uint256[] memory adminIdList, uint256[] memory balanceList) {\n        uint256 totalAdmins = adminIds.length;\n        \n        adminIdList = new uint256[](totalAdmins);\n        balanceList = new uint256[](totalAdmins);\n        \n        for (uint256 i = 0; i < totalAdmins; i++) {\n            uint256 adminId = adminIds[i];\n            adminIdList[i] = adminId;\n            balanceList[i] = admins[adminId].balance / 1 ether;\n        }\n        \n        return (adminIdList, balanceList);\n    }\n    */\n    \n    function viewParticipantData(uint256 participantId) external view returns (\n        uint256 id,\n        string memory name,\n        uint256 age,\n        string memory gender,\n        string memory district,\n        uint256 training_interest,\n        bool has_completed_training,\n        uint256 balance\n    ) {\n        require(participants[participantId].id != 0, \"Participant not found\");\n        \n        Participant memory p = participants[participantId];\n        return (\n            p.id,\n            p.name,\n            p.age,\n            p.gender,\n            p.district,\n            uint256(p.training_interest),\n            p.has_completed_training,\n            p.balance\n        );\n    }\n\n    function _toString(uint256 value) internal pure returns (string memory) {\n        if (value == 0) return \"0\";\n        if (value < 10) return string(abi.encodePacked(\"0\", bytes1(uint8(48 + value))));\n        \n        uint256 temp = value;\n        uint256 digits;\n        while (temp != 0) {\n            digits++;\n            temp /= 10;\n        }\n        bytes memory buffer = new bytes(digits);\n        while (value != 0) {\n            digits -= 1;\n            buffer[digits] = bytes1(uint8(48 + uint256(value % 10)));\n            value /= 10;\n        }\n        return string(buffer);\n    }\n\n    function viewTrainerSchedule(uint256 trainerId) external view returns (\n        uint256[] memory availableSlots,\n        string[] memory timeRanges\n    ) {\n        require(trainers[trainerId].id != 0, \"Trainer not found\");\n        uint256 availableCount = 0;\n        for (uint256 i = 0; i < TOTAL_SLOTS_PER_DAY; i++) {\n            if (!trainerSlots[trainerId][i].isBooked) {\n                availableCount++;\n            }\n        }\n        availableSlots = new uint256[](availableCount);\n        timeRanges = new string[](availableCount);\n        uint256 index = 0;\n        \n        for (uint256 i = 0; i < TOTAL_SLOTS_PER_DAY; i++) {\n            if (!trainerSlots[trainerId][i].isBooked) {\n                availableSlots[index] = i;\n                uint256 startHour = i / 2;\n                uint256 startMinute = (i % 2) * 30;\n                uint256 endHour = startHour;\n                uint256 endMinute = startMinute + 30;\n                \n                if (endMinute == 60) {\n                    endHour++;\n                    endMinute = 0;\n                }\n                timeRanges[index] = string(abi.encodePacked(\n                    _toString(startHour), \":\", \n                    startMinute == 0 ? \"00\" : \"30\", \n                    \"-\",\n                    _toString(endHour), \":\",\n                    endMinute == 0 ? \"00\" : \"30\"\n                ));\n                \n                index++;\n            }\n        }\n        \n        return (availableSlots, timeRanges);\n    }\n\n//  Search participants by district  returns total count + sorted IDs + names\nfunction searchParticipantsByDistrict(\n    string memory district\n) external view returns (\n    uint256 totalInDistrict,            // total participants in the district\n    uint256[] memory participantIdsSorted, // sorted list of IDs\n    string[] memory participantNamesSorted // names aligned with IDs\n) {\n    uint256 maxIds = 100; // upper bound, adjust as needed\n    uint256 matchCount = 0;\n\n    // 1 Count matches in the given district\n    for (uint256 i = 1; i <= maxIds; i++) {\n        if (\n            participants[i].id != 0 &&\n            keccak256(bytes(participants[i].district)) == keccak256(bytes(district))\n        ) {\n            matchCount++;\n        }\n    }\n\n    // 2 Collect IDs and names of participants in that district\n    participantIdsSorted = new uint256[](matchCount);\n    participantNamesSorted = new string[](matchCount);\n    uint256 idx = 0;\n\n    for (uint256 i = 1; i <= maxIds; i++) {\n        if (\n            participants[i].id != 0 &&\n            keccak256(bytes(participants[i].district)) == keccak256(bytes(district))\n        ) {\n            participantIdsSorted[idx] = participants[i].id;\n            participantNamesSorted[idx] = participants[i].name;\n            idx++;\n        }\n    }\n\n    // 3 Sort IDs (ascending) and keep names aligned\n    for (uint256 i = 0; i < matchCount; i++) {\n        for (uint256 j = i + 1; j < matchCount; j++) {\n            if (participantIdsSorted[j] < participantIdsSorted[i]) {\n                // swap IDs\n                uint256 tempId = participantIdsSorted[i];\n                participantIdsSorted[i] = participantIdsSorted[j];\n                participantIdsSorted[j] = tempId;\n\n                // swap names so they stay aligned\n                string memory tempName = participantNamesSorted[i];\n                participantNamesSorted[i] = participantNamesSorted[j];\n                participantNamesSorted[j] = tempName;\n            }\n        }\n    }\n\n    // 4 Return total count, sorted IDs, and aligned names\n    totalInDistrict = matchCount;\n}\n\n\n}\n\n",
  "sourcePath": "/mnt/e/projects/baDApp/contracts/DisasterRecoveryTraining.sol",
  "compiler": {
    "name": "solc",
    "version": "0.8.16+commit.07a7930e.Emscripten.clang"
  },
  "schemaVersion": "3.4.16",
  "updatedAt": "2025-08-19T14:51:44.577Z",
  "networkType": "ethereum",
  "devdoc": {
    "kind": "dev",
    "methods": {},
    "version": 1
  },
  "userdoc": {
    "kind": "user",
    "methods": {},
    "version": 1
  }
}