{
  "contractName": "DisasterRecoveryTraining",
  "abi": [
    {
      "inputs": [
        {
          "internalType": "uint256",
          "name": "id",
          "type": "uint256"
        },
        {
          "internalType": "string",
          "name": "name",
          "type": "string"
        },
        {
          "internalType": "uint256",
          "name": "age",
          "type": "uint256"
        }
      ],
      "name": "registerAdmin",
      "outputs": [
        {
          "internalType": "uint256",
          "name": "",
          "type": "uint256"
        }
      ],
      "stateMutability": "nonpayable",
      "type": "function"
    },
    {
      "inputs": [
        {
          "internalType": "uint256",
          "name": "id",
          "type": "uint256"
        },
        {
          "internalType": "string",
          "name": "name",
          "type": "string"
        },
        {
          "internalType": "uint256",
          "name": "age",
          "type": "uint256"
        },
        {
          "internalType": "string",
          "name": "gender",
          "type": "string"
        }
      ],
      "name": "registerTrainer",
      "outputs": [
        {
          "internalType": "uint256",
          "name": "",
          "type": "uint256"
        }
      ],
      "stateMutability": "nonpayable",
      "type": "function"
    },
    {
      "inputs": [
        {
          "internalType": "uint256",
          "name": "id",
          "type": "uint256"
        },
        {
          "internalType": "string",
          "name": "name",
          "type": "string"
        },
        {
          "internalType": "uint256",
          "name": "age",
          "type": "uint256"
        },
        {
          "internalType": "string",
          "name": "gender",
          "type": "string"
        },
        {
          "internalType": "string",
          "name": "district",
          "type": "string"
        },
        {
          "internalType": "uint256",
          "name": "training_interest",
          "type": "uint256"
        },
        {
          "internalType": "bool",
          "name": "has_completed_training",
          "type": "bool"
        }
      ],
      "name": "registerParticipant",
      "outputs": [
        {
          "internalType": "uint256",
          "name": "",
          "type": "uint256"
        }
      ],
      "stateMutability": "nonpayable",
      "type": "function"
    },
    {
      "inputs": [
        {
          "internalType": "uint256",
          "name": "participantId",
          "type": "uint256"
        },
        {
          "internalType": "uint256",
          "name": "newTrainingInterest",
          "type": "uint256"
        },
        {
          "internalType": "bool",
          "name": "has_completed_training",
          "type": "bool"
        }
      ],
      "name": "updateParticipantData",
      "outputs": [],
      "stateMutability": "nonpayable",
      "type": "function"
    },
    {
      "inputs": [
        {
          "internalType": "uint256",
          "name": "trainerId",
          "type": "uint256"
        },
        {
          "internalType": "uint256",
          "name": "participantId",
          "type": "uint256"
        },
        {
          "internalType": "uint256",
          "name": "slotId",
          "type": "uint256"
        }
      ],
      "name": "bookTrainingSlot",
      "outputs": [
        {
          "internalType": "bool",
          "name": "",
          "type": "bool"
        }
      ],
      "stateMutability": "nonpayable",
      "type": "function"
    },
    {
      "inputs": [],
      "name": "viewAdminBalance",
      "outputs": [
        {
          "internalType": "uint256[]",
          "name": "adminIdList",
          "type": "uint256[]"
        },
        {
          "internalType": "uint256[]",
          "name": "balanceList",
          "type": "uint256[]"
        }
      ],
      "stateMutability": "view",
      "type": "function",
      "constant": true
    },
    {
      "inputs": [
        {
          "internalType": "uint256",
          "name": "participantId",
          "type": "uint256"
        }
      ],
      "name": "viewParticipantData",
      "outputs": [
        {
          "internalType": "uint256",
          "name": "id",
          "type": "uint256"
        },
        {
          "internalType": "string",
          "name": "name",
          "type": "string"
        },
        {
          "internalType": "uint256",
          "name": "age",
          "type": "uint256"
        },
        {
          "internalType": "string",
          "name": "gender",
          "type": "string"
        },
        {
          "internalType": "string",
          "name": "district",
          "type": "string"
        },
        {
          "internalType": "uint256",
          "name": "training_interest",
          "type": "uint256"
        },
        {
          "internalType": "bool",
          "name": "has_completed_training",
          "type": "bool"
        },
        {
          "internalType": "uint256",
          "name": "balance",
          "type": "uint256"
        }
      ],
      "stateMutability": "view",
      "type": "function",
      "constant": true
    },
    {
      "inputs": [
        {
          "internalType": "uint256",
          "name": "trainerId",
          "type": "uint256"
        }
      ],
      "name": "viewTrainerSchedule",
      "outputs": [
        {
          "internalType": "uint256[]",
          "name": "availableSlots",
          "type": "uint256[]"
        },
        {
          "internalType": "string[]",
          "name": "timeRanges",
          "type": "string[]"
        }
      ],
      "stateMutability": "view",
      "type": "function",
      "constant": true
    },
    {
      "inputs": [
        {
          "internalType": "string",
          "name": "district",
          "type": "string"
        }
      ],
      "name": "searchParticipantsByDistrict",
      "outputs": [
        {
          "internalType": "uint256",
          "name": "totalInDistrict",
          "type": "uint256"
        },
        {
          "internalType": "uint256[]",
          "name": "participantIdsSorted",
          "type": "uint256[]"
        },
        {
          "internalType": "string[]",
          "name": "participantNamesSorted",
          "type": "string[]"
        }
      ],
      "stateMutability": "view",
      "type": "function",
      "constant": true
    }
  ],
  "bytecode": "0x608060405234801561001057600080fd5b506133fe806100206000396000f3fe608060405234801561001057600080fd5b50600436106100935760003560e01c80636620f95f116100665780636620f95f1461013b5780636c80cd331461016b578063710e2aba1461019b578063a30b027b146101cb578063d45b1a39146101fb57610093565b80633a7002e11461009857806351eca4dd146100b45780635a29dc29146100e55780635ffc80f214610104575b600080fd5b6100b260048036038101906100ad9190611ccf565b61022d565b005b6100ce60048036038101906100c99190611d22565b6104b3565b6040516100dc929190611f5f565b60405180910390f35b6100ed61084c565b6040516100fb929190611f96565b60405180910390f35b61011e60048036038101906101199190611d22565b61099f565b604051610132989796959493929190612035565b60405180910390f35b610155600480360381019061015091906120c8565b610cfe565b604051610162919061211b565b60405180910390f35b6101856004803603810190610180919061226b565b611076565b604051610192919061230a565b60405180910390f35b6101b560048036038101906101b09190612325565b6111d8565b6040516101c2919061230a565b60405180910390f35b6101e560048036038101906101e09190612394565b6113ac565b6040516101f2919061230a565b60405180910390f35b6102156004803603810190610210919061248a565b611670565b604051610224939291906124d3565b60405180910390f35b600160003373ffffffffffffffffffffffffffffffffffffffff1673ffffffffffffffffffffffffffffffffffffffff16815260200190815260200160002060009054906101000a900460ff166102b9576040517f08c379a00000000000000000000000000000000000000000000000000000000081526004016102b09061258a565b60405180910390fd5b6000600360008581526020019081526020016000206000015403610312576040517f08c379a0000000000000000000000000000000000000000000000000000000008152600401610309906125f6565b60405180910390fd5b6002821115610356576040517f08c379a000000000000000000000000000000000000000000000000000000000815260040161034d90612662565b60405180910390fd5b60006003600085815260200190815260200160002090508060050160019054906101000a900460ff1615806103885750815b6103c7576040517f08c379a00000000000000000000000000000000000000000000000000000000081526004016103be906126f4565b60405180910390fd5b600160003373ffffffffffffffffffffffffffffffffffffffff1673ffffffffffffffffffffffffffffffffffffffff16815260200190815260200160002060009054906101000a900460ff16610453576040517f08c379a000000000000000000000000000000000000000000000000000000000815260040161044a90612760565b60405180910390fd5b82600281111561046657610465612780565b5b8160050160006101000a81548160ff0219169083600281111561048c5761048b612780565b5b0217905550818160050160016101000a81548160ff02191690831515021790555050505050565b606080600060026000858152602001908152602001600020600001540361050f576040517f08c379a0000000000000000000000000000000000000000000000000000000008152600401610506906127fb565b60405180910390fd5b6000805b60308110156105775760046000868152602001908152602001600020600082815260200190815260200160002060030160009054906101000a900460ff166105645781806105609061284a565b9250505b808061056f9061284a565b915050610513565b508067ffffffffffffffff81111561059257610591612140565b5b6040519080825280602002602001820160405280156105c05781602001602082028036833780820191505090505b5092508067ffffffffffffffff8111156105dd576105dc612140565b5b60405190808252806020026020018201604052801561061057816020015b60608152602001906001900390816105fb5790505b5091506000805b60308110156108445760046000878152602001908152602001600020600082815260200190815260200160002060030160009054906101000a900460ff16610831578085838151811061066d5761066c612892565b5b602002602001018181525050600060028261068891906128f0565b90506000601e60028461069b9190612921565b6106a59190612952565b905060008290506000601e836106bb91906129ac565b9050603c81036106d85781806106d09061284a565b925050600090505b6106e184611aae565b60008414610724576040518060400160405280600281526020017f333000000000000000000000000000000000000000000000000000000000000081525061075b565b6040518060400160405280600281526020017f30300000000000000000000000000000000000000000000000000000000000008152505b61076484611aae565b600084146107a7576040518060400160405280600281526020017f33300000000000000000000000000000000000000000000000000000000000008152506107de565b6040518060400160405280600281526020017f30300000000000000000000000000000000000000000000000000000000000008152505b6040516020016107f19493929190612ab4565b60405160208183030381529060405288878151811061081357610812612892565b5b602002602001018190525085806108299061284a565b965050505050505b808061083c9061284a565b915050610617565b505050915091565b606080600060058054905090508067ffffffffffffffff81111561087357610872612140565b5b6040519080825280602002602001820160405280156108a15781602001602082028036833780820191505090505b5092508067ffffffffffffffff8111156108be576108bd612140565b5b6040519080825280602002602001820160405280156108ec5781602001602082028036833780820191505090505b50915060005b81811015610999576000600582815481106109105761090f612892565b5b906000526020600020015490508085838151811061093157610930612892565b5b602002602001018181525050670de0b6b3a76400006000808381526020019081526020016000206003015461096691906128f0565b84838151811061097957610978612892565b5b6020026020010181815250505080806109919061284a565b9150506108f2565b50509091565b600060606000606080600080600080600360008b81526020019081526020016000206000015403610a05576040517f08c379a00000000000000000000000000000000000000000000000000000000081526004016109fc906125f6565b60405180910390fd5b6000600360008b81526020019081526020016000206040518061012001604052908160008201548152602001600182018054610a4090612b42565b80601f0160208091040260200160405190810160405280929190818152602001828054610a6c90612b42565b8015610ab95780601f10610a8e57610100808354040283529160200191610ab9565b820191906000526020600020905b815481529060010190602001808311610a9c57829003601f168201915b5050505050815260200160028201548152602001600382018054610adc90612b42565b80601f0160208091040260200160405190810160405280929190818152602001828054610b0890612b42565b8015610b555780601f10610b2a57610100808354040283529160200191610b55565b820191906000526020600020905b815481529060010190602001808311610b3857829003601f168201915b50505050508152602001600482018054610b6e90612b42565b80601f0160208091040260200160405190810160405280929190818152602001828054610b9a90612b42565b8015610be75780601f10610bbc57610100808354040283529160200191610be7565b820191906000526020600020905b815481529060010190602001808311610bca57829003601f168201915b505050505081526020016005820160009054906101000a900460ff166002811115610c1557610c14612780565b5b6002811115610c2757610c26612780565b5b81526020016005820160019054906101000a900460ff16151515158152602001600682015481526020016007820160009054906101000a900473ffffffffffffffffffffffffffffffffffffffff1673ffffffffffffffffffffffffffffffffffffffff1673ffffffffffffffffffffffffffffffffffffffff16815250509050806000015181602001518260400151836060015184608001518560a001516002811115610cd857610cd7612780565b5b8660c001518760e001519850985098509850985098509850985050919395975091939597565b600080600260008681526020019081526020016000206000015403610d58576040517f08c379a0000000000000000000000000000000000000000000000000000000008152600401610d4f906127fb565b60405180910390fd5b6000600360008581526020019081526020016000206000015403610db1576040517f08c379a0000000000000000000000000000000000000000000000000000000008152600401610da8906125f6565b60405180910390fd5b670de0b6b3a764000060036000858152602001908152602001600020600601541015610e12576040517f08c379a0000000000000000000000000000000000000000000000000000000008152600401610e0990612bbf565b60405180910390fd5b600060058054905011610e5a576040517f08c379a0000000000000000000000000000000000000000000000000000000008152600401610e5190612c2b565b60405180910390fd5b60308210610e9d576040517f08c379a0000000000000000000000000000000000000000000000000000000008152600401610e9490612c97565b60405180910390fd5b60046000858152602001908152602001600020600083815260200190815260200160002060030160009054906101000a900460ff1615610f12576040517f08c379a0000000000000000000000000000000000000000000000000000000008152600401610f0990612d03565b60405180910390fd5b60405180608001604052808381526020018581526020018481526020016001151581525060046000868152602001908152602001600020600084815260200190815260200160002060008201518160000155602082015181600101556040820151816002015560608201518160030160006101000a81548160ff0219169083151502179055509050506000600580549050424486604051602001610fb893929190612d44565b6040516020818303038152906040528051906020012060001c610fdb9190612921565b9050600060058281548110610ff357610ff2612892565b5b90600052602060002001549050670de0b6b3a764000060036000878152602001908152602001600020600601600082825461102e9190612d81565b92505081905550670de0b6b3a7640000600080838152602001908152602001600020600301600082825461106291906129ac565b925050819055506001925050509392505050565b60008083116110ba576040517f08c379a00000000000000000000000000000000000000000000000000000000081526004016110b190612e01565b60405180910390fd5b600085116110fd576040517f08c379a00000000000000000000000000000000000000000000000000000000081526004016110f490612e6d565b60405180910390fd5b6000600260008781526020019081526020016000206000015414611156576040517f08c379a000000000000000000000000000000000000000000000000000000000815260040161114d90612ed9565b60405180910390fd5b604051806080016040528086815260200185815260200184815260200183815250600260008781526020019081526020016000206000820151816000015560208201518160010190816111a991906130a5565b506040820151816002015560608201518160030190816111c991906130a5565b50905050849050949350505050565b600080821161121c576040517f08c379a000000000000000000000000000000000000000000000000000000000815260040161121390612e01565b60405180910390fd5b6000841161125f576040517f08c379a000000000000000000000000000000000000000000000000000000000815260040161125690612e6d565b60405180910390fd5b600080600086815260200190815260200160002060000154146112b7576040517f08c379a00000000000000000000000000000000000000000000000000000000081526004016112ae906131c3565b60405180910390fd5b6040518060800160405280858152602001848152602001838152602001600081525060008086815260200190815260200160002060008201518160000155602082015181600101908161130a91906130a5565b506040820151816002015560608201518160030155905050600584908060018154018082558091505060019003906000526020600020016000909190919091505560018060003373ffffffffffffffffffffffffffffffffffffffff1673ffffffffffffffffffffffffffffffffffffffff16815260200190815260200160002060006101000a81548160ff0219169083151502179055508390509392505050565b60008086116113f0576040517f08c379a00000000000000000000000000000000000000000000000000000000081526004016113e790612e01565b60405180910390fd5b60008811611433576040517f08c379a000000000000000000000000000000000000000000000000000000000815260040161142a90612e6d565b60405180910390fd5b6000600360008a8152602001908152602001600020600001541461148c576040517f08c379a00000000000000000000000000000000000000000000000000000000081526004016114839061322f565b60405180910390fd5b60028311156114d0576040517f08c379a00000000000000000000000000000000000000000000000000000000081526004016114c790612662565b60405180910390fd5b60405180610120016040528089815260200188815260200187815260200186815260200185815260200184600281111561150d5761150c612780565b5b600281111561151f5761151e612780565b5b81526020018315158152602001678ac7230489e8000081526020013373ffffffffffffffffffffffffffffffffffffffff16815250600360008a815260200190815260200160002060008201518160000155602082015181600101908161158691906130a5565b506040820151816002015560608201518160030190816115a691906130a5565b5060808201518160040190816115bc91906130a5565b5060a08201518160050160006101000a81548160ff021916908360028111156115e8576115e7612780565b5b021790555060c08201518160050160016101000a81548160ff02191690831515021790555060e082015181600601556101008201518160070160006101000a81548173ffffffffffffffffffffffffffffffffffffffff021916908373ffffffffffffffffffffffffffffffffffffffff160217905550905050879050979650505050505050565b6000606080600060649050600080600190505b8281116117085760006003600083815260200190815260200160002060000154141580156116e157508680519060200120600360008381526020019081526020016000206004016040516116d791906132f2565b6040518091039020145b156116f55781806116f19061284a565b9250505b80806117009061284a565b915050611683565b508067ffffffffffffffff81111561172357611722612140565b5b6040519080825280602002602001820160405280156117515781602001602082028036833780820191505090505b5093508067ffffffffffffffff81111561176e5761176d612140565b5b6040519080825280602002602001820160405280156117a157816020015b606081526020019060019003908161178c5790505b509250600080600190505b83811161192457600060036000838152602001908152602001600020600001541415801561180a575087805190602001206003600083815260200190815260200160002060040160405161180091906132f2565b6040518091039020145b1561191157600360008281526020019081526020016000206000015486838151811061183957611838612892565b5b60200260200101818152505060036000828152602001908152602001600020600101805461186690612b42565b80601f016020809104026020016040519081016040528092919081815260200182805461189290612b42565b80156118df5780601f106118b4576101008083540402835291602001916118df565b820191906000526020600020905b8154815290600101906020018083116118c257829003601f168201915b50505050508583815181106118f7576118f6612892565b5b6020026020010181905250818061190d9061284a565b9250505b808061191c9061284a565b9150506117ac565b5060005b82811015611aa057600060018261193f91906129ac565b90505b83811015611a8c5786828151811061195d5761195c612892565b5b602002602001015187828151811061197857611977612892565b5b60200260200101511015611a7957600087838151811061199b5761199a612892565b5b602002602001015190508782815181106119b8576119b7612892565b5b60200260200101518884815181106119d3576119d2612892565b5b602002602001018181525050808883815181106119f3576119f2612892565b5b6020026020010181815250506000878481518110611a1457611a13612892565b5b60200260200101519050878381518110611a3157611a30612892565b5b6020026020010151888581518110611a4c57611a4b612892565b5b602002602001018190525080888481518110611a6b57611a6a612892565b5b602002602001018190525050505b8080611a849061284a565b915050611942565b508080611a989061284a565b915050611928565b508195505050509193909250565b606060008203611af5576040518060400160405280600181526020017f30000000000000000000000000000000000000000000000000000000000000008152509050611c48565b600a821015611b3457816030611b0b91906129ac565b60f81b604051602001611b1e91906133a2565b6040516020818303038152906040529050611c48565b600082905060005b60008214611b66578080611b4f9061284a565b915050600a82611b5f91906128f0565b9150611b3c565b60008167ffffffffffffffff811115611b8257611b81612140565b5b6040519080825280601f01601f191660200182016040528015611bb45781602001600182028036833780820191505090505b5090505b60008514611c4157600182611bcd9190612d81565b9150600a85611bdc9190612921565b6030611be891906129ac565b60f81b818381518110611bfe57611bfd612892565b5b60200101907effffffffffffffffffffffffffffffffffffffffffffffffffffffffffffff1916908160001a905350600a85611c3a91906128f0565b9450611bb8565b8093505050505b919050565b6000604051905090565b600080fd5b600080fd5b6000819050919050565b611c7481611c61565b8114611c7f57600080fd5b50565b600081359050611c9181611c6b565b92915050565b60008115159050919050565b611cac81611c97565b8114611cb757600080fd5b50565b600081359050611cc981611ca3565b92915050565b600080600060608486031215611ce857611ce7611c57565b5b6000611cf686828701611c82565b9350506020611d0786828701611c82565b9250506040611d1886828701611cba565b9150509250925092565b600060208284031215611d3857611d37611c57565b5b6000611d4684828501611c82565b91505092915050565b600081519050919050565b600082825260208201905092915050565b6000819050602082019050919050565b611d8481611c61565b82525050565b6000611d968383611d7b565b60208301905092915050565b6000602082019050919050565b6000611dba82611d4f565b611dc48185611d5a565b9350611dcf83611d6b565b8060005b83811015611e00578151611de78882611d8a565b9750611df283611da2565b925050600181019050611dd3565b5085935050505092915050565b600081519050919050565b600082825260208201905092915050565b6000819050602082019050919050565b600081519050919050565b600082825260208201905092915050565b60005b83811015611e73578082015181840152602081019050611e58565b60008484015250505050565b6000601f19601f8301169050919050565b6000611e9b82611e39565b611ea58185611e44565b9350611eb5818560208601611e55565b611ebe81611e7f565b840191505092915050565b6000611ed58383611e90565b905092915050565b6000602082019050919050565b6000611ef582611e0d565b611eff8185611e18565b935083602082028501611f1185611e29565b8060005b85811015611f4d5784840389528151611f2e8582611ec9565b9450611f3983611edd565b925060208a01995050600181019050611f15565b50829750879550505050505092915050565b60006040820190508181036000830152611f798185611daf565b90508181036020830152611f8d8184611eea565b90509392505050565b60006040820190508181036000830152611fb08185611daf565b90508181036020830152611fc48184611daf565b90509392505050565b611fd681611c61565b82525050565b600082825260208201905092915050565b6000611ff882611e39565b6120028185611fdc565b9350612012818560208601611e55565b61201b81611e7f565b840191505092915050565b61202f81611c97565b82525050565b60006101008201905061204b600083018b611fcd565b818103602083015261205d818a611fed565b905061206c6040830189611fcd565b818103606083015261207e8188611fed565b905081810360808301526120928187611fed565b90506120a160a0830186611fcd565b6120ae60c0830185612026565b6120bb60e0830184611fcd565b9998505050505050505050565b6000806000606084860312156120e1576120e0611c57565b5b60006120ef86828701611c82565b935050602061210086828701611c82565b925050604061211186828701611c82565b9150509250925092565b60006020820190506121306000830184612026565b92915050565b600080fd5b600080fd5b7f4e487b7100000000000000000000000000000000000000000000000000000000600052604160045260246000fd5b61217882611e7f565b810181811067ffffffffffffffff8211171561219757612196612140565b5b80604052505050565b60006121aa611c4d565b90506121b6828261216f565b919050565b600067ffffffffffffffff8211156121d6576121d5612140565b5b6121df82611e7f565b9050602081019050919050565b82818337600083830152505050565b600061220e612209846121bb565b6121a0565b90508281526020810184848401111561222a5761222961213b565b5b6122358482856121ec565b509392505050565b600082601f83011261225257612251612136565b5b81356122628482602086016121fb565b91505092915050565b6000806000806080858703121561228557612284611c57565b5b600061229387828801611c82565b945050602085013567ffffffffffffffff8111156122b4576122b3611c5c565b5b6122c08782880161223d565b93505060406122d187828801611c82565b925050606085013567ffffffffffffffff8111156122f2576122f1611c5c565b5b6122fe8782880161223d565b91505092959194509250565b600060208201905061231f6000830184611fcd565b92915050565b60008060006060848603121561233e5761233d611c57565b5b600061234c86828701611c82565b935050602084013567ffffffffffffffff81111561236d5761236c611c5c565b5b6123798682870161223d565b925050604061238a86828701611c82565b9150509250925092565b600080600080600080600060e0888a0312156123b3576123b2611c57565b5b60006123c18a828b01611c82565b975050602088013567ffffffffffffffff8111156123e2576123e1611c5c565b5b6123ee8a828b0161223d565b96505060406123ff8a828b01611c82565b955050606088013567ffffffffffffffff8111156124205761241f611c5c565b5b61242c8a828b0161223d565b945050608088013567ffffffffffffffff81111561244d5761244c611c5c565b5b6124598a828b0161223d565b93505060a061246a8a828b01611c82565b92505060c061247b8a828b01611cba565b91505092959891949750929550565b6000602082840312156124a05761249f611c57565b5b600082013567ffffffffffffffff8111156124be576124bd611c5c565b5b6124ca8482850161223d565b91505092915050565b60006060820190506124e86000830186611fcd565b81810360208301526124fa8185611daf565b9050818103604083015261250e8184611eea565b9050949350505050565b7f4f6e6c792061646d696e2063616e20706572666f726d2074686973206163746960008201527f6f6e000000000000000000000000000000000000000000000000000000000000602082015250565b6000612574602283611fdc565b915061257f82612518565b604082019050919050565b600060208201905081810360008301526125a381612567565b9050919050565b7f5061727469636970616e74206e6f7420666f756e640000000000000000000000600082015250565b60006125e0601583611fdc565b91506125eb826125aa565b602082019050919050565b6000602082019050818103600083015261260f816125d3565b9050919050565b7f496e76616c696420747261696e696e6720696e74657265737400000000000000600082015250565b600061264c601983611fdc565b915061265782612616565b602082019050919050565b6000602082019050818103600083015261267b8161263f565b9050919050565b7f43616e6e6f74206368616e676520636f6d706c657465642066726f6d2074727560008201527f6520746f2066616c736500000000000000000000000000000000000000000000602082015250565b60006126de602a83611fdc565b91506126e982612682565b604082019050919050565b6000602082019050818103600083015261270d816126d1565b9050919050565b7f4e6f7420417574686f72697a6564000000000000000000000000000000000000600082015250565b600061274a600e83611fdc565b915061275582612714565b602082019050919050565b600060208201905081810360008301526127798161273d565b9050919050565b7f4e487b7100000000000000000000000000000000000000000000000000000000600052602160045260246000fd5b7f547261696e6572206e6f7420666f756e64000000000000000000000000000000600082015250565b60006127e5601183611fdc565b91506127f0826127af565b602082019050919050565b60006020820190508181036000830152612814816127d8565b9050919050565b7f4e487b7100000000000000000000000000000000000000000000000000000000600052601160045260246000fd5b600061285582611c61565b91507fffffffffffffffffffffffffffffffffffffffffffffffffffffffffffffffff82036128875761288661281b565b5b600182019050919050565b7f4e487b7100000000000000000000000000000000000000000000000000000000600052603260045260246000fd5b7f4e487b7100000000000000000000000000000000000000000000000000000000600052601260045260246000fd5b60006128fb82611c61565b915061290683611c61565b925082612916576129156128c1565b5b828204905092915050565b600061292c82611c61565b915061293783611c61565b925082612947576129466128c1565b5b828206905092915050565b600061295d82611c61565b915061296883611c61565b9250817fffffffffffffffffffffffffffffffffffffffffffffffffffffffffffffffff04831182151516156129a1576129a061281b565b5b828202905092915050565b60006129b782611c61565b91506129c283611c61565b92508282019050808211156129da576129d961281b565b5b92915050565b600081905092915050565b60006129f682611e39565b612a0081856129e0565b9350612a10818560208601611e55565b80840191505092915050565b7f3a00000000000000000000000000000000000000000000000000000000000000600082015250565b6000612a526001836129e0565b9150612a5d82612a1c565b600182019050919050565b7f2d00000000000000000000000000000000000000000000000000000000000000600082015250565b6000612a9e6001836129e0565b9150612aa982612a68565b600182019050919050565b6000612ac082876129eb565b9150612acb82612a45565b9150612ad782866129eb565b9150612ae282612a91565b9150612aee82856129eb565b9150612af982612a45565b9150612b0582846129eb565b915081905095945050505050565b7f4e487b7100000000000000000000000000000000000000000000000000000000600052602260045260246000fd5b60006002820490506001821680612b5a57607f821691505b602082108103612b6d57612b6c612b13565b5b50919050565b7f496e73756666696369656e74207061727469636970616e742062616c616e6365600082015250565b6000612ba9602083611fdc565b9150612bb482612b73565b602082019050919050565b60006020820190508181036000830152612bd881612b9c565b9050919050565b7f4e6f2061646d696e7320617661696c61626c6500000000000000000000000000600082015250565b6000612c15601383611fdc565b9150612c2082612bdf565b602082019050919050565b60006020820190508181036000830152612c4481612c08565b9050919050565b7f496e76616c696420736c6f742049440000000000000000000000000000000000600082015250565b6000612c81600f83611fdc565b9150612c8c82612c4b565b602082019050919050565b60006020820190508181036000830152612cb081612c74565b9050919050565b7f536c6f7420697320616c726561647920626f6f6b656400000000000000000000600082015250565b6000612ced601683611fdc565b9150612cf882612cb7565b602082019050919050565b60006020820190508181036000830152612d1c81612ce0565b9050919050565b6000819050919050565b612d3e612d3982611c61565b612d23565b82525050565b6000612d508286612d2d565b602082019150612d608285612d2d565b602082019150612d708284612d2d565b602082019150819050949350505050565b6000612d8c82611c61565b9150612d9783611c61565b9250828203905081811115612daf57612dae61281b565b5b92915050565b7f496e76616c696420616765000000000000000000000000000000000000000000600082015250565b6000612deb600b83611fdc565b9150612df682612db5565b602082019050919050565b60006020820190508181036000830152612e1a81612dde565b9050919050565b7f496e76616c696420494400000000000000000000000000000000000000000000600082015250565b6000612e57600a83611fdc565b9150612e6282612e21565b602082019050919050565b60006020820190508181036000830152612e8681612e4a565b9050919050565b7f547261696e657220494420616c72656164792065786973747300000000000000600082015250565b6000612ec3601983611fdc565b9150612ece82612e8d565b602082019050919050565b60006020820190508181036000830152612ef281612eb6565b9050919050565b60008190508160005260206000209050919050565b60006020601f8301049050919050565b600082821b905092915050565b600060088302612f5b7fffffffffffffffffffffffffffffffffffffffffffffffffffffffffffffffff82612f1e565b612f658683612f1e565b95508019841693508086168417925050509392505050565b6000819050919050565b6000612fa2612f9d612f9884611c61565b612f7d565b611c61565b9050919050565b6000819050919050565b612fbc83612f87565b612fd0612fc882612fa9565b848454612f2b565b825550505050565b600090565b612fe5612fd8565b612ff0818484612fb3565b505050565b5b8181101561301457613009600082612fdd565b600181019050612ff6565b5050565b601f8211156130595761302a81612ef9565b61303384612f0e565b81016020851015613042578190505b61305661304e85612f0e565b830182612ff5565b50505b505050565b600082821c905092915050565b600061307c6000198460080261305e565b1980831691505092915050565b6000613095838361306b565b9150826002028217905092915050565b6130ae82611e39565b67ffffffffffffffff8111156130c7576130c6612140565b5b6130d18254612b42565b6130dc828285613018565b600060209050601f83116001811461310f57600084156130fd578287015190505b6131078582613089565b86555061316f565b601f19841661311d86612ef9565b60005b8281101561314557848901518255600182019150602085019450602081019050613120565b86831015613162578489015161315e601f89168261306b565b8355505b6001600288020188555050505b505050505050565b7f41646d696e20494420616c726561647920657869737473000000000000000000600082015250565b60006131ad601783611fdc565b91506131b882613177565b602082019050919050565b600060208201905081810360008301526131dc816131a0565b9050919050565b7f5061727469636970616e7420494420616c726561647920657869737473000000600082015250565b6000613219601d83611fdc565b9150613224826131e3565b602082019050919050565b600060208201905081810360008301526132488161320c565b9050919050565b600081905092915050565b60008190508160005260206000209050919050565b6000815461327c81612b42565b613286818661324f565b945060018216600081146132a157600181146132b6576132e9565b60ff19831686528115158202860193506132e9565b6132bf8561325a565b60005b838110156132e1578154818901526001820191506020810190506132c2565b838801955050505b50505092915050565b60006132fe828461326f565b915081905092915050565b7f3000000000000000000000000000000000000000000000000000000000000000600082015250565b600061333f6001836129e0565b915061334a82613309565b600182019050919050565b60007fff0000000000000000000000000000000000000000000000000000000000000082169050919050565b6000819050919050565b61339c61339782613355565b613381565b82525050565b60006133ad82613332565b91506133b9828461338b565b6001820191508190509291505056fea264697066735822122019f1899f5fe317b14325a4ba487936d3941621c7956994da9d2f53e3bbf20d2c64736f6c63430008100033",
  "immutableReferences": {},
  "source": "// SPDX-License-Identifier: UNLICENSED\npragma solidity ^0.8.0;\n\ncontract DisasterRecoveryTraining {\n    enum TrainingType { first_aid, shelter_rebuild, food_safety }\n    struct Admin {\n        uint256 id;\n        string name;\n        uint256 age;\n        uint256 balance;\n    }\n    \n    struct Trainer {\n        uint256 id;\n        string name;\n        uint256 age;\n        string gender;\n    }\n    \n    struct Participant {\n        uint256 id;\n        string name;\n        uint256 age;\n        string gender;\n        string district;\n        TrainingType training_interest;\n        bool has_completed_training;\n        uint256 balance;\n        address account_address;\n    }\n    \n    struct TrainingSlot {\n        uint256 slotId;\n        uint256 trainerId;\n        uint256 participantId;\n        bool isBooked;\n    }\n\n    uint256 private constant TOTAL_SLOTS_PER_DAY = 48;\n    uint256 private constant BOOKING_FEE = 1 ether;\n    uint256 private constant INITIAL_PARTICIPANT_BALANCE = 10 ether;\n\n    mapping(uint256 => Admin) private admins;\n    mapping(address => bool) private isAdmin;\n    mapping(uint256 => Trainer) private trainers;\n    mapping(uint256 => Participant) private participants;\n    mapping(uint256 => mapping(uint256 => TrainingSlot)) private trainerSlots;\n    uint256[] private adminIds;\n    \n    modifier onlyAdmin() {\n        require(isAdmin[msg.sender], \"Only admin can perform this action\");\n        _;\n    }\n    \n    function registerAdmin(uint256 id, string memory name, uint256 age) external returns (uint256) {\n        require(age > 0, \"Invalid age\");\n        require(id > 0, \"Invalid ID\");\n        require(admins[id].id == 0, \"Admin ID already exists\");\n        \n        admins[id] = Admin(id, name, age, 0);\n        adminIds.push(id);\n        isAdmin[msg.sender] = true;\n        return id;\n    }\n    \n    function registerTrainer(uint256 id, string memory name, uint256 age, string memory gender) external returns (uint256) {\n        require(age > 0, \"Invalid age\");\n        require(id > 0, \"Invalid ID\");\n        require(trainers[id].id == 0, \"Trainer ID already exists\");\n        \n        trainers[id] = Trainer(id, name, age, gender);\n        return id;\n    }\n    \n    function registerParticipant(\n        uint256 id,\n        string memory name,\n        uint256 age,\n        string memory gender,\n        string memory district,\n        uint256 training_interest,\n        bool has_completed_training\n    ) external returns (uint256) {\n        require(age > 0, \"Invalid age\");\n        require(id > 0, \"Invalid ID\");\n        require(participants[id].id == 0, \"Participant ID already exists\");\n        require(training_interest <= 2, \"Invalid training interest\");\n        \n        participants[id] = Participant(\n            id,\n            name,\n            age,\n            gender,\n            district,\n            TrainingType(training_interest),\n            has_completed_training,\n            INITIAL_PARTICIPANT_BALANCE,\n            msg.sender\n        );\n        return id;\n    }\n    \n    function updateParticipantData(uint256 participantId, uint256 newTrainingInterest, bool has_completed_training) external onlyAdmin {\n        require(participants[participantId].id != 0, \"Participant not found\");\n        require(newTrainingInterest <= 2, \"Invalid training interest\");\n        \n        Participant storage p = participants[participantId];\n        require(!p.has_completed_training || has_completed_training, \"Cannot change completed from true to false\");\n        \n        // admin only access\n        require(isAdmin[msg.sender], \"Not Authorized\");\n        p.training_interest = TrainingType(newTrainingInterest);\n        p.has_completed_training = has_completed_training;\n    }\n    \n    function bookTrainingSlot(uint256 trainerId, uint256 participantId, uint256 slotId) external returns (bool) {\n        require(trainers[trainerId].id != 0, \"Trainer not found\");\n        require(participants[participantId].id != 0, \"Participant not found\");\n        require(participants[participantId].balance >= BOOKING_FEE, \"Insufficient participant balance\");\n        require(adminIds.length > 0, \"No admins available\");\n        require(slotId < TOTAL_SLOTS_PER_DAY, \"Invalid slot ID\");\n        require(!trainerSlots[trainerId][slotId].isBooked, \"Slot is already booked\");\n\n        trainerSlots[trainerId][slotId] = TrainingSlot(slotId, trainerId, participantId, true);\n\n        uint256 randomIndex = uint256(keccak256(abi.encodePacked(block.timestamp, block.difficulty, participantId))) % adminIds.length;\n\n        uint256 selectedAdminId = adminIds[randomIndex];\n\n        participants[participantId].balance -= BOOKING_FEE;\n        admins[selectedAdminId].balance += BOOKING_FEE;\n        \n        return true;\n    }\n    \n    function viewAdminBalance() external view returns (uint256[] memory adminIdList, uint256[] memory balanceList) {\n        uint256 totalAdmins = adminIds.length;\n        \n        adminIdList = new uint256[](totalAdmins);\n        balanceList = new uint256[](totalAdmins);\n        \n        for (uint256 i = 0; i < totalAdmins; i++) {\n            uint256 adminId = adminIds[i];\n            adminIdList[i] = adminId;\n            balanceList[i] = admins[adminId].balance / 1 ether;\n        }\n        \n        return (adminIdList, balanceList);\n    }\n    \n    function viewParticipantData(uint256 participantId) external view returns (\n        uint256 id,\n        string memory name,\n        uint256 age,\n        string memory gender,\n        string memory district,\n        uint256 training_interest,\n        bool has_completed_training,\n        uint256 balance\n    ) {\n        require(participants[participantId].id != 0, \"Participant not found\");\n        \n        Participant memory p = participants[participantId];\n        return (\n            p.id,\n            p.name,\n            p.age,\n            p.gender,\n            p.district,\n            uint256(p.training_interest),\n            p.has_completed_training,\n            p.balance\n        );\n    }\n\n    function _toString(uint256 value) internal pure returns (string memory) {\n        if (value == 0) return \"0\";\n        if (value < 10) return string(abi.encodePacked(\"0\", bytes1(uint8(48 + value))));\n        \n        uint256 temp = value;\n        uint256 digits;\n        while (temp != 0) {\n            digits++;\n            temp /= 10;\n        }\n        bytes memory buffer = new bytes(digits);\n        while (value != 0) {\n            digits -= 1;\n            buffer[digits] = bytes1(uint8(48 + uint256(value % 10)));\n            value /= 10;\n        }\n        return string(buffer);\n    }\n\n    function viewTrainerSchedule(uint256 trainerId) external view returns (\n        uint256[] memory availableSlots,\n        string[] memory timeRanges\n    ) {\n        require(trainers[trainerId].id != 0, \"Trainer not found\");\n        uint256 availableCount = 0;\n        for (uint256 i = 0; i < TOTAL_SLOTS_PER_DAY; i++) {\n            if (!trainerSlots[trainerId][i].isBooked) {\n                availableCount++;\n            }\n        }\n        availableSlots = new uint256[](availableCount);\n        timeRanges = new string[](availableCount);\n        uint256 index = 0;\n        \n        for (uint256 i = 0; i < TOTAL_SLOTS_PER_DAY; i++) {\n            if (!trainerSlots[trainerId][i].isBooked) {\n                availableSlots[index] = i;\n                uint256 startHour = i / 2;\n                uint256 startMinute = (i % 2) * 30;\n                uint256 endHour = startHour;\n                uint256 endMinute = startMinute + 30;\n                \n                if (endMinute == 60) {\n                    endHour++;\n                    endMinute = 0;\n                }\n                timeRanges[index] = string(abi.encodePacked(\n                    _toString(startHour), \":\", \n                    startMinute == 0 ? \"00\" : \"30\", \n                    \"-\",\n                    _toString(endHour), \":\",\n                    endMinute == 0 ? \"00\" : \"30\"\n                ));\n                \n                index++;\n            }\n        }\n        \n        return (availableSlots, timeRanges);\n    }\n\n//  Search participants by district  returns total count + sorted IDs + names\nfunction searchParticipantsByDistrict(\n    string memory district\n) external view returns (\n    uint256 totalInDistrict,            // total participants in the district\n    uint256[] memory participantIdsSorted, // sorted list of IDs\n    string[] memory participantNamesSorted // names aligned with IDs\n) {\n    uint256 maxIds = 100; // upper bound, adjust as needed\n    uint256 matchCount = 0;\n\n    // 1 Count matches in the given district\n    for (uint256 i = 1; i <= maxIds; i++) {\n        if (\n            participants[i].id != 0 &&\n            keccak256(bytes(participants[i].district)) == keccak256(bytes(district))\n        ) {\n            matchCount++;\n        }\n    }\n\n    // 2 Collect IDs and names of participants in that district\n    participantIdsSorted = new uint256[](matchCount);\n    participantNamesSorted = new string[](matchCount);\n    uint256 idx = 0;\n\n    for (uint256 i = 1; i <= maxIds; i++) {\n        if (\n            participants[i].id != 0 &&\n            keccak256(bytes(participants[i].district)) == keccak256(bytes(district))\n        ) {\n            participantIdsSorted[idx] = participants[i].id;\n            participantNamesSorted[idx] = participants[i].name;\n            idx++;\n        }\n    }\n\n    // 3 Sort IDs (ascending) and keep names aligned\n    for (uint256 i = 0; i < matchCount; i++) {\n        for (uint256 j = i + 1; j < matchCount; j++) {\n            if (participantIdsSorted[j] < participantIdsSorted[i]) {\n                // swap IDs\n                uint256 tempId = participantIdsSorted[i];\n                participantIdsSorted[i] = participantIdsSorted[j];\n                participantIdsSorted[j] = tempId;\n\n                // swap names so they stay aligned\n                string memory tempName = participantNamesSorted[i];\n                participantNamesSorted[i] = participantNamesSorted[j];\n                participantNamesSorted[j] = tempName;\n            }\n        }\n    }\n\n    // 4 Return total count, sorted IDs, and aligned names\n    totalInDistrict = matchCount;\n}\n\n\n}\n\n",
  "sourcePath": "/mnt/e/projects/baDApp/contracts/DisasterRecoveryTraining.sol",
  "compiler": {
    "name": "solc",
    "version": "0.8.16+commit.07a7930e.Emscripten.clang"
  },
  "schemaVersion": "3.4.16",
  "updatedAt": "2025-08-19T13:17:19.482Z",
  "networkType": "ethereum",
  "devdoc": {
    "kind": "dev",
    "methods": {},
    "version": 1
  },
  "userdoc": {
    "kind": "user",
    "methods": {},
    "version": 1
  }
}