{
  "contractName": "DisasterRecoveryTraining",
  "abi": [
    {
      "inputs": [
        {
          "internalType": "uint256",
          "name": "id",
          "type": "uint256"
        },
        {
          "internalType": "string",
          "name": "name",
          "type": "string"
        },
        {
          "internalType": "uint256",
          "name": "age",
          "type": "uint256"
        }
      ],
      "name": "registerAdmin",
      "outputs": [
        {
          "internalType": "uint256",
          "name": "",
          "type": "uint256"
        }
      ],
      "stateMutability": "nonpayable",
      "type": "function"
    },
    {
      "inputs": [
        {
          "internalType": "uint256",
          "name": "id",
          "type": "uint256"
        },
        {
          "internalType": "string",
          "name": "name",
          "type": "string"
        },
        {
          "internalType": "uint256",
          "name": "age",
          "type": "uint256"
        },
        {
          "internalType": "string",
          "name": "gender",
          "type": "string"
        }
      ],
      "name": "registerTrainer",
      "outputs": [
        {
          "internalType": "uint256",
          "name": "",
          "type": "uint256"
        }
      ],
      "stateMutability": "nonpayable",
      "type": "function"
    },
    {
      "inputs": [
        {
          "internalType": "uint256",
          "name": "id",
          "type": "uint256"
        },
        {
          "internalType": "string",
          "name": "name",
          "type": "string"
        },
        {
          "internalType": "uint256",
          "name": "age",
          "type": "uint256"
        },
        {
          "internalType": "string",
          "name": "gender",
          "type": "string"
        },
        {
          "internalType": "string",
          "name": "district",
          "type": "string"
        },
        {
          "internalType": "uint256",
          "name": "training_interest",
          "type": "uint256"
        },
        {
          "internalType": "bool",
          "name": "has_completed_training",
          "type": "bool"
        }
      ],
      "name": "registerParticipant",
      "outputs": [
        {
          "internalType": "uint256",
          "name": "",
          "type": "uint256"
        }
      ],
      "stateMutability": "nonpayable",
      "type": "function"
    },
    {
      "inputs": [
        {
          "internalType": "uint256",
          "name": "participantId",
          "type": "uint256"
        },
        {
          "internalType": "uint256",
          "name": "newTrainingInterest",
          "type": "uint256"
        },
        {
          "internalType": "bool",
          "name": "has_completed_training",
          "type": "bool"
        }
      ],
      "name": "updateParticipantData",
      "outputs": [],
      "stateMutability": "nonpayable",
      "type": "function"
    },
    {
      "inputs": [
        {
          "internalType": "uint256",
          "name": "trainerId",
          "type": "uint256"
        },
        {
          "internalType": "uint256",
          "name": "participantId",
          "type": "uint256"
        },
        {
          "internalType": "uint256",
          "name": "slotId",
          "type": "uint256"
        }
      ],
      "name": "bookTrainingSlot",
      "outputs": [
        {
          "internalType": "bool",
          "name": "",
          "type": "bool"
        }
      ],
      "stateMutability": "nonpayable",
      "type": "function"
    },
    {
      "inputs": [],
      "name": "viewAdminBalance",
      "outputs": [
        {
          "internalType": "uint256[]",
          "name": "adminIdList",
          "type": "uint256[]"
        },
        {
          "internalType": "uint256[]",
          "name": "balanceList",
          "type": "uint256[]"
        }
      ],
      "stateMutability": "view",
      "type": "function",
      "constant": true
    },
    {
      "inputs": [
        {
          "internalType": "uint256",
          "name": "participantId",
          "type": "uint256"
        }
      ],
      "name": "viewParticipantData",
      "outputs": [
        {
          "internalType": "uint256",
          "name": "id",
          "type": "uint256"
        },
        {
          "internalType": "string",
          "name": "name",
          "type": "string"
        },
        {
          "internalType": "uint256",
          "name": "age",
          "type": "uint256"
        },
        {
          "internalType": "string",
          "name": "gender",
          "type": "string"
        },
        {
          "internalType": "string",
          "name": "district",
          "type": "string"
        },
        {
          "internalType": "uint256",
          "name": "training_interest",
          "type": "uint256"
        },
        {
          "internalType": "bool",
          "name": "has_completed_training",
          "type": "bool"
        },
        {
          "internalType": "uint256",
          "name": "balance",
          "type": "uint256"
        }
      ],
      "stateMutability": "view",
      "type": "function",
      "constant": true
    },
    {
      "inputs": [
        {
          "internalType": "uint256",
          "name": "trainerId",
          "type": "uint256"
        }
      ],
      "name": "viewTrainerSchedule",
      "outputs": [
        {
          "internalType": "uint256[]",
          "name": "availableSlots",
          "type": "uint256[]"
        },
        {
          "internalType": "string[]",
          "name": "timeRanges",
          "type": "string[]"
        }
      ],
      "stateMutability": "view",
      "type": "function",
      "constant": true
    },
    {
      "inputs": [
        {
          "internalType": "string",
          "name": "district",
          "type": "string"
        }
      ],
      "name": "searchParticipantsByDistrict",
      "outputs": [
        {
          "internalType": "uint256",
          "name": "totalInDistrict",
          "type": "uint256"
        },
        {
          "internalType": "uint256[]",
          "name": "participantIdsSorted",
          "type": "uint256[]"
        },
        {
          "internalType": "string[]",
          "name": "participantNamesSorted",
          "type": "string[]"
        }
      ],
      "stateMutability": "view",
      "type": "function",
      "constant": true
    }
  ],
  "bytecode": "0x608060405234801561001057600080fd5b5061324c806100206000396000f3fe608060405234801561001057600080fd5b50600436106100935760003560e01c80636620f95f116100665780636620f95f1461013b5780636c80cd331461016b578063710e2aba1461019b578063a30b027b146101cb578063d45b1a39146101fb57610093565b80633a7002e11461009857806351eca4dd146100b45780635a29dc29146100e55780635ffc80f214610104575b600080fd5b6100b260048036038101906100ad9190611b89565b61022d565b005b6100ce60048036038101906100c99190611bdc565b610427565b6040516100dc929190611e19565b60405180910390f35b6100ed6107c0565b6040516100fb929190611e50565b60405180910390f35b61011e60048036038101906101199190611bdc565b610913565b604051610132989796959493929190611eef565b60405180910390f35b61015560048036038101906101509190611f82565b610c1c565b6040516101629190611fd5565b60405180910390f35b61018560048036038101906101809190612125565b610f94565b60405161019291906121c4565b60405180910390f35b6101b560048036038101906101b091906121df565b6110f6565b6040516101c291906121c4565b60405180910390f35b6101e560048036038101906101e0919061224e565b6112ca565b6040516101f291906121c4565b60405180910390f35b61021560048036038101906102109190612344565b61152a565b6040516102249392919061238d565b60405180910390f35b600160003373ffffffffffffffffffffffffffffffffffffffff1673ffffffffffffffffffffffffffffffffffffffff16815260200190815260200160002060009054906101000a900460ff166102b9576040517f08c379a00000000000000000000000000000000000000000000000000000000081526004016102b090612444565b60405180910390fd5b6000600360008581526020019081526020016000206000015403610312576040517f08c379a0000000000000000000000000000000000000000000000000000000008152600401610309906124b0565b60405180910390fd5b6002821115610356576040517f08c379a000000000000000000000000000000000000000000000000000000000815260040161034d9061251c565b60405180910390fd5b60006003600085815260200190815260200160002090508060050160019054906101000a900460ff1615806103885750815b6103c7576040517f08c379a00000000000000000000000000000000000000000000000000000000081526004016103be906125ae565b60405180910390fd5b8260028111156103da576103d96125ce565b5b8160050160006101000a81548160ff02191690836002811115610400576103ff6125ce565b5b0217905550818160050160016101000a81548160ff02191690831515021790555050505050565b6060806000600260008581526020019081526020016000206000015403610483576040517f08c379a000000000000000000000000000000000000000000000000000000000815260040161047a90612649565b60405180910390fd5b6000805b60308110156104eb5760046000868152602001908152602001600020600082815260200190815260200160002060030160009054906101000a900460ff166104d85781806104d490612698565b9250505b80806104e390612698565b915050610487565b508067ffffffffffffffff81111561050657610505611ffa565b5b6040519080825280602002602001820160405280156105345781602001602082028036833780820191505090505b5092508067ffffffffffffffff81111561055157610550611ffa565b5b60405190808252806020026020018201604052801561058457816020015b606081526020019060019003908161056f5790505b5091506000805b60308110156107b85760046000878152602001908152602001600020600082815260200190815260200160002060030160009054906101000a900460ff166107a557808583815181106105e1576105e06126e0565b5b60200260200101818152505060006002826105fc919061273e565b90506000601e60028461060f919061276f565b61061991906127a0565b905060008290506000601e8361062f91906127fa565b9050603c810361064c57818061064490612698565b925050600090505b61065584611968565b60008414610698576040518060400160405280600281526020017f33300000000000000000000000000000000000000000000000000000000000008152506106cf565b6040518060400160405280600281526020017f30300000000000000000000000000000000000000000000000000000000000008152505b6106d884611968565b6000841461071b576040518060400160405280600281526020017f3330000000000000000000000000000000000000000000000000000000000000815250610752565b6040518060400160405280600281526020017f30300000000000000000000000000000000000000000000000000000000000008152505b6040516020016107659493929190612902565b604051602081830303815290604052888781518110610787576107866126e0565b5b6020026020010181905250858061079d90612698565b965050505050505b80806107b090612698565b91505061058b565b505050915091565b606080600060058054905090508067ffffffffffffffff8111156107e7576107e6611ffa565b5b6040519080825280602002602001820160405280156108155781602001602082028036833780820191505090505b5092508067ffffffffffffffff81111561083257610831611ffa565b5b6040519080825280602002602001820160405280156108605781602001602082028036833780820191505090505b50915060005b8181101561090d57600060058281548110610884576108836126e0565b5b90600052602060002001549050808583815181106108a5576108a46126e0565b5b602002602001018181525050670de0b6b3a7640000600080838152602001908152602001600020600301546108da919061273e565b8483815181106108ed576108ec6126e0565b5b60200260200101818152505050808061090590612698565b915050610866565b50509091565b600060606000606080600080600080600360008b81526020019081526020016000206000015403610979576040517f08c379a0000000000000000000000000000000000000000000000000000000008152600401610970906124b0565b60405180910390fd5b6000600360008b815260200190815260200160002060405180610100016040529081600082015481526020016001820180546109b490612990565b80601f01602080910402602001604051908101604052809291908181526020018280546109e090612990565b8015610a2d5780601f10610a0257610100808354040283529160200191610a2d565b820191906000526020600020905b815481529060010190602001808311610a1057829003601f168201915b5050505050815260200160028201548152602001600382018054610a5090612990565b80601f0160208091040260200160405190810160405280929190818152602001828054610a7c90612990565b8015610ac95780601f10610a9e57610100808354040283529160200191610ac9565b820191906000526020600020905b815481529060010190602001808311610aac57829003601f168201915b50505050508152602001600482018054610ae290612990565b80601f0160208091040260200160405190810160405280929190818152602001828054610b0e90612990565b8015610b5b5780601f10610b3057610100808354040283529160200191610b5b565b820191906000526020600020905b815481529060010190602001808311610b3e57829003601f168201915b505050505081526020016005820160009054906101000a900460ff166002811115610b8957610b886125ce565b5b6002811115610b9b57610b9a6125ce565b5b81526020016005820160019054906101000a900460ff161515151581526020016006820154815250509050806000015181602001518260400151836060015184608001518560a001516002811115610bf657610bf56125ce565b5b8660c001518760e001519850985098509850985098509850985050919395975091939597565b600080600260008681526020019081526020016000206000015403610c76576040517f08c379a0000000000000000000000000000000000000000000000000000000008152600401610c6d90612649565b60405180910390fd5b6000600360008581526020019081526020016000206000015403610ccf576040517f08c379a0000000000000000000000000000000000000000000000000000000008152600401610cc6906124b0565b60405180910390fd5b670de0b6b3a764000060036000858152602001908152602001600020600601541015610d30576040517f08c379a0000000000000000000000000000000000000000000000000000000008152600401610d2790612a0d565b60405180910390fd5b600060058054905011610d78576040517f08c379a0000000000000000000000000000000000000000000000000000000008152600401610d6f90612a79565b60405180910390fd5b60308210610dbb576040517f08c379a0000000000000000000000000000000000000000000000000000000008152600401610db290612ae5565b60405180910390fd5b60046000858152602001908152602001600020600083815260200190815260200160002060030160009054906101000a900460ff1615610e30576040517f08c379a0000000000000000000000000000000000000000000000000000000008152600401610e2790612b51565b60405180910390fd5b60405180608001604052808381526020018581526020018481526020016001151581525060046000868152602001908152602001600020600084815260200190815260200160002060008201518160000155602082015181600101556040820151816002015560608201518160030160006101000a81548160ff0219169083151502179055509050506000600580549050424486604051602001610ed693929190612b92565b6040516020818303038152906040528051906020012060001c610ef9919061276f565b9050600060058281548110610f1157610f106126e0565b5b90600052602060002001549050670de0b6b3a7640000600360008781526020019081526020016000206006016000828254610f4c9190612bcf565b92505081905550670de0b6b3a76400006000808381526020019081526020016000206003016000828254610f8091906127fa565b925050819055506001925050509392505050565b6000808311610fd8576040517f08c379a0000000000000000000000000000000000000000000000000000000008152600401610fcf90612c4f565b60405180910390fd5b6000851161101b576040517f08c379a000000000000000000000000000000000000000000000000000000000815260040161101290612cbb565b60405180910390fd5b6000600260008781526020019081526020016000206000015414611074576040517f08c379a000000000000000000000000000000000000000000000000000000000815260040161106b90612d27565b60405180910390fd5b604051806080016040528086815260200185815260200184815260200183815250600260008781526020019081526020016000206000820151816000015560208201518160010190816110c79190612ef3565b506040820151816002015560608201518160030190816110e79190612ef3565b50905050849050949350505050565b600080821161113a576040517f08c379a000000000000000000000000000000000000000000000000000000000815260040161113190612c4f565b60405180910390fd5b6000841161117d576040517f08c379a000000000000000000000000000000000000000000000000000000000815260040161117490612cbb565b60405180910390fd5b600080600086815260200190815260200160002060000154146111d5576040517f08c379a00000000000000000000000000000000000000000000000000000000081526004016111cc90613011565b60405180910390fd5b604051806080016040528085815260200184815260200183815260200160008152506000808681526020019081526020016000206000820151816000015560208201518160010190816112289190612ef3565b506040820151816002015560608201518160030155905050600584908060018154018082558091505060019003906000526020600020016000909190919091505560018060003373ffffffffffffffffffffffffffffffffffffffff1673ffffffffffffffffffffffffffffffffffffffff16815260200190815260200160002060006101000a81548160ff0219169083151502179055508390509392505050565b600080861161130e576040517f08c379a000000000000000000000000000000000000000000000000000000000815260040161130590612c4f565b60405180910390fd5b60008811611351576040517f08c379a000000000000000000000000000000000000000000000000000000000815260040161134890612cbb565b60405180910390fd5b6000600360008a815260200190815260200160002060000154146113aa576040517f08c379a00000000000000000000000000000000000000000000000000000000081526004016113a19061307d565b60405180910390fd5b60028311156113ee576040517f08c379a00000000000000000000000000000000000000000000000000000000081526004016113e59061251c565b60405180910390fd5b60405180610100016040528089815260200188815260200187815260200186815260200185815260200184600281111561142b5761142a6125ce565b5b600281111561143d5761143c6125ce565b5b81526020018315158152602001678ac7230489e80000815250600360008a81526020019081526020016000206000820151816000015560208201518160010190816114889190612ef3565b506040820151816002015560608201518160030190816114a89190612ef3565b5060808201518160040190816114be9190612ef3565b5060a08201518160050160006101000a81548160ff021916908360028111156114ea576114e96125ce565b5b021790555060c08201518160050160016101000a81548160ff02191690831515021790555060e08201518160060155905050879050979650505050505050565b6000606080600060649050600080600190505b8281116115c257600060036000838152602001908152602001600020600001541415801561159b57508680519060200120600360008381526020019081526020016000206004016040516115919190613140565b6040518091039020145b156115af5781806115ab90612698565b9250505b80806115ba90612698565b91505061153d565b508067ffffffffffffffff8111156115dd576115dc611ffa565b5b60405190808252806020026020018201604052801561160b5781602001602082028036833780820191505090505b5093508067ffffffffffffffff81111561162857611627611ffa565b5b60405190808252806020026020018201604052801561165b57816020015b60608152602001906001900390816116465790505b509250600080600190505b8381116117de5760006003600083815260200190815260200160002060000154141580156116c457508780519060200120600360008381526020019081526020016000206004016040516116ba9190613140565b6040518091039020145b156117cb5760036000828152602001908152602001600020600001548683815181106116f3576116f26126e0565b5b60200260200101818152505060036000828152602001908152602001600020600101805461172090612990565b80601f016020809104026020016040519081016040528092919081815260200182805461174c90612990565b80156117995780601f1061176e57610100808354040283529160200191611799565b820191906000526020600020905b81548152906001019060200180831161177c57829003601f168201915b50505050508583815181106117b1576117b06126e0565b5b602002602001018190525081806117c790612698565b9250505b80806117d690612698565b915050611666565b5060005b8281101561195a5760006001826117f991906127fa565b90505b8381101561194657868281518110611817576118166126e0565b5b6020026020010151878281518110611832576118316126e0565b5b60200260200101511015611933576000878381518110611855576118546126e0565b5b60200260200101519050878281518110611872576118716126e0565b5b602002602001015188848151811061188d5761188c6126e0565b5b602002602001018181525050808883815181106118ad576118ac6126e0565b5b60200260200101818152505060008784815181106118ce576118cd6126e0565b5b602002602001015190508783815181106118eb576118ea6126e0565b5b6020026020010151888581518110611906576119056126e0565b5b602002602001018190525080888481518110611925576119246126e0565b5b602002602001018190525050505b808061193e90612698565b9150506117fc565b50808061195290612698565b9150506117e2565b508195505050509193909250565b6060600082036119af576040518060400160405280600181526020017f30000000000000000000000000000000000000000000000000000000000000008152509050611b02565b600a8210156119ee578160306119c591906127fa565b60f81b6040516020016119d891906131f0565b6040516020818303038152906040529050611b02565b600082905060005b60008214611a20578080611a0990612698565b915050600a82611a19919061273e565b91506119f6565b60008167ffffffffffffffff811115611a3c57611a3b611ffa565b5b6040519080825280601f01601f191660200182016040528015611a6e5781602001600182028036833780820191505090505b5090505b60008514611afb57600182611a879190612bcf565b9150600a85611a96919061276f565b6030611aa291906127fa565b60f81b818381518110611ab857611ab76126e0565b5b60200101907effffffffffffffffffffffffffffffffffffffffffffffffffffffffffffff1916908160001a905350600a85611af4919061273e565b9450611a72565b8093505050505b919050565b6000604051905090565b600080fd5b600080fd5b6000819050919050565b611b2e81611b1b565b8114611b3957600080fd5b50565b600081359050611b4b81611b25565b92915050565b60008115159050919050565b611b6681611b51565b8114611b7157600080fd5b50565b600081359050611b8381611b5d565b92915050565b600080600060608486031215611ba257611ba1611b11565b5b6000611bb086828701611b3c565b9350506020611bc186828701611b3c565b9250506040611bd286828701611b74565b9150509250925092565b600060208284031215611bf257611bf1611b11565b5b6000611c0084828501611b3c565b91505092915050565b600081519050919050565b600082825260208201905092915050565b6000819050602082019050919050565b611c3e81611b1b565b82525050565b6000611c508383611c35565b60208301905092915050565b6000602082019050919050565b6000611c7482611c09565b611c7e8185611c14565b9350611c8983611c25565b8060005b83811015611cba578151611ca18882611c44565b9750611cac83611c5c565b925050600181019050611c8d565b5085935050505092915050565b600081519050919050565b600082825260208201905092915050565b6000819050602082019050919050565b600081519050919050565b600082825260208201905092915050565b60005b83811015611d2d578082015181840152602081019050611d12565b60008484015250505050565b6000601f19601f8301169050919050565b6000611d5582611cf3565b611d5f8185611cfe565b9350611d6f818560208601611d0f565b611d7881611d39565b840191505092915050565b6000611d8f8383611d4a565b905092915050565b6000602082019050919050565b6000611daf82611cc7565b611db98185611cd2565b935083602082028501611dcb85611ce3565b8060005b85811015611e075784840389528151611de88582611d83565b9450611df383611d97565b925060208a01995050600181019050611dcf565b50829750879550505050505092915050565b60006040820190508181036000830152611e338185611c69565b90508181036020830152611e478184611da4565b90509392505050565b60006040820190508181036000830152611e6a8185611c69565b90508181036020830152611e7e8184611c69565b90509392505050565b611e9081611b1b565b82525050565b600082825260208201905092915050565b6000611eb282611cf3565b611ebc8185611e96565b9350611ecc818560208601611d0f565b611ed581611d39565b840191505092915050565b611ee981611b51565b82525050565b600061010082019050611f05600083018b611e87565b8181036020830152611f17818a611ea7565b9050611f266040830189611e87565b8181036060830152611f388188611ea7565b90508181036080830152611f4c8187611ea7565b9050611f5b60a0830186611e87565b611f6860c0830185611ee0565b611f7560e0830184611e87565b9998505050505050505050565b600080600060608486031215611f9b57611f9a611b11565b5b6000611fa986828701611b3c565b9350506020611fba86828701611b3c565b9250506040611fcb86828701611b3c565b9150509250925092565b6000602082019050611fea6000830184611ee0565b92915050565b600080fd5b600080fd5b7f4e487b7100000000000000000000000000000000000000000000000000000000600052604160045260246000fd5b61203282611d39565b810181811067ffffffffffffffff8211171561205157612050611ffa565b5b80604052505050565b6000612064611b07565b90506120708282612029565b919050565b600067ffffffffffffffff8211156120905761208f611ffa565b5b61209982611d39565b9050602081019050919050565b82818337600083830152505050565b60006120c86120c384612075565b61205a565b9050828152602081018484840111156120e4576120e3611ff5565b5b6120ef8482856120a6565b509392505050565b600082601f83011261210c5761210b611ff0565b5b813561211c8482602086016120b5565b91505092915050565b6000806000806080858703121561213f5761213e611b11565b5b600061214d87828801611b3c565b945050602085013567ffffffffffffffff81111561216e5761216d611b16565b5b61217a878288016120f7565b935050604061218b87828801611b3c565b925050606085013567ffffffffffffffff8111156121ac576121ab611b16565b5b6121b8878288016120f7565b91505092959194509250565b60006020820190506121d96000830184611e87565b92915050565b6000806000606084860312156121f8576121f7611b11565b5b600061220686828701611b3c565b935050602084013567ffffffffffffffff81111561222757612226611b16565b5b612233868287016120f7565b925050604061224486828701611b3c565b9150509250925092565b600080600080600080600060e0888a03121561226d5761226c611b11565b5b600061227b8a828b01611b3c565b975050602088013567ffffffffffffffff81111561229c5761229b611b16565b5b6122a88a828b016120f7565b96505060406122b98a828b01611b3c565b955050606088013567ffffffffffffffff8111156122da576122d9611b16565b5b6122e68a828b016120f7565b945050608088013567ffffffffffffffff81111561230757612306611b16565b5b6123138a828b016120f7565b93505060a06123248a828b01611b3c565b92505060c06123358a828b01611b74565b91505092959891949750929550565b60006020828403121561235a57612359611b11565b5b600082013567ffffffffffffffff81111561237857612377611b16565b5b612384848285016120f7565b91505092915050565b60006060820190506123a26000830186611e87565b81810360208301526123b48185611c69565b905081810360408301526123c88184611da4565b9050949350505050565b7f4f6e6c792061646d696e2063616e20706572666f726d2074686973206163746960008201527f6f6e000000000000000000000000000000000000000000000000000000000000602082015250565b600061242e602283611e96565b9150612439826123d2565b604082019050919050565b6000602082019050818103600083015261245d81612421565b9050919050565b7f5061727469636970616e74206e6f7420666f756e640000000000000000000000600082015250565b600061249a601583611e96565b91506124a582612464565b602082019050919050565b600060208201905081810360008301526124c98161248d565b9050919050565b7f496e76616c696420747261696e696e6720696e74657265737400000000000000600082015250565b6000612506601983611e96565b9150612511826124d0565b602082019050919050565b60006020820190508181036000830152612535816124f9565b9050919050565b7f43616e6e6f74206368616e676520636f6d706c657465642066726f6d2074727560008201527f6520746f2066616c736500000000000000000000000000000000000000000000602082015250565b6000612598602a83611e96565b91506125a38261253c565b604082019050919050565b600060208201905081810360008301526125c78161258b565b9050919050565b7f4e487b7100000000000000000000000000000000000000000000000000000000600052602160045260246000fd5b7f547261696e6572206e6f7420666f756e64000000000000000000000000000000600082015250565b6000612633601183611e96565b915061263e826125fd565b602082019050919050565b6000602082019050818103600083015261266281612626565b9050919050565b7f4e487b7100000000000000000000000000000000000000000000000000000000600052601160045260246000fd5b60006126a382611b1b565b91507fffffffffffffffffffffffffffffffffffffffffffffffffffffffffffffffff82036126d5576126d4612669565b5b600182019050919050565b7f4e487b7100000000000000000000000000000000000000000000000000000000600052603260045260246000fd5b7f4e487b7100000000000000000000000000000000000000000000000000000000600052601260045260246000fd5b600061274982611b1b565b915061275483611b1b565b9250826127645761276361270f565b5b828204905092915050565b600061277a82611b1b565b915061278583611b1b565b9250826127955761279461270f565b5b828206905092915050565b60006127ab82611b1b565b91506127b683611b1b565b9250817fffffffffffffffffffffffffffffffffffffffffffffffffffffffffffffffff04831182151516156127ef576127ee612669565b5b828202905092915050565b600061280582611b1b565b915061281083611b1b565b925082820190508082111561282857612827612669565b5b92915050565b600081905092915050565b600061284482611cf3565b61284e818561282e565b935061285e818560208601611d0f565b80840191505092915050565b7f3a00000000000000000000000000000000000000000000000000000000000000600082015250565b60006128a060018361282e565b91506128ab8261286a565b600182019050919050565b7f2d00000000000000000000000000000000000000000000000000000000000000600082015250565b60006128ec60018361282e565b91506128f7826128b6565b600182019050919050565b600061290e8287612839565b915061291982612893565b91506129258286612839565b9150612930826128df565b915061293c8285612839565b915061294782612893565b91506129538284612839565b915081905095945050505050565b7f4e487b7100000000000000000000000000000000000000000000000000000000600052602260045260246000fd5b600060028204905060018216806129a857607f821691505b6020821081036129bb576129ba612961565b5b50919050565b7f496e73756666696369656e74207061727469636970616e742062616c616e6365600082015250565b60006129f7602083611e96565b9150612a02826129c1565b602082019050919050565b60006020820190508181036000830152612a26816129ea565b9050919050565b7f4e6f2061646d696e7320617661696c61626c6500000000000000000000000000600082015250565b6000612a63601383611e96565b9150612a6e82612a2d565b602082019050919050565b60006020820190508181036000830152612a9281612a56565b9050919050565b7f496e76616c696420736c6f742049440000000000000000000000000000000000600082015250565b6000612acf600f83611e96565b9150612ada82612a99565b602082019050919050565b60006020820190508181036000830152612afe81612ac2565b9050919050565b7f536c6f7420697320616c726561647920626f6f6b656400000000000000000000600082015250565b6000612b3b601683611e96565b9150612b4682612b05565b602082019050919050565b60006020820190508181036000830152612b6a81612b2e565b9050919050565b6000819050919050565b612b8c612b8782611b1b565b612b71565b82525050565b6000612b9e8286612b7b565b602082019150612bae8285612b7b565b602082019150612bbe8284612b7b565b602082019150819050949350505050565b6000612bda82611b1b565b9150612be583611b1b565b9250828203905081811115612bfd57612bfc612669565b5b92915050565b7f496e76616c696420616765000000000000000000000000000000000000000000600082015250565b6000612c39600b83611e96565b9150612c4482612c03565b602082019050919050565b60006020820190508181036000830152612c6881612c2c565b9050919050565b7f496e76616c696420494400000000000000000000000000000000000000000000600082015250565b6000612ca5600a83611e96565b9150612cb082612c6f565b602082019050919050565b60006020820190508181036000830152612cd481612c98565b9050919050565b7f547261696e657220494420616c72656164792065786973747300000000000000600082015250565b6000612d11601983611e96565b9150612d1c82612cdb565b602082019050919050565b60006020820190508181036000830152612d4081612d04565b9050919050565b60008190508160005260206000209050919050565b60006020601f8301049050919050565b600082821b905092915050565b600060088302612da97fffffffffffffffffffffffffffffffffffffffffffffffffffffffffffffffff82612d6c565b612db38683612d6c565b95508019841693508086168417925050509392505050565b6000819050919050565b6000612df0612deb612de684611b1b565b612dcb565b611b1b565b9050919050565b6000819050919050565b612e0a83612dd5565b612e1e612e1682612df7565b848454612d79565b825550505050565b600090565b612e33612e26565b612e3e818484612e01565b505050565b5b81811015612e6257612e57600082612e2b565b600181019050612e44565b5050565b601f821115612ea757612e7881612d47565b612e8184612d5c565b81016020851015612e90578190505b612ea4612e9c85612d5c565b830182612e43565b50505b505050565b600082821c905092915050565b6000612eca60001984600802612eac565b1980831691505092915050565b6000612ee38383612eb9565b9150826002028217905092915050565b612efc82611cf3565b67ffffffffffffffff811115612f1557612f14611ffa565b5b612f1f8254612990565b612f2a828285612e66565b600060209050601f831160018114612f5d5760008415612f4b578287015190505b612f558582612ed7565b865550612fbd565b601f198416612f6b86612d47565b60005b82811015612f9357848901518255600182019150602085019450602081019050612f6e565b86831015612fb05784890151612fac601f891682612eb9565b8355505b6001600288020188555050505b505050505050565b7f41646d696e20494420616c726561647920657869737473000000000000000000600082015250565b6000612ffb601783611e96565b915061300682612fc5565b602082019050919050565b6000602082019050818103600083015261302a81612fee565b9050919050565b7f5061727469636970616e7420494420616c726561647920657869737473000000600082015250565b6000613067601d83611e96565b915061307282613031565b602082019050919050565b600060208201905081810360008301526130968161305a565b9050919050565b600081905092915050565b60008190508160005260206000209050919050565b600081546130ca81612990565b6130d4818661309d565b945060018216600081146130ef576001811461310457613137565b60ff1983168652811515820286019350613137565b61310d856130a8565b60005b8381101561312f57815481890152600182019150602081019050613110565b838801955050505b50505092915050565b600061314c82846130bd565b915081905092915050565b7f3000000000000000000000000000000000000000000000000000000000000000600082015250565b600061318d60018361282e565b915061319882613157565b600182019050919050565b60007fff0000000000000000000000000000000000000000000000000000000000000082169050919050565b6000819050919050565b6131ea6131e5826131a3565b6131cf565b82525050565b60006131fb82613180565b915061320782846131d9565b6001820191508190509291505056fea264697066735822122084ab08caad8112c9bfa7df03f873f4c528dab58fab3d475a9960b05b2e9db4fe64736f6c63430008100033",
  "immutableReferences": {},
  "source": "// SPDX-License-Identifier: UNLICENSED\npragma solidity ^0.8.0;\n\ncontract DisasterRecoveryTraining {\n    enum TrainingType { first_aid, shelter_rebuild, food_safety }\n    struct Admin {\n        uint256 id;\n        string name;\n        uint256 age;\n        uint256 balance;\n    }\n    \n    struct Trainer {\n        uint256 id;\n        string name;\n        uint256 age;\n        string gender;\n    }\n    \n    struct Participant {\n        uint256 id;\n        string name;\n        uint256 age;\n        string gender;\n        string district;\n        TrainingType training_interest;\n        bool has_completed_training;\n        uint256 balance;\n    }\n    \n    struct TrainingSlot {\n        uint256 slotId;\n        uint256 trainerId;\n        uint256 participantId;\n        bool isBooked;\n    }\n\n    uint256 private constant TOTAL_SLOTS_PER_DAY = 48;\n    uint256 private constant BOOKING_FEE = 1 ether;\n    uint256 private constant INITIAL_PARTICIPANT_BALANCE = 10 ether;\n\n    mapping(uint256 => Admin) private admins;\n    mapping(address => bool) private isAdmin;\n    mapping(uint256 => Trainer) private trainers;\n    mapping(uint256 => Participant) private participants;\n    mapping(uint256 => mapping(uint256 => TrainingSlot)) private trainerSlots;\n    uint256[] private adminIds;\n    \n    modifier onlyAdmin() {\n        require(isAdmin[msg.sender], \"Only admin can perform this action\");\n        _;\n    }\n    \n    function registerAdmin(uint256 id, string memory name, uint256 age) external returns (uint256) {\n        require(age > 0, \"Invalid age\");\n        require(id > 0, \"Invalid ID\");\n        require(admins[id].id == 0, \"Admin ID already exists\");\n        \n        admins[id] = Admin(id, name, age, 0);\n        adminIds.push(id);\n        isAdmin[msg.sender] = true;\n        return id;\n    }\n    \n    function registerTrainer(uint256 id, string memory name, uint256 age, string memory gender) external returns (uint256) {\n        require(age > 0, \"Invalid age\");\n        require(id > 0, \"Invalid ID\");\n        require(trainers[id].id == 0, \"Trainer ID already exists\");\n        \n        trainers[id] = Trainer(id, name, age, gender);\n        return id;\n    }\n    \n    function registerParticipant(\n        uint256 id,\n        string memory name,\n        uint256 age,\n        string memory gender,\n        string memory district,\n        uint256 training_interest,\n        bool has_completed_training\n    ) external returns (uint256) {\n        require(age > 0, \"Invalid age\");\n        require(id > 0, \"Invalid ID\");\n        require(participants[id].id == 0, \"Participant ID already exists\");\n        require(training_interest <= 2, \"Invalid training interest\");\n        \n        participants[id] = Participant(\n            id,\n            name,\n            age,\n            gender,\n            district,\n            TrainingType(training_interest),\n            has_completed_training,\n            INITIAL_PARTICIPANT_BALANCE\n        );\n        return id;\n    }\n    \n    function updateParticipantData(uint256 participantId, uint256 newTrainingInterest, bool has_completed_training) external onlyAdmin {\n        require(participants[participantId].id != 0, \"Participant not found\");\n        require(newTrainingInterest <= 2, \"Invalid training interest\");\n        \n        Participant storage p = participants[participantId];\n        require(!p.has_completed_training || has_completed_training, \"Cannot change completed from true to false\");\n        \n        p.training_interest = TrainingType(newTrainingInterest);\n        p.has_completed_training = has_completed_training;\n    }\n    \n    function bookTrainingSlot(uint256 trainerId, uint256 participantId, uint256 slotId) external returns (bool) {\n        require(trainers[trainerId].id != 0, \"Trainer not found\");\n        require(participants[participantId].id != 0, \"Participant not found\");\n        require(participants[participantId].balance >= BOOKING_FEE, \"Insufficient participant balance\");\n        require(adminIds.length > 0, \"No admins available\");\n        require(slotId < TOTAL_SLOTS_PER_DAY, \"Invalid slot ID\");\n        require(!trainerSlots[trainerId][slotId].isBooked, \"Slot is already booked\");\n\n        trainerSlots[trainerId][slotId] = TrainingSlot(slotId, trainerId, participantId, true);\n\n        uint256 randomIndex = uint256(keccak256(abi.encodePacked(block.timestamp, block.difficulty, participantId))) % adminIds.length;\n\n        uint256 selectedAdminId = adminIds[randomIndex];\n\n        participants[participantId].balance -= BOOKING_FEE;\n        admins[selectedAdminId].balance += BOOKING_FEE;\n        \n        return true;\n    }\n    \n    function viewAdminBalance() external view returns (uint256[] memory adminIdList, uint256[] memory balanceList) {\n        uint256 totalAdmins = adminIds.length;\n        \n        adminIdList = new uint256[](totalAdmins);\n        balanceList = new uint256[](totalAdmins);\n        \n        for (uint256 i = 0; i < totalAdmins; i++) {\n            uint256 adminId = adminIds[i];\n            adminIdList[i] = adminId;\n            balanceList[i] = admins[adminId].balance / 1 ether;\n        }\n        \n        return (adminIdList, balanceList);\n    }\n    \n    function viewParticipantData(uint256 participantId) external view returns (\n        uint256 id,\n        string memory name,\n        uint256 age,\n        string memory gender,\n        string memory district,\n        uint256 training_interest,\n        bool has_completed_training,\n        uint256 balance\n    ) {\n        require(participants[participantId].id != 0, \"Participant not found\");\n        \n        Participant memory p = participants[participantId];\n        return (\n            p.id,\n            p.name,\n            p.age,\n            p.gender,\n            p.district,\n            uint256(p.training_interest),\n            p.has_completed_training,\n            p.balance\n        );\n    }\n\n    function _toString(uint256 value) internal pure returns (string memory) {\n        if (value == 0) return \"0\";\n        if (value < 10) return string(abi.encodePacked(\"0\", bytes1(uint8(48 + value))));\n        \n        uint256 temp = value;\n        uint256 digits;\n        while (temp != 0) {\n            digits++;\n            temp /= 10;\n        }\n        bytes memory buffer = new bytes(digits);\n        while (value != 0) {\n            digits -= 1;\n            buffer[digits] = bytes1(uint8(48 + uint256(value % 10)));\n            value /= 10;\n        }\n        return string(buffer);\n    }\n\n    function viewTrainerSchedule(uint256 trainerId) external view returns (\n        uint256[] memory availableSlots,\n        string[] memory timeRanges\n    ) {\n        require(trainers[trainerId].id != 0, \"Trainer not found\");\n        uint256 availableCount = 0;\n        for (uint256 i = 0; i < TOTAL_SLOTS_PER_DAY; i++) {\n            if (!trainerSlots[trainerId][i].isBooked) {\n                availableCount++;\n            }\n        }\n        availableSlots = new uint256[](availableCount);\n        timeRanges = new string[](availableCount);\n        uint256 index = 0;\n        \n        for (uint256 i = 0; i < TOTAL_SLOTS_PER_DAY; i++) {\n            if (!trainerSlots[trainerId][i].isBooked) {\n                availableSlots[index] = i;\n                uint256 startHour = i / 2;\n                uint256 startMinute = (i % 2) * 30;\n                uint256 endHour = startHour;\n                uint256 endMinute = startMinute + 30;\n                \n                if (endMinute == 60) {\n                    endHour++;\n                    endMinute = 0;\n                }\n                timeRanges[index] = string(abi.encodePacked(\n                    _toString(startHour), \":\", \n                    startMinute == 0 ? \"00\" : \"30\", \n                    \"-\",\n                    _toString(endHour), \":\",\n                    endMinute == 0 ? \"00\" : \"30\"\n                ));\n                \n                index++;\n            }\n        }\n        \n        return (availableSlots, timeRanges);\n    }\n\n//  Search participants by district  returns total count + sorted IDs + names\nfunction searchParticipantsByDistrict(\n    string memory district\n) external view returns (\n    uint256 totalInDistrict,            // total participants in the district\n    uint256[] memory participantIdsSorted, // sorted list of IDs\n    string[] memory participantNamesSorted // names aligned with IDs\n) {\n    uint256 maxIds = 100; // upper bound, adjust as needed\n    uint256 matchCount = 0;\n\n    // 1 Count matches in the given district\n    for (uint256 i = 1; i <= maxIds; i++) {\n        if (\n            participants[i].id != 0 &&\n            keccak256(bytes(participants[i].district)) == keccak256(bytes(district))\n        ) {\n            matchCount++;\n        }\n    }\n\n    // 2 Collect IDs and names of participants in that district\n    participantIdsSorted = new uint256[](matchCount);\n    participantNamesSorted = new string[](matchCount);\n    uint256 idx = 0;\n\n    for (uint256 i = 1; i <= maxIds; i++) {\n        if (\n            participants[i].id != 0 &&\n            keccak256(bytes(participants[i].district)) == keccak256(bytes(district))\n        ) {\n            participantIdsSorted[idx] = participants[i].id;\n            participantNamesSorted[idx] = participants[i].name;\n            idx++;\n        }\n    }\n\n    // 3 Sort IDs (ascending) and keep names aligned\n    for (uint256 i = 0; i < matchCount; i++) {\n        for (uint256 j = i + 1; j < matchCount; j++) {\n            if (participantIdsSorted[j] < participantIdsSorted[i]) {\n                // swap IDs\n                uint256 tempId = participantIdsSorted[i];\n                participantIdsSorted[i] = participantIdsSorted[j];\n                participantIdsSorted[j] = tempId;\n\n                // swap names so they stay aligned\n                string memory tempName = participantNamesSorted[i];\n                participantNamesSorted[i] = participantNamesSorted[j];\n                participantNamesSorted[j] = tempName;\n            }\n        }\n    }\n\n    // 4 Return total count, sorted IDs, and aligned names\n    totalInDistrict = matchCount;\n}\n\n\n}\n\n",
  "sourcePath": "/home/calypse/election/contracts/DisasterRecoveryTraining.sol",
  "compiler": {
    "name": "solc",
    "version": "0.8.16+commit.07a7930e.Emscripten.clang"
  },
  "schemaVersion": "3.4.16",
  "updatedAt": "2025-08-19T07:58:46.064Z",
  "networkType": "ethereum",
  "devdoc": {
    "kind": "dev",
    "methods": {},
    "version": 1
  },
  "userdoc": {
    "kind": "user",
    "methods": {},
    "version": 1
  }
}