{
  "contractName": "DisasterRecoveryTraining",
  "abi": [
    {
      "inputs": [
        {
          "internalType": "uint256",
          "name": "id",
          "type": "uint256"
        },
        {
          "internalType": "string",
          "name": "name",
          "type": "string"
        },
        {
          "internalType": "uint256",
          "name": "age",
          "type": "uint256"
        }
      ],
      "name": "registerAdmin",
      "outputs": [
        {
          "internalType": "uint256",
          "name": "",
          "type": "uint256"
        }
      ],
      "stateMutability": "nonpayable",
      "type": "function"
    },
    {
      "inputs": [
        {
          "internalType": "uint256",
          "name": "id",
          "type": "uint256"
        },
        {
          "internalType": "string",
          "name": "name",
          "type": "string"
        },
        {
          "internalType": "uint256",
          "name": "age",
          "type": "uint256"
        },
        {
          "internalType": "string",
          "name": "gender",
          "type": "string"
        }
      ],
      "name": "registerTrainer",
      "outputs": [
        {
          "internalType": "uint256",
          "name": "",
          "type": "uint256"
        }
      ],
      "stateMutability": "nonpayable",
      "type": "function"
    },
    {
      "inputs": [
        {
          "internalType": "uint256",
          "name": "id",
          "type": "uint256"
        },
        {
          "internalType": "string",
          "name": "name",
          "type": "string"
        },
        {
          "internalType": "uint256",
          "name": "age",
          "type": "uint256"
        },
        {
          "internalType": "string",
          "name": "gender",
          "type": "string"
        },
        {
          "internalType": "string",
          "name": "district",
          "type": "string"
        },
        {
          "internalType": "uint256",
          "name": "training_interest",
          "type": "uint256"
        },
        {
          "internalType": "bool",
          "name": "has_completed_training",
          "type": "bool"
        }
      ],
      "name": "registerParticipant",
      "outputs": [
        {
          "internalType": "uint256",
          "name": "",
          "type": "uint256"
        }
      ],
      "stateMutability": "nonpayable",
      "type": "function"
    },
    {
      "inputs": [
        {
          "internalType": "uint256",
          "name": "participantId",
          "type": "uint256"
        },
        {
          "internalType": "uint256",
          "name": "newTrainingInterest",
          "type": "uint256"
        },
        {
          "internalType": "bool",
          "name": "has_completed_training",
          "type": "bool"
        }
      ],
      "name": "updateParticipantData",
      "outputs": [],
      "stateMutability": "nonpayable",
      "type": "function"
    },
    {
      "inputs": [
        {
          "internalType": "uint256",
          "name": "trainerId",
          "type": "uint256"
        },
        {
          "internalType": "uint256",
          "name": "slotId",
          "type": "uint256"
        }
      ],
      "name": "bookTrainingSlot",
      "outputs": [
        {
          "internalType": "bool",
          "name": "",
          "type": "bool"
        }
      ],
      "stateMutability": "payable",
      "type": "function",
      "payable": true
    },
    {
      "inputs": [],
      "name": "viewAdminBalance",
      "outputs": [
        {
          "internalType": "uint256[]",
          "name": "adminIdList",
          "type": "uint256[]"
        },
        {
          "internalType": "uint256[]",
          "name": "balanceList",
          "type": "uint256[]"
        }
      ],
      "stateMutability": "view",
      "type": "function",
      "constant": true
    },
    {
      "inputs": [
        {
          "internalType": "uint256",
          "name": "participantId",
          "type": "uint256"
        }
      ],
      "name": "viewParticipantData",
      "outputs": [
        {
          "internalType": "uint256",
          "name": "id",
          "type": "uint256"
        },
        {
          "internalType": "string",
          "name": "name",
          "type": "string"
        },
        {
          "internalType": "uint256",
          "name": "age",
          "type": "uint256"
        },
        {
          "internalType": "string",
          "name": "gender",
          "type": "string"
        },
        {
          "internalType": "string",
          "name": "district",
          "type": "string"
        },
        {
          "internalType": "uint256",
          "name": "training_interest",
          "type": "uint256"
        },
        {
          "internalType": "bool",
          "name": "has_completed_training",
          "type": "bool"
        },
        {
          "internalType": "uint256",
          "name": "balance",
          "type": "uint256"
        }
      ],
      "stateMutability": "view",
      "type": "function",
      "constant": true
    },
    {
      "inputs": [
        {
          "internalType": "uint256",
          "name": "trainerId",
          "type": "uint256"
        }
      ],
      "name": "viewTrainerSchedule",
      "outputs": [
        {
          "internalType": "uint256[]",
          "name": "availableSlots",
          "type": "uint256[]"
        },
        {
          "internalType": "string[]",
          "name": "timeRanges",
          "type": "string[]"
        }
      ],
      "stateMutability": "view",
      "type": "function",
      "constant": true
    },
    {
      "inputs": [
        {
          "internalType": "string",
          "name": "district",
          "type": "string"
        }
      ],
      "name": "searchParticipantsByDistrict",
      "outputs": [
        {
          "internalType": "uint256",
          "name": "totalInDistrict",
          "type": "uint256"
        },
        {
          "internalType": "uint256[]",
          "name": "participantIdsSorted",
          "type": "uint256[]"
        },
        {
          "internalType": "string[]",
          "name": "participantNamesSorted",
          "type": "string[]"
        }
      ],
      "stateMutability": "view",
      "type": "function",
      "constant": true
    }
  ],
  "bytecode": "0x608060405234801561001057600080fd5b50613836806100206000396000f3fe6080604052600436106100865760003560e01c80635ffc80f2116100595780635ffc80f21461014e5780636c80cd3314610192578063710e2aba146101cf578063a30b027b1461020c578063d45b1a391461024957610086565b80633a7002e11461008b5780634efbbb1b146100b457806351eca4dd146100e45780635a29dc2914610122575b600080fd5b34801561009757600080fd5b506100b260048036038101906100ad9190611f8a565b610288565b005b6100ce60048036038101906100c99190611fdd565b61050e565b6040516100db919061202c565b60405180910390f35b3480156100f057600080fd5b5061010b60048036038101906101069190612047565b6108f8565b604051610119929190612284565b60405180910390f35b34801561012e57600080fd5b50610137610c91565b6040516101459291906122bb565b60405180910390f35b34801561015a57600080fd5b5061017560048036038101906101709190612047565b610e1b565b60405161018998979695949392919061234b565b60405180910390f35b34801561019e57600080fd5b506101b960048036038101906101b49190612513565b61117a565b6040516101c691906125b2565b60405180910390f35b3480156101db57600080fd5b506101f660048036038101906101f191906125cd565b6112dc565b60405161020391906125b2565b60405180910390f35b34801561021857600080fd5b50610233600480360381019061022e919061263c565b6115a1565b60405161024091906125b2565b60405180910390f35b34801561025557600080fd5b50610270600480360381019061026b9190612732565b61192b565b60405161027f9392919061277b565b60405180910390f35b600160003373ffffffffffffffffffffffffffffffffffffffff1673ffffffffffffffffffffffffffffffffffffffff16815260200190815260200160002060009054906101000a900460ff16610314576040517f08c379a000000000000000000000000000000000000000000000000000000000815260040161030b90612832565b60405180910390fd5b600060046000858152602001908152602001600020600001540361036d576040517f08c379a00000000000000000000000000000000000000000000000000000000081526004016103649061289e565b60405180910390fd5b60028211156103b1576040517f08c379a00000000000000000000000000000000000000000000000000000000081526004016103a89061290a565b60405180910390fd5b60006004600085815260200190815260200160002090508060050160019054906101000a900460ff1615806103e35750815b610422576040517f08c379a00000000000000000000000000000000000000000000000000000000081526004016104199061299c565b60405180910390fd5b600160003373ffffffffffffffffffffffffffffffffffffffff1673ffffffffffffffffffffffffffffffffffffffff16815260200190815260200160002060009054906101000a900460ff166104ae576040517f08c379a00000000000000000000000000000000000000000000000000000000081526004016104a590612a08565b60405180910390fd5b8260028111156104c1576104c0612a28565b5b8160050160006101000a81548160ff021916908360028111156104e7576104e6612a28565b5b0217905550818160050160016101000a81548160ff02191690831515021790555050505050565b600080600360008581526020019081526020016000206000015403610568576040517f08c379a000000000000000000000000000000000000000000000000000000000815260040161055f90612aa3565b60405180910390fd5b6000600680549050116105b0576040517f08c379a00000000000000000000000000000000000000000000000000000000081526004016105a790612b0f565b60405180910390fd5b603082106105f3576040517f08c379a00000000000000000000000000000000000000000000000000000000081526004016105ea90612b7b565b60405180910390fd5b60056000848152602001908152602001600020600083815260200190815260200160002060030160009054906101000a900460ff1615610668576040517f08c379a000000000000000000000000000000000000000000000000000000000815260040161065f90612be7565b60405180910390fd5b6000600680549050116106b0576040517f08c379a00000000000000000000000000000000000000000000000000000000081526004016106a790612b0f565b60405180910390fd5b670de0b6b3a764000034146106fa576040517f08c379a00000000000000000000000000000000000000000000000000000000081526004016106f190612c53565b60405180910390fd5b6000600260003373ffffffffffffffffffffffffffffffffffffffff1673ffffffffffffffffffffffffffffffffffffffff16815260200190815260200160002054905060008103610781576040517f08c379a000000000000000000000000000000000000000000000000000000000815260040161077890612cbf565b60405180910390fd5b60405180608001604052808481526020018581526020018281526020016001151581525060056000868152602001908152602001600020600085815260200190815260200160002060008201518160000155602082015181600101556040820151816002015560608201518160030160006101000a81548160ff021916908315150217905550905050600060068054905042448460405160200161082793929190612d00565b6040516020818303038152906040528051906020012060001c61084a9190612d6c565b905060006006828154811061086257610861612d9d565b5b9060005260206000200154905060008082815260200190815260200160002060040160009054906101000a900473ffffffffffffffffffffffffffffffffffffffff1673ffffffffffffffffffffffffffffffffffffffff166108fc349081150290604051600060405180830381858888f193505050501580156108ea573d6000803e3d6000fd5b506001935050505092915050565b6060806000600360008581526020019081526020016000206000015403610954576040517f08c379a000000000000000000000000000000000000000000000000000000000815260040161094b90612aa3565b60405180910390fd5b6000805b60308110156109bc5760056000868152602001908152602001600020600082815260200190815260200160002060030160009054906101000a900460ff166109a95781806109a590612dfb565b9250505b80806109b490612dfb565b915050610958565b508067ffffffffffffffff8111156109d7576109d66123e8565b5b604051908082528060200260200182016040528015610a055781602001602082028036833780820191505090505b5092508067ffffffffffffffff811115610a2257610a216123e8565b5b604051908082528060200260200182016040528015610a5557816020015b6060815260200190600190039081610a405790505b5091506000805b6030811015610c895760056000878152602001908152602001600020600082815260200190815260200160002060030160009054906101000a900460ff16610c765780858381518110610ab257610ab1612d9d565b5b6020026020010181815250506000600282610acd9190612e43565b90506000601e600284610ae09190612d6c565b610aea9190612e74565b905060008290506000601e83610b009190612ece565b9050603c8103610b1d578180610b1590612dfb565b925050600090505b610b2684611d69565b60008414610b69576040518060400160405280600281526020017f3330000000000000000000000000000000000000000000000000000000000000815250610ba0565b6040518060400160405280600281526020017f30300000000000000000000000000000000000000000000000000000000000008152505b610ba984611d69565b60008414610bec576040518060400160405280600281526020017f3330000000000000000000000000000000000000000000000000000000000000815250610c23565b6040518060400160405280600281526020017f30300000000000000000000000000000000000000000000000000000000000008152505b604051602001610c369493929190612fd6565b604051602081830303815290604052888781518110610c5857610c57612d9d565b5b60200260200101819052508580610c6e90612dfb565b965050505050505b8080610c8190612dfb565b915050610a5c565b505050915091565b606080600060068054905090508067ffffffffffffffff811115610cb857610cb76123e8565b5b604051908082528060200260200182016040528015610ce65781602001602082028036833780820191505090505b5092508067ffffffffffffffff811115610d0357610d026123e8565b5b604051908082528060200260200182016040528015610d315781602001602082028036833780820191505090505b50915060005b81811015610e1557600060068281548110610d5557610d54612d9d565b5b9060005260206000200154905080858381518110610d7657610d75612d9d565b5b602002602001018181525050670de0b6b3a764000060008083815260200190815260200160002060040160009054906101000a900473ffffffffffffffffffffffffffffffffffffffff1673ffffffffffffffffffffffffffffffffffffffff1631610de29190612e43565b848381518110610df557610df4612d9d565b5b602002602001018181525050508080610e0d90612dfb565b915050610d37565b50509091565b600060606000606080600080600080600460008b81526020019081526020016000206000015403610e81576040517f08c379a0000000000000000000000000000000000000000000000000000000008152600401610e789061289e565b60405180910390fd5b6000600460008b81526020019081526020016000206040518061012001604052908160008201548152602001600182018054610ebc90613064565b80601f0160208091040260200160405190810160405280929190818152602001828054610ee890613064565b8015610f355780601f10610f0a57610100808354040283529160200191610f35565b820191906000526020600020905b815481529060010190602001808311610f1857829003601f168201915b5050505050815260200160028201548152602001600382018054610f5890613064565b80601f0160208091040260200160405190810160405280929190818152602001828054610f8490613064565b8015610fd15780601f10610fa657610100808354040283529160200191610fd1565b820191906000526020600020905b815481529060010190602001808311610fb457829003601f168201915b50505050508152602001600482018054610fea90613064565b80601f016020809104026020016040519081016040528092919081815260200182805461101690613064565b80156110635780601f1061103857610100808354040283529160200191611063565b820191906000526020600020905b81548152906001019060200180831161104657829003601f168201915b505050505081526020016005820160009054906101000a900460ff16600281111561109157611090612a28565b5b60028111156110a3576110a2612a28565b5b81526020016005820160019054906101000a900460ff16151515158152602001600682015481526020016007820160009054906101000a900473ffffffffffffffffffffffffffffffffffffffff1673ffffffffffffffffffffffffffffffffffffffff1673ffffffffffffffffffffffffffffffffffffffff16815250509050806000015181602001518260400151836060015184608001518560a00151600281111561115457611153612a28565b5b8660c001518760e001519850985098509850985098509850985050919395975091939597565b60008083116111be576040517f08c379a00000000000000000000000000000000000000000000000000000000081526004016111b5906130e1565b60405180910390fd5b60008511611201576040517f08c379a00000000000000000000000000000000000000000000000000000000081526004016111f89061314d565b60405180910390fd5b600060036000878152602001908152602001600020600001541461125a576040517f08c379a0000000000000000000000000000000000000000000000000000000008152600401611251906131b9565b60405180910390fd5b604051806080016040528086815260200185815260200184815260200183815250600360008781526020019081526020016000206000820151816000015560208201518160010190816112ad9190613385565b506040820151816002015560608201518160030190816112cd9190613385565b50905050849050949350505050565b6000600160003373ffffffffffffffffffffffffffffffffffffffff1673ffffffffffffffffffffffffffffffffffffffff16815260200190815260200160002060009054906101000a900460ff161561136b576040517f08c379a0000000000000000000000000000000000000000000000000000000008152600401611362906134c9565b60405180910390fd5b600082116113ae576040517f08c379a00000000000000000000000000000000000000000000000000000000081526004016113a5906130e1565b60405180910390fd5b600084116113f1576040517f08c379a00000000000000000000000000000000000000000000000000000000081526004016113e89061314d565b60405180910390fd5b60008060008681526020019081526020016000206000015414611449576040517f08c379a000000000000000000000000000000000000000000000000000000000815260040161144090613535565b60405180910390fd5b6040518060a00160405280858152602001848152602001838152602001600081526020013373ffffffffffffffffffffffffffffffffffffffff168152506000808681526020019081526020016000206000820151816000015560208201518160010190816114b89190613385565b50604082015181600201556060820151816003015560808201518160040160006101000a81548173ffffffffffffffffffffffffffffffffffffffff021916908373ffffffffffffffffffffffffffffffffffffffff160217905550905050600684908060018154018082558091505060019003906000526020600020016000909190919091505560018060003373ffffffffffffffffffffffffffffffffffffffff1673ffffffffffffffffffffffffffffffffffffffff16815260200190815260200160002060006101000a81548160ff0219169083151502179055508390509392505050565b600080600260003373ffffffffffffffffffffffffffffffffffffffff1673ffffffffffffffffffffffffffffffffffffffff1681526020019081526020016000205414611624576040517f08c379a000000000000000000000000000000000000000000000000000000000815260040161161b906135c7565b60405180910390fd5b60008611611667576040517f08c379a000000000000000000000000000000000000000000000000000000000815260040161165e906130e1565b60405180910390fd5b600088116116aa576040517f08c379a00000000000000000000000000000000000000000000000000000000081526004016116a19061314d565b60405180910390fd5b6000600460008a81526020019081526020016000206000015414611703576040517f08c379a00000000000000000000000000000000000000000000000000000000081526004016116fa90613633565b60405180910390fd5b6002831115611747576040517f08c379a000000000000000000000000000000000000000000000000000000000815260040161173e9061290a565b60405180910390fd5b60405180610120016040528089815260200188815260200187815260200186815260200185815260200184600281111561178457611783612a28565b5b600281111561179657611795612a28565b5b81526020018315158152602001678ac7230489e8000081526020013373ffffffffffffffffffffffffffffffffffffffff16815250600460008a81526020019081526020016000206000820151816000015560208201518160010190816117fd9190613385565b5060408201518160020155606082015181600301908161181d9190613385565b5060808201518160040190816118339190613385565b5060a08201518160050160006101000a81548160ff0219169083600281111561185f5761185e612a28565b5b021790555060c08201518160050160016101000a81548160ff02191690831515021790555060e082015181600601556101008201518160070160006101000a81548173ffffffffffffffffffffffffffffffffffffffff021916908373ffffffffffffffffffffffffffffffffffffffff16021790555090505087600260003373ffffffffffffffffffffffffffffffffffffffff1673ffffffffffffffffffffffffffffffffffffffff16815260200190815260200160002081905550879050979650505050505050565b6000606080600060649050600080600190505b8281116119c357600060046000838152602001908152602001600020600001541415801561199c575086805190602001206004600083815260200190815260200160002060040160405161199291906136f6565b6040518091039020145b156119b05781806119ac90612dfb565b9250505b80806119bb90612dfb565b91505061193e565b508067ffffffffffffffff8111156119de576119dd6123e8565b5b604051908082528060200260200182016040528015611a0c5781602001602082028036833780820191505090505b5093508067ffffffffffffffff811115611a2957611a286123e8565b5b604051908082528060200260200182016040528015611a5c57816020015b6060815260200190600190039081611a475790505b509250600080600190505b838111611bdf576000600460008381526020019081526020016000206000015414158015611ac55750878051906020012060046000838152602001908152602001600020600401604051611abb91906136f6565b6040518091039020145b15611bcc576004600082815260200190815260200160002060000154868381518110611af457611af3612d9d565b5b602002602001018181525050600460008281526020019081526020016000206001018054611b2190613064565b80601f0160208091040260200160405190810160405280929190818152602001828054611b4d90613064565b8015611b9a5780601f10611b6f57610100808354040283529160200191611b9a565b820191906000526020600020905b815481529060010190602001808311611b7d57829003601f168201915b5050505050858381518110611bb257611bb1612d9d565b5b60200260200101819052508180611bc890612dfb565b9250505b8080611bd790612dfb565b915050611a67565b5060005b82811015611d5b576000600182611bfa9190612ece565b90505b83811015611d4757868281518110611c1857611c17612d9d565b5b6020026020010151878281518110611c3357611c32612d9d565b5b60200260200101511015611d34576000878381518110611c5657611c55612d9d565b5b60200260200101519050878281518110611c7357611c72612d9d565b5b6020026020010151888481518110611c8e57611c8d612d9d565b5b60200260200101818152505080888381518110611cae57611cad612d9d565b5b6020026020010181815250506000878481518110611ccf57611cce612d9d565b5b60200260200101519050878381518110611cec57611ceb612d9d565b5b6020026020010151888581518110611d0757611d06612d9d565b5b602002602001018190525080888481518110611d2657611d25612d9d565b5b602002602001018190525050505b8080611d3f90612dfb565b915050611bfd565b508080611d5390612dfb565b915050611be3565b508195505050509193909250565b606060008203611db0576040518060400160405280600181526020017f30000000000000000000000000000000000000000000000000000000000000008152509050611f03565b600a821015611def57816030611dc69190612ece565b60f81b604051602001611dd991906137a6565b6040516020818303038152906040529050611f03565b600082905060005b60008214611e21578080611e0a90612dfb565b915050600a82611e1a9190612e43565b9150611df7565b60008167ffffffffffffffff811115611e3d57611e3c6123e8565b5b6040519080825280601f01601f191660200182016040528015611e6f5781602001600182028036833780820191505090505b5090505b60008514611efc57600182611e8891906137cc565b9150600a85611e979190612d6c565b6030611ea39190612ece565b60f81b818381518110611eb957611eb8612d9d565b5b60200101907effffffffffffffffffffffffffffffffffffffffffffffffffffffffffffff1916908160001a905350600a85611ef59190612e43565b9450611e73565b8093505050505b919050565b6000604051905090565b600080fd5b600080fd5b6000819050919050565b611f2f81611f1c565b8114611f3a57600080fd5b50565b600081359050611f4c81611f26565b92915050565b60008115159050919050565b611f6781611f52565b8114611f7257600080fd5b50565b600081359050611f8481611f5e565b92915050565b600080600060608486031215611fa357611fa2611f12565b5b6000611fb186828701611f3d565b9350506020611fc286828701611f3d565b9250506040611fd386828701611f75565b9150509250925092565b60008060408385031215611ff457611ff3611f12565b5b600061200285828601611f3d565b925050602061201385828601611f3d565b9150509250929050565b61202681611f52565b82525050565b6000602082019050612041600083018461201d565b92915050565b60006020828403121561205d5761205c611f12565b5b600061206b84828501611f3d565b91505092915050565b600081519050919050565b600082825260208201905092915050565b6000819050602082019050919050565b6120a981611f1c565b82525050565b60006120bb83836120a0565b60208301905092915050565b6000602082019050919050565b60006120df82612074565b6120e9818561207f565b93506120f483612090565b8060005b8381101561212557815161210c88826120af565b9750612117836120c7565b9250506001810190506120f8565b5085935050505092915050565b600081519050919050565b600082825260208201905092915050565b6000819050602082019050919050565b600081519050919050565b600082825260208201905092915050565b60005b8381101561219857808201518184015260208101905061217d565b60008484015250505050565b6000601f19601f8301169050919050565b60006121c08261215e565b6121ca8185612169565b93506121da81856020860161217a565b6121e3816121a4565b840191505092915050565b60006121fa83836121b5565b905092915050565b6000602082019050919050565b600061221a82612132565b612224818561213d565b9350836020820285016122368561214e565b8060005b85811015612272578484038952815161225385826121ee565b945061225e83612202565b925060208a0199505060018101905061223a565b50829750879550505050505092915050565b6000604082019050818103600083015261229e81856120d4565b905081810360208301526122b2818461220f565b90509392505050565b600060408201905081810360008301526122d581856120d4565b905081810360208301526122e981846120d4565b90509392505050565b6122fb81611f1c565b82525050565b600082825260208201905092915050565b600061231d8261215e565b6123278185612301565b935061233781856020860161217a565b612340816121a4565b840191505092915050565b600061010082019050612361600083018b6122f2565b8181036020830152612373818a612312565b905061238260408301896122f2565b81810360608301526123948188612312565b905081810360808301526123a88187612312565b90506123b760a08301866122f2565b6123c460c083018561201d565b6123d160e08301846122f2565b9998505050505050505050565b600080fd5b600080fd5b7f4e487b7100000000000000000000000000000000000000000000000000000000600052604160045260246000fd5b612420826121a4565b810181811067ffffffffffffffff8211171561243f5761243e6123e8565b5b80604052505050565b6000612452611f08565b905061245e8282612417565b919050565b600067ffffffffffffffff82111561247e5761247d6123e8565b5b612487826121a4565b9050602081019050919050565b82818337600083830152505050565b60006124b66124b184612463565b612448565b9050828152602081018484840111156124d2576124d16123e3565b5b6124dd848285612494565b509392505050565b600082601f8301126124fa576124f96123de565b5b813561250a8482602086016124a3565b91505092915050565b6000806000806080858703121561252d5761252c611f12565b5b600061253b87828801611f3d565b945050602085013567ffffffffffffffff81111561255c5761255b611f17565b5b612568878288016124e5565b935050604061257987828801611f3d565b925050606085013567ffffffffffffffff81111561259a57612599611f17565b5b6125a6878288016124e5565b91505092959194509250565b60006020820190506125c760008301846122f2565b92915050565b6000806000606084860312156125e6576125e5611f12565b5b60006125f486828701611f3d565b935050602084013567ffffffffffffffff81111561261557612614611f17565b5b612621868287016124e5565b925050604061263286828701611f3d565b9150509250925092565b600080600080600080600060e0888a03121561265b5761265a611f12565b5b60006126698a828b01611f3d565b975050602088013567ffffffffffffffff81111561268a57612689611f17565b5b6126968a828b016124e5565b96505060406126a78a828b01611f3d565b955050606088013567ffffffffffffffff8111156126c8576126c7611f17565b5b6126d48a828b016124e5565b945050608088013567ffffffffffffffff8111156126f5576126f4611f17565b5b6127018a828b016124e5565b93505060a06127128a828b01611f3d565b92505060c06127238a828b01611f75565b91505092959891949750929550565b60006020828403121561274857612747611f12565b5b600082013567ffffffffffffffff81111561276657612765611f17565b5b612772848285016124e5565b91505092915050565b600060608201905061279060008301866122f2565b81810360208301526127a281856120d4565b905081810360408301526127b6818461220f565b9050949350505050565b7f4f6e6c792061646d696e2063616e20706572666f726d2074686973206163746960008201527f6f6e000000000000000000000000000000000000000000000000000000000000602082015250565b600061281c602283612301565b9150612827826127c0565b604082019050919050565b6000602082019050818103600083015261284b8161280f565b9050919050565b7f5061727469636970616e74206e6f7420666f756e640000000000000000000000600082015250565b6000612888601583612301565b915061289382612852565b602082019050919050565b600060208201905081810360008301526128b78161287b565b9050919050565b7f496e76616c696420747261696e696e6720696e74657265737400000000000000600082015250565b60006128f4601983612301565b91506128ff826128be565b602082019050919050565b60006020820190508181036000830152612923816128e7565b9050919050565b7f43616e6e6f74206368616e676520636f6d706c657465642066726f6d2074727560008201527f6520746f2066616c736500000000000000000000000000000000000000000000602082015250565b6000612986602a83612301565b91506129918261292a565b604082019050919050565b600060208201905081810360008301526129b581612979565b9050919050565b7f4e6f7420417574686f72697a6564000000000000000000000000000000000000600082015250565b60006129f2600e83612301565b91506129fd826129bc565b602082019050919050565b60006020820190508181036000830152612a21816129e5565b9050919050565b7f4e487b7100000000000000000000000000000000000000000000000000000000600052602160045260246000fd5b7f547261696e6572206e6f7420666f756e64000000000000000000000000000000600082015250565b6000612a8d601183612301565b9150612a9882612a57565b602082019050919050565b60006020820190508181036000830152612abc81612a80565b9050919050565b7f4e6f2061646d696e7320617661696c61626c6500000000000000000000000000600082015250565b6000612af9601383612301565b9150612b0482612ac3565b602082019050919050565b60006020820190508181036000830152612b2881612aec565b9050919050565b7f496e76616c696420736c6f742049440000000000000000000000000000000000600082015250565b6000612b65600f83612301565b9150612b7082612b2f565b602082019050919050565b60006020820190508181036000830152612b9481612b58565b9050919050565b7f536c6f7420697320616c726561647920626f6f6b656400000000000000000000600082015250565b6000612bd1601683612301565b9150612bdc82612b9b565b602082019050919050565b60006020820190508181036000830152612c0081612bc4565b9050919050565b7f53656e6420657861637420626f6f6b696e672066656500000000000000000000600082015250565b6000612c3d601683612301565b9150612c4882612c07565b602082019050919050565b60006020820190508181036000830152612c6c81612c30565b9050919050565b7f5061727469636970616e74206e6f742072656769737465726564000000000000600082015250565b6000612ca9601a83612301565b9150612cb482612c73565b602082019050919050565b60006020820190508181036000830152612cd881612c9c565b9050919050565b6000819050919050565b612cfa612cf582611f1c565b612cdf565b82525050565b6000612d0c8286612ce9565b602082019150612d1c8285612ce9565b602082019150612d2c8284612ce9565b602082019150819050949350505050565b7f4e487b7100000000000000000000000000000000000000000000000000000000600052601260045260246000fd5b6000612d7782611f1c565b9150612d8283611f1c565b925082612d9257612d91612d3d565b5b828206905092915050565b7f4e487b7100000000000000000000000000000000000000000000000000000000600052603260045260246000fd5b7f4e487b7100000000000000000000000000000000000000000000000000000000600052601160045260246000fd5b6000612e0682611f1c565b91507fffffffffffffffffffffffffffffffffffffffffffffffffffffffffffffffff8203612e3857612e37612dcc565b5b600182019050919050565b6000612e4e82611f1c565b9150612e5983611f1c565b925082612e6957612e68612d3d565b5b828204905092915050565b6000612e7f82611f1c565b9150612e8a83611f1c565b9250817fffffffffffffffffffffffffffffffffffffffffffffffffffffffffffffffff0483118215151615612ec357612ec2612dcc565b5b828202905092915050565b6000612ed982611f1c565b9150612ee483611f1c565b9250828201905080821115612efc57612efb612dcc565b5b92915050565b600081905092915050565b6000612f188261215e565b612f228185612f02565b9350612f3281856020860161217a565b80840191505092915050565b7f3a00000000000000000000000000000000000000000000000000000000000000600082015250565b6000612f74600183612f02565b9150612f7f82612f3e565b600182019050919050565b7f2d00000000000000000000000000000000000000000000000000000000000000600082015250565b6000612fc0600183612f02565b9150612fcb82612f8a565b600182019050919050565b6000612fe28287612f0d565b9150612fed82612f67565b9150612ff98286612f0d565b915061300482612fb3565b91506130108285612f0d565b915061301b82612f67565b91506130278284612f0d565b915081905095945050505050565b7f4e487b7100000000000000000000000000000000000000000000000000000000600052602260045260246000fd5b6000600282049050600182168061307c57607f821691505b60208210810361308f5761308e613035565b5b50919050565b7f496e76616c696420616765000000000000000000000000000000000000000000600082015250565b60006130cb600b83612301565b91506130d682613095565b602082019050919050565b600060208201905081810360008301526130fa816130be565b9050919050565b7f496e76616c696420494400000000000000000000000000000000000000000000600082015250565b6000613137600a83612301565b915061314282613101565b602082019050919050565b600060208201905081810360008301526131668161312a565b9050919050565b7f547261696e657220494420616c72656164792065786973747300000000000000600082015250565b60006131a3601983612301565b91506131ae8261316d565b602082019050919050565b600060208201905081810360008301526131d281613196565b9050919050565b60008190508160005260206000209050919050565b60006020601f8301049050919050565b600082821b905092915050565b60006008830261323b7fffffffffffffffffffffffffffffffffffffffffffffffffffffffffffffffff826131fe565b61324586836131fe565b95508019841693508086168417925050509392505050565b6000819050919050565b600061328261327d61327884611f1c565b61325d565b611f1c565b9050919050565b6000819050919050565b61329c83613267565b6132b06132a882613289565b84845461320b565b825550505050565b600090565b6132c56132b8565b6132d0818484613293565b505050565b5b818110156132f4576132e96000826132bd565b6001810190506132d6565b5050565b601f8211156133395761330a816131d9565b613313846131ee565b81016020851015613322578190505b61333661332e856131ee565b8301826132d5565b50505b505050565b600082821c905092915050565b600061335c6000198460080261333e565b1980831691505092915050565b6000613375838361334b565b9150826002028217905092915050565b61338e8261215e565b67ffffffffffffffff8111156133a7576133a66123e8565b5b6133b18254613064565b6133bc8282856132f8565b600060209050601f8311600181146133ef57600084156133dd578287015190505b6133e78582613369565b86555061344f565b601f1984166133fd866131d9565b60005b8281101561342557848901518255600182019150602085019450602081019050613400565b86831015613442578489015161343e601f89168261334b565b8355505b6001600288020188555050505b505050505050565b7f4164647265737320616c7265616479207265676973746572656420617320616460008201527f6d696e0000000000000000000000000000000000000000000000000000000000602082015250565b60006134b3602383612301565b91506134be82613457565b604082019050919050565b600060208201905081810360008301526134e2816134a6565b9050919050565b7f41646d696e20494420616c726561647920657869737473000000000000000000600082015250565b600061351f601783612301565b915061352a826134e9565b602082019050919050565b6000602082019050818103600083015261354e81613512565b9050919050565b7f4164647265737320616c7265616479207265676973746572656420617320706160008201527f727469636970616e740000000000000000000000000000000000000000000000602082015250565b60006135b1602983612301565b91506135bc82613555565b604082019050919050565b600060208201905081810360008301526135e0816135a4565b9050919050565b7f5061727469636970616e7420494420616c726561647920657869737473000000600082015250565b600061361d601d83612301565b9150613628826135e7565b602082019050919050565b6000602082019050818103600083015261364c81613610565b9050919050565b600081905092915050565b60008190508160005260206000209050919050565b6000815461368081613064565b61368a8186613653565b945060018216600081146136a557600181146136ba576136ed565b60ff19831686528115158202860193506136ed565b6136c38561365e565b60005b838110156136e5578154818901526001820191506020810190506136c6565b838801955050505b50505092915050565b60006137028284613673565b915081905092915050565b7f3000000000000000000000000000000000000000000000000000000000000000600082015250565b6000613743600183612f02565b915061374e8261370d565b600182019050919050565b60007fff0000000000000000000000000000000000000000000000000000000000000082169050919050565b6000819050919050565b6137a061379b82613759565b613785565b82525050565b60006137b182613736565b91506137bd828461378f565b60018201915081905092915050565b60006137d782611f1c565b91506137e283611f1c565b92508282039050818111156137fa576137f9612dcc565b5b9291505056fea26469706673582212209a7aa237c63cc037967d12a3523dea802a2c266ff27a453c470d1c194c3989ef64736f6c63430008100033",
  "immutableReferences": {},
  "source": "// SPDX-License-Identifier: UNLICENSED\npragma solidity ^0.8.0;\n\ncontract DisasterRecoveryTraining {\n    enum TrainingType { first_aid, shelter_rebuild, food_safety }\n    struct Admin {\n        uint256 id;\n        string name;\n        uint256 age;\n        uint256 balance;\n        address admin_address;\n    }\n    \n    struct Trainer {\n        uint256 id;\n        string name;\n        uint256 age;\n        string gender;\n    }\n    \n    struct Participant {\n        uint256 id;\n        string name;\n        uint256 age;\n        string gender;\n        string district;\n        TrainingType training_interest;\n        bool has_completed_training;\n        uint256 balance;\n        address account_address;\n    }\n    \n    struct TrainingSlot {\n        uint256 slotId;\n        uint256 trainerId;\n        uint256 participantId;\n        bool isBooked;\n    }\n\n    uint256 private constant TOTAL_SLOTS_PER_DAY = 48;\n    uint256 private constant BOOKING_FEE = 1 ether;\n    uint256 private constant INITIAL_PARTICIPANT_BALANCE = 10 ether;\n\n    mapping(uint256 => Admin) private admins;\n    mapping(address => bool) private isAdmin;\n    mapping(address => uint256) private participantByAddress;\n    mapping(uint256 => Trainer) private trainers;\n    mapping(uint256 => Participant) private participants;\n    mapping(uint256 => mapping(uint256 => TrainingSlot)) private trainerSlots;\n    uint256[] private adminIds;\n    \n    modifier onlyAdmin() {\n        require(isAdmin[msg.sender], \"Only admin can perform this action\");\n        _;\n    }\n    \n    function registerAdmin(uint256 id, string memory name, uint256 age) external returns (uint256) {\n        require(!isAdmin[msg.sender], \"Address already registered as admin\");\n        require(age > 0, \"Invalid age\");\n        require(id > 0, \"Invalid ID\");\n        require(admins[id].id == 0, \"Admin ID already exists\");\n        \n        admins[id] = Admin(id, name, age, 0, msg.sender);\n        adminIds.push(id);\n        isAdmin[msg.sender] = true;\n        return id;\n    }\n    \n    function registerTrainer(uint256 id, string memory name, uint256 age, string memory gender) external returns (uint256) {\n        require(age > 0, \"Invalid age\");\n        require(id > 0, \"Invalid ID\");\n        require(trainers[id].id == 0, \"Trainer ID already exists\");\n        \n        trainers[id] = Trainer(id, name, age, gender);\n        return id;\n    }\n    \n    function registerParticipant(\n        uint256 id,\n        string memory name,\n        uint256 age,\n        string memory gender,\n        string memory district,\n        uint256 training_interest,\n        bool has_completed_training\n    ) external returns (uint256) {\n        require(participantByAddress[msg.sender] == 0, \"Address already registered as participant\");\n        require(age > 0, \"Invalid age\");\n        require(id > 0, \"Invalid ID\");\n        require(participants[id].id == 0, \"Participant ID already exists\");\n        require(training_interest <= 2, \"Invalid training interest\");\n        \n        participants[id] = Participant(\n            id,\n            name,\n            age,\n            gender,\n            district,\n            TrainingType(training_interest),\n            has_completed_training,\n            INITIAL_PARTICIPANT_BALANCE,\n            msg.sender\n        );\n\n        participantByAddress[msg.sender] = id;\n\n        return id;\n    }\n    \n    function updateParticipantData(uint256 participantId, uint256 newTrainingInterest, bool has_completed_training) external onlyAdmin {\n        require(participants[participantId].id != 0, \"Participant not found\");\n        require(newTrainingInterest <= 2, \"Invalid training interest\");\n        \n        Participant storage p = participants[participantId];\n        require(!p.has_completed_training || has_completed_training, \"Cannot change completed from true to false\");\n        \n        // admin only access\n        require(isAdmin[msg.sender], \"Not Authorized\");\n        p.training_interest = TrainingType(newTrainingInterest);\n        p.has_completed_training = has_completed_training;\n    }\n    \n    function bookTrainingSlot(uint256 trainerId, uint256 slotId) external payable returns (bool) {\n        require(trainers[trainerId].id != 0, \"Trainer not found\");\n        require(adminIds.length > 0, \"No admins available\");\n        require(slotId < TOTAL_SLOTS_PER_DAY, \"Invalid slot ID\");\n        require(!trainerSlots[trainerId][slotId].isBooked, \"Slot is already booked\");\n        require(adminIds.length > 0, \"No admins available\");\n        require(msg.value == BOOKING_FEE, \"Send exact booking fee\");\n\n\n        //\n\n        // Book the slot\n        uint256 participantId = participantByAddress[msg.sender];\n        require(participantId != 0, \"Participant not registered\");\n        trainerSlots[trainerId][slotId] = TrainingSlot(slotId, trainerId, participantId, true);\n\n\n        uint256 randomIndex = uint256(keccak256(abi.encodePacked(block.timestamp, block.difficulty, participantId))) % adminIds.length;\n\n        uint256 selectedAdminId = adminIds[randomIndex];\n        payable(admins[selectedAdminId].admin_address).transfer(msg.value);\n        // participants[participantId].balance -= BOOKING_FEE;\n        // admins[selectedAdminId].balance += BOOKING_FEE;\n        \n        return true;\n    }\n\n    //     function findParticipantByAddress(address addr) internal view returns (uint256) {\n    //     for (uint256 i = 1; i <= 100; i++) { // adjust max range\n    //         if (participants[i].id != 0 && participants[i].account_address == addr) {\n    //             return participants[i].id;\n    //         }\n    //     }\n    //     return 0;\n    // }\n    \n    function viewAdminBalance() external view returns (\n        uint256[] memory adminIdList,\n        uint256[] memory balanceList\n    ) {\n        uint256 totalAdmins = adminIds.length;\n\n        adminIdList = new uint256[](totalAdmins);\n        balanceList = new uint256[](totalAdmins);\n\n        for (uint256 i = 0; i < totalAdmins; i++) {\n            uint256 adminId = adminIds[i];\n            adminIdList[i] = adminId;\n            // Return balances in whole ETH units for display, based on actual address balance\n            balanceList[i] = admins[adminId].admin_address.balance / 1 ether;\n        }\n\n        return (adminIdList, balanceList);\n    }\n    \n    function viewParticipantData(uint256 participantId) external view returns (\n        uint256 id,\n        string memory name,\n        uint256 age,\n        string memory gender,\n        string memory district,\n        uint256 training_interest,\n        bool has_completed_training,\n        uint256 balance\n    ) {\n        require(participants[participantId].id != 0, \"Participant not found\");\n        \n        Participant memory p = participants[participantId];\n        return (\n            p.id,\n            p.name,\n            p.age,\n            p.gender,\n            p.district,\n            uint256(p.training_interest),\n            p.has_completed_training,\n            p.balance\n        );\n    }\n\n    function _toString(uint256 value) internal pure returns (string memory) {\n        if (value == 0) return \"0\";\n        if (value < 10) return string(abi.encodePacked(\"0\", bytes1(uint8(48 + value))));\n        \n        uint256 temp = value;\n        uint256 digits;\n        while (temp != 0) {\n            digits++;\n            temp /= 10;\n        }\n        bytes memory buffer = new bytes(digits);\n        while (value != 0) {\n            digits -= 1;\n            buffer[digits] = bytes1(uint8(48 + uint256(value % 10)));\n            value /= 10;\n        }\n        return string(buffer);\n    }\n\n    function viewTrainerSchedule(uint256 trainerId) external view returns (\n        uint256[] memory availableSlots,\n        string[] memory timeRanges\n    ) {\n        require(trainers[trainerId].id != 0, \"Trainer not found\");\n        uint256 availableCount = 0;\n        for (uint256 i = 0; i < TOTAL_SLOTS_PER_DAY; i++) {\n            if (!trainerSlots[trainerId][i].isBooked) {\n                availableCount++;\n            }\n        }\n        availableSlots = new uint256[](availableCount);\n        timeRanges = new string[](availableCount);\n        uint256 index = 0;\n        \n        for (uint256 i = 0; i < TOTAL_SLOTS_PER_DAY; i++) {\n            if (!trainerSlots[trainerId][i].isBooked) {\n                availableSlots[index] = i;\n                uint256 startHour = i / 2;\n                uint256 startMinute = (i % 2) * 30;\n                uint256 endHour = startHour;\n                uint256 endMinute = startMinute + 30;\n                \n                if (endMinute == 60) {\n                    endHour++;\n                    endMinute = 0;\n                }\n                timeRanges[index] = string(abi.encodePacked(\n                    _toString(startHour), \":\", \n                    startMinute == 0 ? \"00\" : \"30\", \n                    \"-\",\n                    _toString(endHour), \":\",\n                    endMinute == 0 ? \"00\" : \"30\"\n                ));\n                \n                index++;\n            }\n        }\n        \n        return (availableSlots, timeRanges);\n    }\n\n//  Search participants by district  returns total count + sorted IDs + names\nfunction searchParticipantsByDistrict(\n    string memory district\n) external view returns (\n    uint256 totalInDistrict,            // total participants in the district\n    uint256[] memory participantIdsSorted, // sorted list of IDs\n    string[] memory participantNamesSorted // names aligned with IDs\n) {\n    uint256 maxIds = 100; // upper bound, adjust as needed\n    uint256 matchCount = 0;\n\n    // 1 Count matches in the given district\n    for (uint256 i = 1; i <= maxIds; i++) {\n        if (\n            participants[i].id != 0 &&\n            keccak256(bytes(participants[i].district)) == keccak256(bytes(district))\n        ) {\n            matchCount++;\n        }\n    }\n\n    // 2 Collect IDs and names of participants in that district\n    participantIdsSorted = new uint256[](matchCount);\n    participantNamesSorted = new string[](matchCount);\n    uint256 idx = 0;\n\n    for (uint256 i = 1; i <= maxIds; i++) {\n        if (\n            participants[i].id != 0 &&\n            keccak256(bytes(participants[i].district)) == keccak256(bytes(district))\n        ) {\n            participantIdsSorted[idx] = participants[i].id;\n            participantNamesSorted[idx] = participants[i].name;\n            idx++;\n        }\n    }\n\n    // 3 Sort IDs (ascending) and keep names aligned\n    for (uint256 i = 0; i < matchCount; i++) {\n        for (uint256 j = i + 1; j < matchCount; j++) {\n            if (participantIdsSorted[j] < participantIdsSorted[i]) {\n                // swap IDs\n                uint256 tempId = participantIdsSorted[i];\n                participantIdsSorted[i] = participantIdsSorted[j];\n                participantIdsSorted[j] = tempId;\n\n                // swap names so they stay aligned\n                string memory tempName = participantNamesSorted[i];\n                participantNamesSorted[i] = participantNamesSorted[j];\n                participantNamesSorted[j] = tempName;\n            }\n        }\n    }\n\n    // 4 Return total count, sorted IDs, and aligned names\n    totalInDistrict = matchCount;\n}\n\n\n}\n\n",
  "sourcePath": "/home/calypse/baDApp/contracts/DisasterRecoveryTraining.sol",
  "compiler": {
    "name": "solc",
    "version": "0.8.16+commit.07a7930e.Emscripten.clang"
  },
  "schemaVersion": "3.4.16",
  "updatedAt": "2025-08-21T05:05:47.723Z",
  "networkType": "ethereum",
  "devdoc": {
    "kind": "dev",
    "methods": {},
    "version": 1
  },
  "userdoc": {
    "kind": "user",
    "methods": {},
    "version": 1
  }
}